:1000000000000420750300005D0300005F03000092
:1000100061030000630300006503000000000000AE
:100020000000000000000000000000006703000066
:1000300069030000000000006B0300006D03000076
:10004000BD3200006F0300006F0300006F0300006B
:100050006F0300006F030000BD1E00006F0300006F
:10006000E52D0000FD2D00006F03000001390000A8
:100070006F0300006F0300006F0300006F030000B8
:100080006F0300006F0300006F0300006F030000A8
:100090006F0300006F0300006F0300006F03000098
:1000A0006F0300006F0300006F0300006F03000088
:1000B0006F0300006F03000000000000000000005C
:1000C0006F0300006F0300006F0300006F03000068
:1000D0006F0300006F0300006F0300006F03000058
:1000E0006F0300006F0300006F03000000000000BA
:1000F000000000006F030000000000006F0300001C
:1001000000000000000000000000000000000000EF
:1001100000000000000000000000000000000000DF
:1001200000000000000000000000000000000000CF
:1001300000000000000000000000000000000000BF
:1001400000000000000000000000000000000000AF
:10015000000000000000000000000000000000009F
:10016000000000000000000000000000000000008F
:10017000000000000000000000000000000000007F
:10018000000000000000000000000000000000006F
:10019000000000000000000000000000000000005F
:1001A000000000000000000000000000000000004F
:1001B000000000000000000000000000000000003F
:1001C000000000000000000000000000000000002F
:1001D000000000000000000000000000000000001F
:1001E000000000000000000000000000000000000F
:1001F00000000000000000000000000000000000FF
:10020000354936480A1A02D0072291438D463449AF
:1002100034480A1A06D00722914381F30988022242
:1002200082F3148830483149314A00F044F83148AB
:100230003149324A00F03FF831483249324A00F041
:100240003AF832483249334A00F035F832483349F7
:10025000334A00F030F833483349344A00F02BF881
:1002600033483449344A00F026F8344834490022EF
:1002700000F02CF833483449002200F027F83348C6
:100280003349091A082902DB002202604160314A21
:1002900090471F481F49884205D00268043003B4C4
:1002A000904703BCF7E700208646EC46002000217B
:1002B000294A9047FEE7884207D0521A05D00378B2
:1002C00001300B700131013AF9D17047884202D0F8
:1002D00002700130FAE770470000042000E00320BC
:1002E0000000042000000420184600000000002048
:1002F00024000020D0030000D003000016410000BD
:1003000018460000000000200000002018410000F6
:100310001841000018410000184100001841000079
:100320001841000018410000184100001846000064
:100330003C4600002400002024000020240000206F
:10034000DD010020E0010020E0010020E0010020AC
:10035000E02100209D030000893C0000FEE7FEE74D
:10036000FEE7FEE7FEE7FEE7FEE7FEE7FEE7FEE765
:1003700000F002B8FFF7FCBF0F484FF007018843B9
:1003800085460E4880470E48016841F470010160BF
:10039000BFF34F8FBFF36F8FFFF732BF09480A4992
:1003A0000A4A884207D0521A05D0037801300B70F0
:1003B0000131013AF9D1704700000420F53C0000FA
:1003C00088ED00E01841000000000020000000203F
:1003D00086B003900291019201238DF817309DF8A9
:1003E0001730214A039B13601F4A029B53601E4A29
:1003F000019B9360039B44F20102934213D0039B41
:1004000044F20202934221D1019B174AD360164B5A
:10041000DB681B881A46144B9A61134BDB685B68D8
:10042000114AD36112E0019B0F4A13610E4B1B6905
:100430009B680D4A53610C4B1B691B680A4A936108
:10044000094B1B695B68084AD36100BF72B600BFE5
:1004500000BF9DF81730DBB2002BFAD162B600BFA7
:1004600000BF06B0704700BF2400002000B583B075
:1004700002900091019244F2010071466A4600F038
:1004800003F803B000BD00BF00B587B00390029130
:10049000019272B600BF039B44F20102934207D05F
:1004A000039B44F20202934205D1019B059303E0B2
:1004B000019B049300E000BF074B1B6803F001039E
:1004C000002B00D000BE019A02990398FFF780FF2D
:1004D00000BF07B05DF804FBF0ED00E082B00190D2
:1004E0000B46ADF80230BDF80230019A13441846AD
:1004F00002B0704782B00190019BD3F81035DBB297
:10050000184602B0704782B001900B468DF8033058
:100510009DF80320019B02F5A87253F8223018467B
:1005200002B0704782B00190019B9B0003F5A0735D
:100530009BB2184602B0704770B586B001900B466A
:100540008DF803309DF803300593019B18464FF05A
:1005500000014FF000024FF000030B0143EA10735B
:1005600002010599C1F12006A1F1200022FA01F44F
:1005700003FA06F6344323FA00F0044323FA01F5A4
:10058000CDE90245DDE90223012B08BF002A04D38F
:10059000044940F2B32000F07CFE029B184606B0EE
:1005A00070BD00BF1841000010B582B001900091ED
:1005B000019B5B791A46009B934204D3094940F2A0
:1005C0006B1000F066FE019B1C680098FFF7AAFF05
:1005D000034619462046FFF781FF0346184602B03E
:1005E00010BD00BF5041000000B583B001900B4624
:1005F0008DF80330019B1B689DF8032011461846B7
:10060000FFF781FF0346184603B05DF804FB00B511
:1006100083B001900091019B1B681846FFF76AFFA9
:10062000034619460098FFF787FF0346184603B0B4
:100630005DF804FB00B583B00190019B1B682F2B74
:1006400004D90B4940F2CD1000F023FE019B1B683A
:100650001F2B02D84FF0A04306E0019B1B6803F05C
:100660001F02019B1A60034B184603B05DF804FBA0
:10067000944100000003005000B585B0019001AB2B
:100680001846FFF7D7FF0390019B012202FA03F3FC
:100690001946039800F018F800BF05B05DF804FB98
:1006A00000B585B0019001AB1846FFF7C3FF03907A
:1006B000019B012202FA03F31946039800F00EF899
:1006C00000BF05B05DF804FB82B001900091019B72
:1006D000009AC3F8082500BF02B0704782B00190AD
:1006E0000091019B009AC3F80C2500BF02B070472F
:1006F00082B001900B468DF8033000BF02B0704706
:1007000000B585B00190019B5B681B791A461A4BB6
:100710009B5C8DF80E3001238DF80F309DF80E3064
:10072000FF2B20D09DF80E30FE2B1FD0019B5B6865
:100730009DF80E2011461846FFF756FF0246019B12
:100740005B681B7919460D4B53F821309A420DD145
:10075000019B5B681B791A46074BFF2199540023C4
:100760008DF80F3002E000238DF80F309DF80F3028
:10077000184605B05DF804FB48000020500000203A
:1007800000B583B00190019B5B680221184602F01E
:1007900075FA00BF03B05DF804FB00B583B00190AB
:1007A000019B5B680221184602F0A2FA00BF03B069
:1007B0005DF804FB00B587B003460091ADF8063044
:1007C000009B049301238DF8173000238DF8163019
:1007D0003AE09DF816302649049A52000A44134420
:1007E0001B78DBB2002B2AD09DF816302049049AE2
:1007F00052000A441A441278D2B2013AD0B21C49CB
:10080000049A52000A44134402461A709DF81630A6
:100810001749049A52000A4413441B78DBB2002B98
:100820000AD1144A049B52F823301B680393039B9C
:10083000DB690498984702E000238DF817309DF893
:10084000163001338DF816309DF81630012BC0D9C3
:100850009DF81730002B06D0064A049B52F823302F
:100860001846FFF79AFF00BF07B05DF804FB00BF12
:10087000640000207000002000B585B00190019B4D
:100880001B680293029B93F82030184601F0A0FDEC
:1008900000238DF80F306CE000238DF80E3031E02E
:1008A0009DF80F209DF80E10029813465B0013442C
:1008B0009B0003440B4408331B78FF2B1DD09DF88D
:1008C0000F209DF80E10029813465B0013449B0006
:1008D00003440B4408331B78184601F079FD9DF85A
:1008E0000F209DF80E10029813465B0013449B00E6
:1008F00003440B440833FF221A709DF80E30013375
:100900008DF80E309DF80E30012BC9D99DF80F20BF
:10091000029913465B0013449B000B441B68B3F120
:10092000FF3F16D09DF80F20029913465B00134439
:100930009B000B441B68184601F0B4F99DF80F208A
:10094000029913465B0013449B000B444FF0FF32A7
:100950001A609DF80F20029913465B0013449B0018
:100960000B440B3300221A709DF80F3001338DF8C1
:100970000F309DF80F30012B8ED9019B5B68184614
:1009800002F066F800BF05B05DF804FB30B587B033
:1009900001900B468DF803301346ADF80030019BF3
:1009A0001B6805939DF8032013465B0013449B00CE
:1009B000059A134404939DF803308DF80F30059B7E
:1009C00093F82030184601F09BFDBDF80030002B55
:1009D00011D1049B5B7A184601F092FD049B1B7AAF
:1009E000184601F058FD019B5B681B791A46484B7D
:1009F000FF21995485E0BDF80020059B9B699A4230
:100A000015D3059B9B69ADF80030049B1B7A1846F3
:100A100001F076FD049B5B7A184601F03CFD019BDA
:100A20005B681B791A463A4BFF21995469E0049B95
:100A30005A68059B9B699A4249D0049B5B68002BCE
:100A400045D0BDF80020049B5B689A423FD2019BD1
:100A50005868049B5A680023032102F0A7F8059BFD
:100A600093F82040019B5B6803211846FFF79CFD2B
:100A70000546049B9B7A002B06D0049B1B681846F6
:100A800001F0AEF9034605E0049B1B68184601F02F
:100A90007BF903461A462946204601F0C3FC059B14
:100AA00093F82030184601F0F6FC019B5B681B7937
:100AB0001946174A9DF803305354019B5B681B7914
:100AC0001946BDF80030134A42F8213006E0019B78
:100AD0005B681B791A460E4BFF219954019B58689D
:100AE000BDF800209DF80F10002302F05FF8049B72
:100AF0001B7A184601F0CFFC049B5B7A184601F084
:100B0000CAFCBDF80020049B5A6000BF07B030BD8E
:100B1000480000205000002000B585B001900B4631
:100B20008DF803301346ADF80030019B1B6803932A
:100B30009DF8032013465B0013449B00039A134463
:100B400002939DF80330012B04D92C4940F25B201D
:100B500000F09FFB029BDB7A012B04D027494FF466
:100B6000177000F096FB039B93F82130022B01D005
:100B700008233EE0BDF80020029B5B689A420CD13E
:100B8000039BDB69002B06D0039BDB69019A52684B
:100B900012791046984700232BE00198FFF7B0FD2B
:100BA0000346002B01D0112323E0019B5B681B79D6
:100BB0001A46134BFE219954BDF800209DF80330CE
:100BC00019460198FFF7E2FE019B1B68DB69002BC9
:100BD0000ED0019B5B681B791A469DF803300949CA
:100BE00052000A44134402221A700198FFF7C8FD0C
:100BF0000023184605B05DF804FB00BFC8410000A3
:100C0000480000206400002084B00190019B1B6814
:100C10000393039B9B699BB2184604B07047000086
:100C200000B585B001900B468DF803301346ADF842
:100C300000300198FFF7E8FF03461A46BDF8003080
:100C400003FB02F3084AA2FB03235B090393039B04
:100C50009AB29DF8033019460198FFF75DFF0346ED
:100C6000184605B05DF804FB1F85EB5110B58CB03C
:100C7000039001921A460B468DF80B3013468DF8FF
:100C80000A309DF80B30012B04D968494FF42B70C2
:100C900000F0FFFA039B1B680A939DF80B20134694
:100CA0005B0013449B000A9A134409930A9B93F830
:100CB0002130002B01D00823B4E0099B00225A60A8
:100CC000099B9DF80A209A7203238DF81430039B28
:100CD00019689DF80B2013465B0013449B000B44DE
:100CE0000A331B78002B0CBF01230023DBB28DF8E5
:100CF000153001238DF8163005AB1946019800F028
:100D000069FF0890089B002B01D004238AE09DF81E
:100D10000B200A9913465B0013449B000B44019A75
:100D20001A609DF80A30002B03D00198FFF7B8FC39
:100D300002E00198FFF7A0FC00238DF82F3011E0AE
:100D40009DF82F300833099A1344184601F0ECFA45
:100D50000346002B01D0042364E09DF82F300133BB
:100D60008DF82F309DF82F30012BE9D9099B1B7A84
:100D7000184601F0C5FB099B5B7A184601F0C0FBE1
:100D80009DF80A30002B06D0099B1B68184601F01D
:100D900027F8034605E0099B1B68184600F0F4FF9E
:100DA000034607939DF80A30002B06D0099B1B6869
:100DB000184600F0E9FF034605E0099B1B6818464A
:100DC00001F00EF803460693099B1C7A039B5B68AF
:100DD0009DF80B2011461846FFF7E6FB0346079ADD
:100DE0001946204601F01EFB099B5C7A039B5B6859
:100DF00002211846FFF7D8FB0346069A19462046FB
:100E000001F010FB099B0122DA72039B5B681B79DE
:100E10001A469DF80B30064952000A44134400223A
:100E20001A70002318460CB010BD00BFC841000066
:100E30006400002084B001900023039309230293EF
:100E400005E0019B5B080193039B01330393019B26
:100E5000B3F5805F03D3039A029B9A42F1D3074B09
:100E60001B78002B04D0039B002B01D1012303939B
:100E7000039BDBB2184604B0704700BF440000205B
:100E800000B58FB0059004910392059B002B04D10F
:100E90008F4940F2113000F0FCF9049B002B01D186
:100EA0000B2310E1059B1B680C930C9B93F82130DE
:100EB000002B01D0082306E100F002FA0B900B9BF7
:100EC000002B04D00B9B852B01D00423FBE000F00A
:100ED00075FE034683F00103DBB2002B07D000F060
:100EE0001BFE0B900B9B002B01D00323EBE0794BF7
:100EF0001B6803F0F003302B03D1774B00221A70EC
:100F000002E0754B01221A700C9BFF2283F820200F
:100F100000238DF8373030E09DF837200C991346C8
:100F20005B0013449B000B440B3300221A709DF8A6
:100F300037200C9913465B0013449B000B44083385
:100F4000FF221A709DF837200C9913465B0013445A
:100F50009B000B440933FF221A709DF837200C992F
:100F600013465B0013449B000B444FF0FF321A60A2
:100F70009DF8373001338DF837309DF83730012B2D
:100F8000CAD90C9B2033184601F0CEF90346002B3A
:100F900004D00598FFF770FC042394E000238DF83B
:100FA00036302CE09DF83620049B53F82230B3F104
:100FB000FF3F1FD09DF83620049B53F822009DF878
:100FC0003630049A13441B7A9DF836100246059871
:100FD000FFF74CFE0B900B9B002B04D00598FFF7FE
:100FE0004BFC0B9B6FE09DF83630002219460598AC
:100FF000FFF792FD9DF8363001338DF836309DF8BD
:101000003630012BCED9049B1B691846FFF712FF1F
:1010100003468DF82B309DF82B308DF81C300023C3
:101020008DF81D3000238DF81E3007238DF81F30FA
:10103000059B5B681B790893059B5B6807A9274A9A
:10104000184601F009FC0B900B9B002B04D005986F
:10105000FFF712FC0B9B36E0059B5A68049B1B694B
:1010600019461046FFF7D3FA09900C9B099A9A612A
:10107000059B5B68184601F077FD059B58680123C6
:1010800000930423099A022101F0C9FD059B5B68C6
:101090000221184601F02CFE0C9B039ADA61059B95
:1010A0005B681B7919460E4A059B42F82130059B67
:1010B0005B681B791A460B4BFF2199540C9B01224C
:1010C00083F82120002318460FB05DF804FB00BF11
:1010D000C8410000E80F00F044000020B507000000
:1010E000700000204800002000B587B00190019BEF
:1010F0001B680493049B93F82130002B04D13049E2
:1011000040F2973000F0C5F80023059334E0059ACB
:1011100013465B0013449B00049A13440393019B02
:101120005B681B79274A5B001A44059B1344002225
:101130001A70039BDB7A002B1BD0039B1868019B62
:101140001968059A13465B0013449B000B440A334D
:101150001B78002B0CBF01230023DBB2194600F0E3
:101160006BFE039B1B68184600F0DCFD039B00220E
:101170005A60059B01330593059B012BC7D9019B41
:101180005B681B791A46104BFF219954019B5B68E1
:101190001B6801211846FFF7ABFA019B5B681846F4
:1011A00001F0E2FC019B5B68184601F081FC049BA6
:1011B000022283F8212000BF07B05DF804FB00BFC6
:1011C000C8410000640000204800002072B600BF43
:1011D000034B1B680133024A136000BF704700BF16
:1011E00084000020064B1B68013B054A1360044B3A
:1011F0001B68002B01D162B600BF00BF704700BF63
:101200008400002000B583B0019000F025F803466B
:10121000012B03D00449432000F03BF8FFF7D6FF31
:1012200000BF03B05DF804FB1842000000B583B0B6
:1012300003468DF8073000F00FF80346012B03D06A
:101240000449512000F025F8FFF7CCFF00BF03B0A0
:101250005DF804FB1842000084B0EFF305830193AE
:10126000019BC3F308030393039B002B0DD1EFF302
:1012700014830093009B0293029B03F00103002B55
:101280000CBF01230023DBB200E00123184604B0A9
:10129000704700B585B003460091ADF80630BDF843
:1012A0000630ADF80830009B039302AB1A460021CC
:1012B00044F20200FFF7E8F800BF05B05DF804FB58
:1012C000054B1B78002B04D1034B01221A7000231D
:1012D00000E08523184670478800002082B003464E
:1012E0008DF807309DF8073003F01F0205499DF97E
:1012F00007305B09012000FA02F241F8232000BF09
:1013000002B0704700E100E082B0034600918DF822
:1013100007309DF90730002B0CDA009BDAB20C493C
:101320009DF8073003F00F03043B5201D2B20B4487
:101330001A7609E0009BDAB206499DF9073052019E
:10134000D2B20B4483F8002300BF02B0704700BF45
:1013500000ED00E000E100E000B583B003460A467E
:101360008DF8073013468DF806309DF80630072BB0
:1013700003D908496B20FFF78CFF9DF806209DF9E3
:10138000073011461846FFF7BFFF00BF03B05DF8F6
:1013900004FB00BF7042000000B583B003468DF827
:1013A00007309DF907301846FFF798FF00BF03B0DC
:1013B0005DF804FB82B003468DF807309DF80730D6
:1013C00003F1804303F5C043184602B0704700B5EF
:1013D00083B00346ADF80630BDF80630184600F07D
:1013E00026F803461B68012B0CBF01230023DBB248
:1013F000184603B05DF804FB00B585B00346ADF8B0
:101400000630BDF80630184600F011F803461A46BB
:1014100000231360BDF80630184600F008F80346B4
:101420001B680393039B00BF05B05DF804FB82B00B
:101430000346ADF80630BDF8063003F1804303F5EE
:10144000C043184602B0704782B00190034A019B26
:10145000C2F8043300BF02B0704700BF0060004014
:1014600082B00190034BD3F80423019B134018462C
:1014700002B070470060004082B00190054A019BB5
:1014800003F5A27352F823301B0A03F03F031846FA
:1014900002B070470060004082B00190064A019B94
:1014A00003F5A27352F823301B0C03F00303DBB2E5
:1014B000184602B0704700BF0060004084B0019041
:1014C000094A019B03F5A27352F8233043F003034A
:1014D00003930549019B03F5A273039A41F8232066
:1014E00000BF04B0704700BF0060004084B00390AC
:1014F000029111461A460B468DF8073013468DF8B7
:101500000630184A039B03F5A27352F8233015499D
:1015100023F4991323F4F853039A02F5A27241F8C5
:101520002230104A039B03F5A27352F82320029B3A
:101530001B0203F47C519DF807301B0403F4403375
:1015400019439DF806301B0503F480130B4305492E
:101550001A43039B03F5A27341F8232000BF04B094
:10156000704700BF0060004082B001900B468DF8CC
:1015700003300B4A019B03F5A27352F8233023F486
:1015800080129DF803301B0503F4801304491A43AD
:10159000019B03F5A27341F8232000BF02B07047FE
:1015A0000060004082B00190044A019B03F5A273E1
:1015B000002142F8231000BF02B0704700600040D5
:1015C00000B583B00190019B1B682F2B04D90B49F8
:1015D00040F2CD10FFF75DFE019B1B681F2B02D868
:1015E0004FF0A04306E0019B1B6803F01F02019B24
:1015F0001A60034B184603B05DF804FBA8420000D4
:101600000003005000B585B00190084611461A4607
:1016100003468DF803300B468DF8023013468DF8E3
:10162000013001AB1846FFF7CBFF03909DF8032074
:101630009DF802305B001A439DF801309B001A436D
:101640009DF818301B0242EA03019DF81C301B0470
:10165000019A1943039B02F5E07243F8221000BF80
:1016600005B05DF804FB00B585B00390002301933D
:10167000002300930023012201210398FFF7C2FFFA
:1016800000BF05B05DF804FB00B585B003900023F2
:101690000193002300930023012200210398FFF708
:1016A000B1FF00BF05B05DF804FB00B585B0019047
:1016B0000B468DF8033001AB1846FFF781FF03900E
:1016C000019A039B02F5E07253F82230019A23F449
:1016D0004031039B02F5E07243F82210019A039B0C
:1016E00002F5E07253F822309DF8032012041146EF
:1016F000019A1943039B02F5E07243F8221000BFE0
:1017000005B05DF804FB00B585B0019001AB18464B
:10171000FFF756FF0390019B012202FA03F31946DB
:10172000039800F036F800BF05B05DF804FB00B583
:1017300085B0019001AB1846FFF742FF0390019B73
:10174000012202FA03F31946039800F02CF800BFB7
:1017500005B05DF804FB00B585B0019001AB1846FB
:10176000FFF72EFF0390019A039B02F5E07253F8F6
:1017700022301B0C03F00303DBB2184605B05DF802
:1017800004FB82B00190019BD3F81035184602B0DB
:10179000704782B001900091019B009AC3F8082520
:1017A00000BF02B0704782B001900091019B009A87
:1017B000C3F80C2500BF02B07047000000B589B027
:1017C000039002910192184A05AB92E8030083E866
:1017D0000300039A029B1344022B04D9134940F2DD
:1017E000FD20FFF756FD039B079311E0079B9B002D
:1017F00008AA134453F80C3C1846FFF7C2FF0246F0
:10180000019B1A60019B04330193079B01330793EB
:10181000039A029B1344079A9A42E7D300BF00BF82
:1018200009B05DF804FB00BFDC420000A8420000E4
:1018300084B001900091009B0393019BDB0802930D
:10184000019B03F0070301930122019B02FA03F3BA
:101850000399029A0A4412781340184604B070475C
:1018600084B001900091009B0393019BDB080293DD
:10187000019B03F007030193039A029B13441B7817
:101880005AB20121019B01FA03F35BB2134359B22F
:10189000039A029B1344CAB21A7000BF04B0704787
:1018A00084B001900091009B0393019BDB0802939D
:1018B000019B03F007030193039A029B13441B78D7
:1018C0005AB20121019B01FA03F35BB2DB435BB225
:1018D000134059B2039A029B1344CAB21A7000BF54
:1018E00004B0704782B00190074A019B134424332F
:1018F00093F90030B3F1FF3F14BF01230023DBB2A3
:10190000184602B0704700BF8C00002082B00190E2
:101910000C4A019B1344243393F90030002B09DB5C
:10192000084A019B1344243393F90030072B01DC50
:10193000012300E0002303F00103DBB2184602B0EC
:10194000704700BF8C00002084B003900291019288
:101950008DF80330029B59B20E4A039B1344243383
:101960000A461A700B49029B019A41F823209DF800
:10197000033083F00103DBB2002B08D0029B083B4D
:10198000039A51B2034A13440A4683F8542000BF15
:1019900004B070478C00002082B00190044A019B83
:1019A00013442433FE221A7000BF02B0704700BFF8
:1019B0008C00002082B00190044A019B1344243320
:1019C000FF221A7000BF02B0704700BF8C000020D9
:1019D00000B583B0019004490198FFF741FF00BFB3
:1019E00003B05DF804FB00BFE100002000B583B048
:1019F000019004490198FFF753FF00BF03B05DF861
:101A000004FB00BFE100002000B583B0019007494E
:101A10000198FFF70DFF0346002B14BF012300239D
:101A2000DBB2184603B05DF804FB00BFE100002004
:101A300082B00190044A019B1344243393F900308F
:101A4000184602B0704700BF8C00002082B00190A1
:101A5000034A019B52F82330184602B0704700BF7A
:101A60008C00002000B589B00390029113468DF8D8
:101A70000730FF238DF81F309DF80730002B01D071
:101A8000002300E0082305939DF80730002B01D0C8
:101A9000082300E009230493059B069314E00F4AF2
:101AA000069B52F82330B3F1FF3F0AD19DF807306F
:101AB000029A06990398FFF747FF069B8DF81F309F
:101AC00006E0069B01330693069A049B9A42E6D3EE
:101AD0009DF91F30184609B05DF804FB8C0000200A
:101AE00082B003468DF807309DF80730094A4FF061
:101AF000FF3142F823109DF80730072B07D99DF8D6
:101B00000730083B034A1344FF2283F8542000BFE8
:101B100002B070478C00002000B583B0254B93F8CD
:101B20005B30002B03D008230093009B3EE0002392
:101B30008DF8073009E09DF807301846FFF73AFFA7
:101B40009DF8073001338DF807309DF807302F2BB3
:101B5000F1D900238DF8073009E09DF807301846C9
:101B6000FFF7BEFF9DF8073001338DF807309DF871
:101B70000730082BF1D9062200210F4802F098FA0D
:101B800006210620FFF7E8FB0620FFF705FC4FF4CF
:101B9000BE70FFF731FC4FF00040FFF755FC054BDE
:101BA000012283F85B2000230093009B184603B0BA
:101BB0005DF804FB8C000020E1000020044B93F84A
:101BC0005B30002B14BF01230023DBB218467047A3
:101BD0008C00002000B585B001900091019B2F2B57
:101BE00004D92E494FF49870FFF753FB2C4B93F810
:101BF0005B30012B04D0294940F23110FFF749FB3B
:101C0000009B002B04D125494FF49970FFF741FB4D
:101C1000002303930198FFF765FE0346002B02D0D3
:101C20000823039334E0009B9B78002B19D00122FA
:101C300000210198FFF716FF03468DF80B309DF940
:101C40000B30B3F1FF3F09D09DF90B00009B1A78D0
:101C5000009B5B780199FFF749FC05E0042303939F
:101C600002E00198FFF798FE039B002B10D1009B28
:101C70005B78012B03D10198FFF745FD02E0019845
:101C8000FFF755FD0198FFF7EEFC0198FFF7A0FE66
:101C9000039B184605B05DF804FB00BFE44200005A
:101CA0008C00002000B583B00190019B2F2B04D93C
:101CB0001B494FF4B470FFF7ECFA0198FFF712FEDE
:101CC0000346002B04D1164940F26910FFF7E1FAF0
:101CD0000198FFF71BFE0346002B0ED00198FFF77B
:101CE000A7FE0346DBB21846FFF7FAFE0198FFF79E
:101CF0009FFE03461846FFF755FC0198FFF75AFE72
:101D00000198FFF781FE0346002B05D00198FFF7ED
:101D1000BBFC0198FFF76AFE00BF03B05DF804FB4F
:101D2000E442000000B583B00190019B2F2B04D941
:101D300013494FF4CD70FFF7ACFA0198FFF7D2FDCD
:101D40000346002B04D10E4940F29B10FFF7A1FA85
:101D50000198FFF7DBFD0346002B04D108494FF43F
:101D6000CE70FFF796FA074A019B1344243393F988
:101D700000301846FFF7A2FB00BF03B05DF804FB7C
:101D8000E44200008C00002000B585B00190019B6A
:101D90002F2B04D9114940F2B910FFF77AFA0198B4
:101DA000FFF7B4FD0346002B04D10C494FF4DD705E
:101DB000FFF76FFA0198FFF73BFE0346DBB20C33E7
:101DC000DBB29B008DF80F309DF80F301846FFF7FF
:101DD000F1FA0346184605B05DF804FBE442000042
:101DE00000B585B00190019B2F2B04D911494FF408
:101DF000E370FFF74EFA0198FFF788FD0346002BCA
:101E000004D10C4940F2C710FFF743FA0198FFF7DD
:101E10000FFE0346DBB21833DBB29B008DF80F30A8
:101E20009DF80F301846FFF7C5FA0346184605B06F
:101E30005DF804FBE442000000B585B001900B465C
:101E40008DF80330019B2F2B04D91A494FF4E97008
:101E5000FFF71FFA0198FFF745FD0346002B04D159
:101E6000144940F2D310FFF714FA0198FFF74EFD22
:101E70000346002B04D10F494FF4EA70FFF709FA2B
:101E80009DF80330002B14BF01230023DBB28DF833
:101E90000F30094A019B1344243393F900301A464A
:101EA0009DF80F3019461046FFF75EFB00BF05B0E6
:101EB0005DF804FBE44200008C00002000B599B0FE
:101EC0000023179306AB00221A605A604FF4807308
:101ED000ADF85630012314930023169321E0BDF88A
:101EE00056301846FFF773FA0346002B0ED01498AD
:101EF000FFF7B6FA0346002B08D0BDF85630184657
:101F0000FFF77AFA179A149B13431793149B5B00FD
:101F10001493BDF856300433ADF85630169B013398
:101F20001693169B072BDAD94FF4BE70FFF74FFAC2
:101F30000346002B0DD04FF4BE70FFF75DFA179BE0
:101F400043F00043179306AB1A4602210020FFF727
:101F500035FC179BDBB2002B29D0012314930023FF
:101F6000169321E0149A179B1340002B16D0169855
:101F7000FFF782FA11901698FFF78EFA03468DF854
:101F800043301698FFF762FD0F900F9B002B05D092
:101F90009DF843200F9B114611989847149B5B00B6
:101FA0001493169B01331693169B072BDAD9179BB4
:101FB000002B80F2F08000238DF84B3004AB002220
:101FC0001A605A60002313930AE0139B9B0018AA1F
:101FD00013444FF0FF3243F8582C139B01331393F3
:101FE000139B012BF1D900238DF84B30002316935E
:101FF00078E06B4A169B1344543393F900308DF804
:102000003B309DF83B3023F0C0030D93644A169B90
:102010001344543393F90030B3F1FF3F5FD002AB68
:1020200019460D98FFF704FC0346002B57D09DF886
:102030003B309B098DF833300D98FFF7F9FC0346D0
:102040001846FFF703FD0B900B9B002B03D19DF867
:102050003330032B43D19DF83330032B04D104AB31
:1020600019460D98FFF7FCFB0D98FFF774FB03462C
:102070008DF82B3006AB19460D98FFF7D9FB099068
:10208000099B002B03D09DF82B30022B06D0099B17
:10209000002B24D19DF82B30032B20D19DF8333019
:1020A000032B13D19DF82B30022B01D1032300E029
:1020B00002238DF823309DF8233019460D98FFF741
:1020C000F4FA9DF84B3001338DF84B300B9B002B0D
:1020D00005D09DF833200B9B11460D989847169B11
:1020E00001331693169B002B83D09DF84B30002BA9
:1020F0004CD001238DF84A306B461A46022100204D
:10210000FFF75CFB0023139314E0139B9B0018AABA
:10211000134453F8602C139B9B0018A90B4453F8ED
:10212000483C9A4203D000238DF84A3005E0139BC7
:1021300001331393139B012BE7D99DF84A30002BF1
:1021400003D000238DF84B3020E0002313931AE0D6
:10215000139B9B0018AA134453F8602C139B9B00FD
:1021600018A90B4443F8482C139B9B0018AA13444E
:1021700053F8502C139B9B0018A90B4443F8582C80
:10218000139B01331393139B012BE1D99DF84B3023
:10219000002B7FF428AF00BF19B05DF804FB00BF2F
:1021A0008C00002082B003468DF807309DF8073080
:1021B000044A012101FA03F3C2F8043500BF02B05A
:1021C000704700BF00F0014082B003468DF8073031
:1021D0009DF80730044A012101FA03F3C2F80835DB
:1021E00000BF02B0704700BF00F0014084B003465A
:1021F000029101928DF80F3008499DF80F30A233FB
:10220000029A41F83320054A9DF80F30A233DB00D3
:102210001344019A5A6000BF04B0704700F00140B7
:1022200082B003468DF807309DF80730012202FA8C
:1022300003F3184602B0704700B583B003468DF82B
:1022400007309DF807301846FFF7EAFF0346C3F34F
:102250001303002B14BF01230023DBB2184603B085
:102260005DF804FB82B001900123184602B070476C
:1022700000B583B003468DF807309DF80730184647
:10228000FFF7CEFF03461846FFF7ECFF034618465C
:1022900003B05DF804FB000000B583B003468DF881
:1022A00007309DF807301846FFF7BAFF0246064B85
:1022B0001B681340002B14BF01230023DBB2184618
:1022C00003B05DF804FB00BFE800002000B583B058
:1022D00003468DF807309DF807301846FFF7A0FF3A
:1022E0000246044B1B681343024A136000BF03B04D
:1022F0005DF804FBE800002000B583B003468DF8CC
:1023000007309DF807301846FFF78AFF0346DA4387
:10231000044B1B681340034A136000BF03B05DF811
:1023200004FB00BFE800002000B587B00190002347
:1023300005930023039304230593244B0393002365
:102340008DF8133037E00020FEF75CFF9DF8133066
:102350001846FFF765FF0246039B1340002B15D07C
:102360009DF813301846FFF797FF034683F00103EB
:10237000DBB2002B0AD09DF813301846FFF7A6FFFA
:10238000019B9DF813201A70002305930020FEF78F
:102390004DFF059B002B12D09DF813301846FFF718
:1023A0003FFF0346DB43039A134003939DF813302A
:1023B00001338DF81330039B002BC4D100E000BF24
:1023C000059B184607B05DF804FB00BFFFFF0F0038
:1023D00000B585B003468DF80730002303939DF8C0
:1023E00007301846FFF728FF034683F00103DBB2EE
:1023F000002B02D0072303930FE09DF80730184607
:10240000FFF7E2FE0020FEF7FDFE9DF807301846BC
:10241000FFF772FF0020FEF709FF039B184605B087
:102420005DF804FB00B587B00346029101928DF878
:102430000F30029B002B02D0019B002B01D10E23F9
:1024400025E0002305939DF80F301846FFF7F4FEB2
:10245000034683F00103DBB2002B02D00723059370
:1024600014E09DF80F301846FFF716FF034683F07F
:102470000103DBB2002B02D00823059306E09DF890
:102480000F30019A02991846FFF7B0FE059B1846D7
:1024900007B05DF804FB00B585B003468DF8073042
:1024A000002303939DF807301846FFF7E1FE03462B
:1024B00083F00103DBB2002B02D0072303931AE061
:1024C0009DF807301846FFF7B7FE0346002B0DD0E6
:1024D0009DF807301846FFF7DFFE034683F001033F
:1024E000DBB2002B02D00823039304E09DF80730F1
:1024F0001846FFF757FE039B184605B05DF804FB2E
:1025000000B585B003468DF80730002303939DF88E
:1025100007301846FFF7ACFE034683F00103DBB239
:10252000002B02D0072303931CE09DF807301846C8
:10253000FFF782FE0346002B0DD09DF807301846AA
:10254000FFF7AAFE034683F00103DBB2002B02D0A3
:102550000823039306E09DF807301846FFF734FE82
:1025600000230393039B184605B05DF804FB0000AD
:1025700082B003468DF807309DF8073003F01F0244
:1025800005499DF907305B09012000FA02F241F884
:10259000232000BF02B0704700E100E082B0034694
:1025A0008DF807309DF8073003F01F0206499DF9AA
:1025B00007305B09012000FA02F2203341F82320A2
:1025C00000BF02B0704700BF00E100E082B00346E8
:1025D00000918DF807309DF90730002B0CDA009B35
:1025E000DAB20C499DF8073003F00F03043B5201A7
:1025F000D2B20B441A7609E0009BDAB206499DF983
:1026000007305201D2B20B4483F8002300BF02B05E
:10261000704700BF00ED00E000E100E082B00190F3
:10262000019B1B0B5BB2184602B0704700B583B02C
:1026300003460A468DF8073013468DF806309DF89C
:102640000630072B03D908496B20FEF722FE9DF8C0
:1026500006209DF9073011461846FFF7B7FF00BF67
:1026600003B05DF804FB00BF3843000000B583B041
:1026700003468DF807309DF907301846FFF778FFBD
:1026800000BF03B05DF804FB00B583B003468DF8CE
:1026900007309DF907301846FFF780FF00BF03B0F1
:1026A0005DF804FB82B001900B468DF803309DF875
:1026B0000330019A134401221A6000BF02B0704730
:1026C00084B001900B46ADF80230BDF80230019A9B
:1026D000134400221A60BDF80230019A13441B68AB
:1026E0000393039B00BF04B0704782B001900B4678
:1026F000ADF80230BDF80230019A13441B68002B7C
:1027000014BF01230023DBB2184602B0704782B029
:1027100001900091019BD3F80022009B1A43019B7A
:10272000C3F8002200BF02B0704782B00190009150
:10273000019BD3F80022009BDB431A40019BC3F8A6
:10274000002200BF02B0704782B001900091019B4F
:10275000009AC3F8042300BF02B0704782B0019012
:102760000091019B009AC3F8082300BF02B0704794
:1027700082B001900091019BD3F80423009B134089
:10278000002B14BF01230023DBB2184602B07047B0
:1027900082B001900B468DF80330019BD3F80435CD
:1027A00023F003029DF8033003F003031A43019B57
:1027B000C3F8042500BF02B0704782B001900B46F9
:1027C0008DF80330019BD3F8083523F003029DF800
:1027D000033003F003031A43019BC3F8082500BF2D
:1027E00002B0704782B001900B468DF80330019B18
:1027F000D3F8103523F00F029DF8033003F00F03D8
:102800001A43019BC3F8102500BF02B0704784B083
:1028100003900B4601928DF80B309DF80B20039B23
:1028200002F5A872019943F8221000BF04B0704766
:1028300082B00190019B9B0003F5A0739BB21846E8
:1028400002B0704782B001904FF48032019B02FACF
:1028500003F3184602B0704710B588B00390029198
:102860000192039B1B791A4613465B0013449B009D
:10287000704A13440693029B002B03D16E494A20F1
:10288000FEF707FD019B002B03D16B494B20FEF7A0
:1028900000FD069B1B7A002B03D008230593059BA4
:1028A000C4E0039B1B68654A93420FD1029B9B784F
:1028B000012B64D0029B9B78002B60D0029B9B78FD
:1028C000022B5CD0029B9B78032B58D0039B1B6888
:1028D0005B4A93420FD1029B9B78012B4FD0029B06
:1028E0009B78002B4BD0029B9B78022B47D0029BFE
:1028F0009B78032B43D0039B1B68524A93420FD112
:10290000029B9B78012B3AD0029B9B78002B36D000
:10291000029B9B78022B32D0029B9B78032B2ED0FC
:10292000039B1B68484A93420FD1029B9B78012B63
:1029300025D0029B9B78002B21D0029B9B78022BF9
:102940001DD0029B9B78032B19D0039B1B683F4A29
:1029500093420FD1029B9B78012B10D0029B9B7856
:10296000002B0CD0029B9B78022B08D0029B9B78FB
:10297000032B04D030495F20FEF78BFC00E000BF42
:10298000069B019A1A60029B5A68069B5A600023B4
:102990008DF81F3010E0039B1C689DF81F3018460F
:1029A000FFF746FF034619462046FFF789FE9DF8CC
:1029B0001F3001338DF81F30039B5B799DF81F207A
:1029C0009A42E8D3039B1B681846FFF727FE03468D
:1029D0001A46029BDB7819461046FFF727FE039B39
:1029E0001B681846FFF71AFE03461846FFF73EFE1F
:1029F000039B1A68029B5B7819461046FFF7C8FED6
:102A0000039B1A68029B9B7819461046FFF7D5FE78
:102A1000039B1A68029B1B7819461046FFF7E2FEDB
:102A2000069B01221A7200230593059B184608B0E5
:102A300010BD00BFEC00002070430000008000408B
:102A40000090004000A0004000A0014000B0014004
:102A500000B583B00190019B1B681846FFF7DEFDAF
:102A600003461846FFF710FE019B1B684FF0FF312D
:102A70001846FFF75AFE019B1B684FF0FF311846BE
:102A8000FFF76CFE019800F041F8019B1B79194695
:102A9000064A0B465B000B449B001344083300229C
:102AA0001A7000BF03B05DF804FB00BFEC0000200B
:102AB00000B583B00190019B1B791946114A0B4662
:102AC0005B000B449B00134408331B78012B03D09D
:102AD0000D498F20FEF7DDFB019B1B680021184686
:102AE000FFF7E0FD019B1B791946064A0B465B0088
:102AF0000B449B001344083302221A7000BF03B03A
:102B00005DF804FBEC0000207043000000B583B0CA
:102B10000190019B1B791946114A0B465B000B443F
:102B20009B00134408331B78002B03D10D499720D9
:102B3000FEF7AFFB019B1B6810211846FFF7B2FDA3
:102B4000019B1B791946064A0B465B000B449B0010
:102B50001344083301221A7000BF03B05DF804FB70
:102B6000EC0000207043000000B583B00190019B91
:102B70001B7919460B4A0B465B000B449B00134420
:102B800008331B78002B03D10749B320FEF781FBE4
:102B9000019B1B680C211846FFF784FD00BF03B0A2
:102BA0005DF804FBEC0000207043000010B586B017
:102BB000039001921A460B468DF80B3013468DF8A0
:102BC0000A309DF80B301846FFF73CFE05909DF843
:102BD0000A30002B12D0039B1C689DF80B3018465E
:102BE000FFF726FE034619462046FFF769FD039BC3
:102BF0001B6805991846FFF7A7FD05E0039B1B68B6
:102C000005991846FFF7AAFD039B1B689DF80B105A
:102C1000019A1846FFF7FBFD00BF06B010BD00B5D6
:102C200085B0039001921A460B468DF80B3013467F
:102C3000ADF80830039B18689DF80B304FF4807294
:102C40009A409DF80B30012101FA03F31343194612
:102C5000FFF76BFD039B1B68BDF808201146184663
:102C6000FFF755FD9DF818309DF80B10019A039859
:102C7000FFF79CFF00BF05B05DF804FB10B582B004
:102C800001900091019B1B791946174A0B465B0086
:102C90000B449B00134408331B78002B03D11349CA
:102CA000FB20FEF7F6FA019B5B791A46009B9342E4
:102CB00003D30E49FC20FEF7ECFA019B1C68009838
:102CC000FFF7B6FD034619462046FFF7F9FC019BC6
:102CD0001C680098FFF7B6FD034619462046FFF72B
:102CE00033FD00BF02B010BDEC00002070430000B7
:102CF00010B582B001900091019B1B791946134ACF
:102D00000B465B000B449B00134408331B78002BDD
:102D100004D10F4940F20710FEF7BBFA019B5B7923
:102D20001A46009B934204D309494FF48470FEF77E
:102D3000B0FA019B1C680098FFF784FD0346194612
:102D40002046FFF70BFD00BF02B010BDEC000020D5
:102D50007043000000B587B00390029113468DF8D0
:102D6000073000238DF8173030E09DF817301846F3
:102D7000FFF75EFD0346ADF814309DF81730184696
:102D8000FFF760FD0490BDF8143019460398FFF773
:102D9000ACFC0346002B14D004990398FFF7E8FC21
:102DA0000346002B0DD0BDF8143019460398FFF7E9
:102DB00087FC029B1B68029A5168BDF814201046DC
:102DC00098479DF8173001338DF817309DF817207C
:102DD0009DF807309A42C8D300BF00BF07B05DF826
:102DE00004FB000008B5042202490348FFF7B2FFC4
:102DF00000BF08BDEC0000200080004008B50422A0
:102E000002490348FFF7A6FF00BF08BDF8000020F5
:102E10000090004000B583B000230193104B1B7855
:102E2000002B02D08523019314E00D4B00229A6001
:102E30000B4B00225A600A4B00221A61084B0022F9
:102E4000DA60084800F0E6F9019000F009FA044B56
:102E500001221A70019B184603B05DF804FB00BF05
:102E600028010020A92F000084B001900091019B4F
:102E70001B68039306E0039A009B9A420DD0039BC4
:102E80001B680393039B002BF5D1019B1A68009BE1
:102E90001A60019B009A1A6000E000BF04B07047FE
:102EA00084B00190019B1B680393039B002B03D00C
:102EB000039B1A68019B1A60039B184604B0704775
:102EC00000B583B00190224B1B78002B03D1214920
:102ED000E920FEF7DEF91E4B9B78DBB2002B12D007
:102EE000019B002B03D0019B5B68012098470020C9
:102EF000FEF788F9164BDB680133154AD3600020D2
:102F0000FEF794F917E00020FEF77CF9019B002BF7
:102F100003D001991048FFF7A7FF0D4BDB68002B8A
:102F200001D100F0B1F90A4BDB680133084AD360E4
:102F30000020FEF77BF9064BDB68002B04D1054926
:102F400040F20510FEF7A5F900BF03B05DF804FBE1
:102F500028010020C04300003801002000B585B0E2
:102F600003468DF807309DF80730002B02D10C4B3B
:102F7000039301E00B4B03930398FFF791FF02903B
:102F8000029B002B06D0029B5B689DF80720104631
:102F90009847F1E700BF00BF05B05DF804FB00BF34
:102FA000300100203801002000B583B003468DF8C1
:102FB00007309DF80730002B05D10A4B01225A70CB
:102FC0000020FFF7CBFF9DF80730012B05D1054B03
:102FD00001229A700120FFF7C1FF00BF03B05DF826
:102FE00004FB00BF2801002082B003468DF80730A3
:102FF0009DF8073003F01F0205499DF907305B0972
:10300000012000FA02F241F8232000BF02B070470D
:1030100000E100E082B0034600918DF807309DF991
:103020000730002B0CDA009BDAB20C499DF8073010
:1030300003F00F03043B5201D2B20B441A7609E0AD
:10304000009BDAB206499DF907305201D2B20B4417
:1030500083F8002300BF02B0704700BF00ED00E01E
:1030600000E100E082B00190019B1B0B5BB21846AF
:1030700002B0704700B583B003460A468DF80730AA
:1030800013468DF806309DF80630072B03D9084902
:103090006B20FEF7FEF89DF806209DF907301146DB
:1030A0001846FFF7B7FF00BF03B05DF804FB00BF91
:1030B0001444000000B583B003468DF807309DF935
:1030C00007301846FFF790FF00BF03B05DF804FB20
:1030D00082B003468DF807300F4A9DF90730002B68
:1030E00000DA1F335B115BB252F823209DF90730E1
:1030F000594203F01F0301F01F0158BF4B425BB25E
:1031000022FA03F303F00103002B14BF0123002371
:10311000DBB2184602B0704700E100E082B00190D7
:103120004FF08042019BC2F8043300BF02B07047E9
:1031300082B001904FF08042019BC2F8083300BF7B
:1031400002B0704782B003468DF807309DF8073013
:1031500003F1804301221A6000BF02B0704784B0BF
:103160000346ADF80630BDF8063003F18043002277
:103170001A60BDF8063003F180431B680393039B7C
:1031800000BF04B0704782B00346ADF80630BDF80A
:10319000063003F180431B68002B14BF012300237A
:1031A000DBB2184602B0704782B001904FF0804207
:1031B000019BC2F8183500BF02B0704700B583B05C
:1031C00006238DF807304FF08040FFF74BFF034692
:1031D0001846FFF77DFF034683F00103DBB2002BA7
:1031E00013D04FF08040FFF73DFF03461A469DF88D
:1031F000073019461046FFF73DFF4FF08040FFF7BC
:1032000031FF03461846FFF755FF00BF03B05DF8D6
:1032100004FB000000B585B00190019B002B03D199
:103220000D49A420FEF735F8002303930B4B1B79BF
:10323000002B02D08523039308E0084A019B13600A
:10324000064B01221A71054B00225A71039B184646
:1032500005B05DF804FB00BF4C4400003C010020B9
:1032600008B5074B1B79002B03D10649BD20FEF79B
:1032700010F8FFF7A3FF0120FFF796FF00BF08BD7E
:103280003C0100204C44000008B50A4B1B79002B80
:1032900003D10949EA20FDF7FCFF4FF48270FFF7E4
:1032A0005EFF0220FFF73AFF0820FFF74BFF00BF49
:1032B00008BD00BF3C0100204C44000008B54FF49D
:1032C0008070FFF760FF0346002B14D04FF480702E
:1032D000FFF745FF0120FFF72BFF114B5B7983F0D0
:1032E0000103DBB2002B06D00D4B01225A710C4BAF
:1032F0001B68002098474FF48270FFF744FF034695
:10330000002B0AD04FF48270FFF729FF0220FFF74D
:103310000FFF034B1B680120984700BF08BD00BF8B
:103320003C01002082B003468DF807309DF807303D
:1033300003F01F0205499DF907305B09012000FADF
:1033400002F241F8232000BF02B0704700E100E024
:1033500082B0034600918DF807309DF90730002BAD
:103360000CDA009BDAB20C499DF8073003F00F032A
:10337000043B5201D2B20B441A7609E0009BDAB248
:1033800006499DF907305201D2B20B4483F800235D
:1033900000BF02B0704700BF00ED00E000E100E0B8
:1033A00000B583B003460A468DF8073013468DF802
:1033B00006309DF80630072B03D908496B20FDF72E
:1033C00068FF9DF806209DF9073011461846FFF763
:1033D000BFFF00BF03B05DF804FB00BF9C440000CA
:1033E00000B583B003468DF807309DF907301846C5
:1033F000FFF798FF00BF03B05DF804FB84B00390B3
:1034000002910192039B029A02F5A872019943F876
:10341000221000BF04B0704782B001900091019B60
:10342000009AC3F8042300BF02B0704782B0019035
:103430000091019B009AC3F8082300BF02B07047B7
:1034400082B001900091019BD3F80423009B1340AC
:10345000184602B0704782B001900B46ADF80230BA
:10346000BDF80230019A13441B68184602B0704739
:1034700084B001900B46ADF80230BDF80230019ADD
:10348000134400221A60BDF80230019A13441B68ED
:103490000393039B00BF04B0704782B00190019B6F
:1034A000D3F80435184602B07047000000B583B069
:1034B00001900091009BB3F5805F04D306494FF45F
:1034C000BE70FDF7E6FE019B009AC3F8082500BF19
:1034D00003B05DF804FB00BFD444000082B001904B
:1034E0000B468DF803309DF80320019B13441A46C8
:1034F0000123136000BF02B0704782B001900091B9
:10350000019B009AC3F8442300BF02B0704782B009
:1035100001900091019B009AC3F8482300BF02B0BC
:103520007047000000B587B0039002910192029BA2
:10353000002B03D131495120FDF7ABFE019B002B3D
:1035400003D12E495220FDF7A4FE039B5B79194657
:103550002B4A019B42F82130039B5B791946294A8B
:103560000B465B000B4413441B78002B03D008234D
:103570000593059B3DE0039B93F90420029B9B78F8
:1035800019461046FFF70CFF039B93F904301846C9
:10359000FFF726FF039B1A68029B1B8819461046FB
:1035A000FFF784FF039B5B791946029B1879154A44
:1035B0000B465B000B441344013302461A70039B15
:1035C0005B791946029BD8780E4A0B465B000B4488
:1035D0001344023302461A70039B5B791946094A69
:1035E0000B465B000B44134401221A700023059321
:1035F000059B184607B05DF804FB00BF08450000B6
:10360000440100204801002000B583B00190019BD7
:103610005B7919460F4A0B465B000B4413441B7839
:10362000012B03D00C498220FDF733FE019B1B6860
:1036300000211846FFF752FF019B5B791946054AA6
:103640000B465B000B44134402221A7000BF03B008
:103650005DF804FB480100200845000000B58BB070
:103660000390029101928DF80330039B5B79194618
:10367000484A0B465B000B4413441B78002B03D1D4
:103680004549B420FDF705FE039B9B791A46029B32
:10369000934203D34049B520FDF7FBFD4FF4803240
:1036A000029B02FA03F30893029B9BB250339BB236
:1036B0009B00ADF81E30039B1B6808991846FFF766
:1036C00026FF039B1B6808991846FFF7AFFE019B76
:1036D00023F07F430193039B5B7919462D4A0B46E8
:1036E0005B000B44134401331B78002B2CD0039B4D
:1036F0001B68019A02991846FFF780FE039B1B681E
:103700001846FFF7CAFE0690069A019BD31A099342
:10371000069A019B9A4205D2099B03F1FF1303F518
:103720007F430993039B5B7919461A4A0B465B005A
:103730000B44134402331B781A46099B93420ADA5E
:103740000D230593059B21E0039B1B68019A0299B9
:103750001846FFF753FE9DF80330002B0DD0039B56
:103760001B68BDF81E2011461846FFF781FE039B1B
:103770001B6808991846FFF74FFE039B1B680899C2
:103780001846FFF7BAFE00230593059B18460BB0B9
:103790005DF804FB480100200845000000B585B035
:1037A00001900B468DF803304FF48073ADF80E3066
:1037B00001230293019B1B68BDF80E201146184699
:1037C000FFF756FE019B1B6802991846FFF795FE0E
:1037D0009DF80330002B05D0019B1B680299184609
:1037E000FFF71AFE00BF05B05DF804FB00B589B015
:1037F0000390029101924FF4803306934FF4A0732B
:10380000ADF816300023079330E006990398FFF7D0
:1038100017FE0346002B1ED0BDF81630194603983C
:10382000FFF719FE0346002B15D006990398FFF702
:103830006EFE06990398FFF7F9FDBDF8163019469C
:103840000398FFF715FE2D4A029B52F82330079A82
:10385000D2B210469847069B5B000693BDF816301F
:103860000433ADF81630079B01330793079A019B89
:103870009A42CAD34FF48073ADF8163001210398F1
:10388000FFF7DEFD0346002B14D0BDF816301946B5
:103890000398FFF7E0FD0346002B0BD0BDF8163070
:1038A00019460398FFF7E4FD144A029B52F82330AF
:1038B000042098474FF48273ADF816300221039824
:1038C000FFF7BEFD0346002B14D0BDF81630194695
:1038D0000398FFF7C0FD0346002B0BD0BDF8163050
:1038E00019460398FFF7C4FD044A029B52F823309F
:1038F0000520984700BF09B05DF804FB4401002093
:1039000008B5032200210248FFF770FF00BF08BD81
:1039100000B0004082B0019000BF02B070470000CC
:1039200008B5224B1B689BB21A4600212048FDF7C0
:1039300077F91E4B1B689BB21A4600211D48FDF704
:103940006FF91A4B1B689BB21A4600211A48FDF703
:1039500067F9164B1B689BB21A4600211748FDF702
:103960005FF9124B1A68164B1B689A4203D3154B2A
:1039700000221A7008E00D4B1A68134B1B689A421C
:1039800002D8104B01221A700E4B1B78002B05D069
:10399000064B1B680133054A136004E0034B1B68A8
:1039A000013B024A136000BF08BD00BF1C0000209D
:1039B00068450000784500008845000098450000F3
:1039C00010000020DC0100201400002000B583B0AE
:1039D00003468DF807309DF80730002B05D09DF881
:1039E0000730042B01D1FFF79BFF00BF03B05DF848
:1039F00004FB000000B583B0FFF70CFA0190019BB7
:103A00000093009B002B04D0054A45210098FCF749
:103A10002DFD0020FFF754FA00BF03B05DF804FB52
:103A2000A045000000B587B0224A01AB92E8030030
:103A3000186004331980204B1A68204B1B68D31A76
:103A40005B004FF40042B2FBF3F21D4B1B68B2FB6C
:103A5000F3F39BB2ADF8043001AB1A4A19461A4889
:103A6000FFF760FD0590059B0493049B002B04D099
:103A7000164A51210498FCF7F9FC01211248FFF77E
:103A80008DFE0123182200210F48FFF7E7FD059066
:103A9000059B0393039B002B04D00C4A56210398EB
:103AA000FCF7E4FC0848FFF7AFFD00BF07B05DF886
:103AB00004FB00BF0046000010000020140000209E
:103AC00018000020CD39000058450000A045000036
:103AD00000B59DB00190634B1B6812934FF0FF330C
:103AE000139300238DF8503000238DF851300123BB
:103AF0001593019B1B685C4AB2FBF3F31693594B79
:103B00005B680D934FF0FF330E9300238DF83C302C
:103B100000238DF83D3001231093019B04331B6873
:103B2000514AB2FBF3F311934E4B9B6808934FF04D
:103B3000FF33099300238DF8283000238DF82930B6
:103B400001230B93019B08331B68474AB2FBF3F335
:103B50000C93444BDB6803934FF0FF330493002333
:103B60008DF8143000238DF8153001230693019B46
:103B70000C331B683C4AB2FBF3F3079312AB3B4A8E
:103B800019463B48FDF77CF91B901B9B1A931A9B27
:103B9000002B04D0374A64211A98FCF767FC0DAB60
:103BA000324A19463448FDF76BF91B901B9B199359
:103BB000199B002B04D02F4A66211998FCF756FC5C
:103BC00008AB2A4A19462D48FDF75AF91B901B9B52
:103BD0001893189B002B04D0264A68211898FCF7EC
:103BE00045FC03AB214A19462548FDF749F91B90CE
:103BF0001B9B1793179B002B04D01E4A6A21179812
:103C0000FCF734FC1A48FDF76FFA1B48FDF76CFA15
:103C10001A48FDF769FA1A48FDF766FA194B1B684E
:103C20009BB21A4600211248FCF7FAFF154B1B689D
:103C30009BB21A4600211048FCF7F2FF114B1B689B
:103C40009BB21A4600210D48FCF7EAFF0D4B1B689A
:103C50009BB21A4600210A48FCF7E2FF00BF1DB0E4
:103C60005DF804FB0000002040420F001539000001
:103C700068450000A0450000784500008845000028
:103C8000984500001000002010B584B0FFF7B2FE88
:103C9000FFF7C8FE064B6C460FCB84E80F006B465F
:103CA0001846FFF715FF0023184604B010BD00BFEB
:103CB00008460000BFF34F8F00BF074BDB6803F4DB
:103CC000E0620549054B1343CB60BFF34F8F00BF44
:103CD00000BF00BFFCE700BF00ED00E00400FA05F4
:103CE000024B034A1A6000BF704700BF200000204B
:103CF0000090D00308B500F027F90346002B0ED042
:103D00004FF080430022C3F80C214FF08043002283
:103D1000C3F810214FF080430022C3F8382500F08B
:103D200037F90346002B76D04FF080537D4AD3F805
:103D30000434C2F820354FF080537A4AD3F808345F
:103D4000C2F824354FF08053764AD3F80C34C2F8C9
:103D500028354FF08053734AD3F81034C2F82C350D
:103D60004FF080536F4AD3F81434C2F830354FF017
:103D700080536C4AD3F81834C2F834354FF080536E
:103D8000684AD3F81C34C2F840354FF08053654A76
:103D9000D3F82034C2F844354FF08053614AD3F849
:103DA0002434C2F848354FF080535E4AD3F82834A3
:103DB000C2F84C354FF080535A4AD3F82C34C2F82D
:103DC00050354FF08053574AD3F83034C2F8543549
:103DD0004FF08053534AD3F83434C2F860354FF073
:103DE0008053504AD3F83834C2F864354FF08053CA
:103DF0004C4AD3F83C34C2F868354FF08053494AF6
:103E0000D3F84034C2F86C354FF08053454AD3F8AC
:103E10004434C2F8703500F0DFF80346002B02D0BE
:103E2000414B424A1A6000F0E9F80346002B03D0E8
:103E30003F4BFB22C3F8182500F0F2F80346002B95
:103E40000AD03C4B1B6823F00F023B4B1B6803F06E
:103E50000F03384913430B6000F0F4F80346002BBE
:103E600003D0364B4FF400721A6000F0FDF80346A1
:103E7000002B0DD04FF08043D3F8003403F0010342
:103E8000002B05D04FF080436FF00102C3F80024EF
:103E90002B4BD3F888302A4A43F47003C2F8883099
:103EA000BFF34F8F00BFBFF36F8F00BF4FF01023E2
:103EB000D3F80032002B05DB4FF01023D3F8043287
:103EC000002B2BDA1F4B0122C3F8042500BF1D4B2A
:103ED000D3F80034002BFAD04FF010231222C3F88D
:103EE000002200BF174BD3F80034002BFAD04FF05C
:103EF00010231222C3F8042200BF124BD3F800345F
:103F0000002BFAD00F4B0022C3F8042500BF0D4B45
:103F1000D3F80034002BFAD0FFF7CCFEFFF7E0FE19
:103F200000BF08BD00C000408C560040488103001F
:103F300000F00040E40E004058020010409602409D
:103F400000ED00E000E001400F4B1B68082B17D18B
:103F50000E4B1B68002B01D1012312E00B4B1B6899
:103F6000012B01D101230CE0084B1B68022B01D16E
:103F7000012306E0054B1B68032B01D1012300E060
:103F800001231846704700BF3001001034010010B3
:103F90000F4B1B68082B17D10E4B1B68002B01D150
:103FA000012312E00B4B1B68012B01D101230CE014
:103FB000084B1B68022B01D1012306E0054B1B684F
:103FC000032B01D1012300E001231846704700BFF5
:103FD0003001001034010010064B1B68082B05D17E
:103FE000054B1B68002B01D1012300E0002318467C
:103FF000704700BF3001001034010010064B1B68F1
:10400000082B05D1054B1B68002B01D1012300E0D3
:1040100000231846704700BF300100103401001023
:10402000064B1B68082B05D1054B1B68002B01D1E3
:10403000012300E000231846704700BF3001001044
:1040400034010010064B1B68082B05D1054B1B687B
:10405000002B01D1012300E000231846704700BF68
:1040600030010010340100100F4B1B68082B17D1D2
:104070000E4B1B68002B01D1012312E00B4B1B6878
:10408000012B01D101230CE0084B1B68022B01D14D
:10409000012306E0054B1B68032B01D1012300E03F
:1040A00001231846704700BF300100103401001092
:1040B0008446002A2DD010F0030F04D000F8011B15
:1040C000013A26D0F7E7C9B241EA012141EA0141AC
:1040D000202A12D3A2F120022DE9F0030B460C4650
:1040E0000D460E460F4688468946A0E8FA03203A58
:1040F000FBD2BDE8F00320320BD0042A05D340F8F0
:10410000041B043A05D0042AF9D200F8011B013A35
:06411000FBD16046704780
:104118002E2E2F2E2E2F2E2E2F2E2E2F2E2E2F2EB2
:104128002E2F2E2E2F2E2E2F6D6F64756C65732FEC
:104138006E7266782F68616C2F6E72665F74696D37
:1041480065722E68000000002E2E2F2E2E2F2E2E88
:104158002F2E2E2F2E2E2F2E2E2F2E2E2F2E2E2F71
:104168006D6F64756C65732F6E7266782F647269F3
:10417800766572732F696E636C7564652F6E7266EF
:10418800785F74696D65722E680000002E2E2F2EE0
:104198002E2F2E2E2F2E2E2F2E2E2F2E2E2F2E2E32
:1041A8002F2E2E2F6D6F64756C65732F6E72667867
:1041B8002F68616C2F6E72665F6770696F2E68007A
:1041C800443A5C5365616E5C446F63756D656E74EB
:1041D800735C4E6F726469635C6E5246355F53441C
:1041E8004B5F63757272656E745C636F6D706F6E32
:1041F800656E74735C6C69627261726965735C7018
:10420800776D5C6170705F70776D2E6300000000E1
:10421800443A5C5365616E5C446F63756D656E749A
:10422800735C4E6F726469635C6E5246355F5344CB
:104238004B5F63757272656E745C636F6D706F6EE1
:10424800656E74735C6C69627261726965735C75C2
:1042580074696C5C6170705F7574696C5F706C61B7
:1042680074666F726D2E63002E2E2F2E2E2F2E2E1B
:104278002F2E2E2F2E2E2F2E2E2F2E2E2F2E2E2F50
:10428800696E746567726174696F6E2F6E72667895
:104298002F6E7266785F676C75652E680000000087
:1042A8002E2E2F2E2E2F2E2E2F2E2E2F2E2E2F2E21
:1042B8002E2F2E2E2F2E2E2F6D6F64756C65732F5B
:1042C8006E7266782F68616C2F6E72665F677069B0
:1042D8006F2E68000000005000030050443A5C5301
:1042E80065616E5C446F63756D656E74735C4E6F6B
:1042F800726469635C6E5246355F53444B5F637505
:104308007272656E745C6D6F64756C65735C6E72E9
:1043180066785C647269766572735C7372635C6EEE
:104328007266785F6770696F74652E6300000000BD
:104338002E2E2F2E2E2F2E2E2F2E2E2F2E2E2F2E90
:104348002E2F2E2E2F2E2E2F696E74656772617494
:10435800696F6E2F6E7266782F6E7266785F676C03
:1043680075652E6800000000443A5C5365616E5C18
:10437800446F63756D656E74735C4E6F72646963C8
:104388005C6E5246355F53444B5F63757272656E5F
:10439800745C6D6F64756C65735C6E7266785C6472
:1043A8007269766572735C7372635C6E7266785F4D
:1043B80074696D65722E6300443A5C5365616E5C86
:1043C800446F63756D656E74735C4E6F7264696378
:1043D8005C6E5246355F53444B5F63757272656E0F
:1043E800745C696E746567726174696F6E5C6E7215
:1043F80066785C6C65676163795C6E72665F64722F
:10440800765F636C6F636B2E630000002E2E2F2E79
:104418002E2F2E2E2F2E2E2F2E2E2F2E2E2F2E2EAF
:104428002F2E2E2F696E746567726174696F6E2FF7
:104438006E7266782F6E7266785F676C75652E6827
:1044480000000000443A5C5365616E5C446F63751C
:104458006D656E74735C4E6F726469635C6E524610
:10446800355F53444B5F63757272656E745C6D6F34
:1044780064756C65735C6E7266785C647269766587
:1044880072735C7372635C6E7266785F636C6F6381
:104498006B2E63002E2E2F2E2E2F2E2E2F2E2E2FEC
:1044A8002E2E2F2E2E2F2E2E2F2E2E2F696E746528
:1044B80067726174696F6E2F6E7266782F6E72669E
:1044C800785F676C75652E68000000002E2E2F2E11
:1044D8002E2F2E2E2F2E2E2F2E2E2F2E2E2F2E2EEF
:1044E8002F2E2E2F6D6F64756C65732F6E72667824
:1044F8002F68616C2F6E72665F7274632E6800009D
:10450800443A5C5365616E5C446F63756D656E74A7
:10451800735C4E6F726469635C6E5246355F5344D8
:104528004B5F63757272656E745C6D6F64756C65F4
:10453800735C6E7266785C647269766572735C73BC
:1045480072635C6E7266785F7274632E630000003B
:1045580000B000400B000300009000400104000080
:104568004C0100206045000000A00040020400004B
:10457800700100207045000000A001400306000003
:10458800940100208045000000B0014004060000AE
:10459800B801002090450000443A5C5365616E5CA8
:1045A800446F63756D656E74735C4E6F7264696396
:1045B8005C6E5246355F53444B5F63757272656E2D
:1045C800745C6578616D706C65735C706572697038
:1045D800686572616C5C43583331385C4E6F726445
:1045E80069635C73796E74686573697A65725C6D0A
:1045F80061696E2E630000000000064100000000A3
:104608002A020000BA0200003F030000160400005E
:10461800100000000F0000000E0000000D00000058
:104628003200000005000000050000000200000044
:044638000090D0031B
:040000030000037581
:00000001FF
