:020000022000DC
:1070000000000420757302005D7302005F730200CC
:1070100061730200637302006573020000000000E8
:107020000000000000000000000000006773020084
:1070300069730200000000006B7302006D730200B0
:107040002D9902006F730200119F02006F730200FE
:107050006F7302006F730200659D02006F73020080
:1070600019AD02002DAD020041AD0200C1AA02001F
:107070006F7302006F7302006F7302006F73020080
:107080006F730200C58402006F7302006F73020009
:107090006F7302006F73020079C302006F73020006
:1070A0006F7302006F73020055AD020069AD0200FC
:1070B0006F7302006F730200000000000000000008
:1070C0006F7302006F7302006F7302006F73020030
:1070D000D1AA02006F7302006F7302006F73020087
:1070E0006F7302006F7302006F73020000000000F4
:1070F000000000006F730200000000006F730200C8
:10710000000000000000000000000000000000007F
:10711000000000000000000000000000000000006F
:10712000000000000000000000000000000000005F
:10713000000000000000000000000000000000004F
:10714000000000000000000000000000000000003F
:10715000000000000000000000000000000000002F
:10716000000000000000000000000000000000001F
:10717000000000000000000000000000000000000F
:1071800000000000000000000000000000000000FF
:1071900000000000000000000000000000000000EF
:1071A00000000000000000000000000000000000DF
:1071B00000000000000000000000000000000000CF
:1071C00000000000000000000000000000000000BF
:1071D00000000000000000000000000000000000AF
:1071E000000000000000000000000000000000009F
:1071F000000000000000000000000000000000008F
:10720000354936480A1A02D0072291438D4634493F
:1072100034480A1A06D00722914381F309880222D2
:1072200082F3148830483149314A00F044F831483B
:107230003149324A00F03FF831483249324A00F0D1
:107240003AF832483249334A00F035F83248334987
:10725000334A00F030F833483349344A00F02BF811
:1072600033483449344A00F026F83448344900227F
:1072700000F02CF833483449002200F027F8334856
:107280003349091A082902DB002202604160314AB1
:1072900090471F481F49884205D00268043003B454
:1072A000904703BCF7E700208646EC46002000210B
:1072B000294A9047FEE7884207D0521A05D0037842
:1072C00001300B700131013AF9D17047884202D088
:1072D00002700130FAE770470000042000E003204C
:1072E00000000420000004206CE4020000230020C1
:1072F00058230020D0730200D0730200A8D50200EA
:107300006CE402000023002000230020ACD6020021
:10731000ACD60200ACD60200ACD60200ACD602005D
:10732000ACD60200ACD60200ACD602006CE402007F
:10733000C4E40200582300205823002058230020D2
:10734000782D0020782D00207C2D00207C2D002021
:107350007C4D00209D730200D1B10200FEE7FEE7E4
:10736000FEE7FEE7FEE7FEE7FEE7FEE7FEE7FEE7F5
:1073700000F002B8FFF7FCBF0F484FF00701884349
:1073800085460E4880470E48016841F4700101604F
:10739000BFF34F8FBFF36F8FFFF732BF09480A4922
:1073A0000A4A884207D0521A05D0037801300B7080
:1073B0000131013AF9D170470000042049940200DC
:1073C00088ED00E0ACD6020000230020002300205E
:1073D00000487047702D0020F0B595B01D46164648
:1073E00008460C4601F020FC1A9B0D93CDE9086578
:1073F00000252B46082205A920460A958DF82C5019
:107400000C9501F02EFC079B0293069B03939DF8BD
:1074100014308DF8115003F00302012A1DD1BDF87C
:107420001420059DC3F3C203C2F383168DF81030F8
:10743000B20008230EA9204601F013FCC5F39525E0
:1074400008AB0093324602AB0EA9284600F0D8FBE9
:10745000204601F0EDFB15B0F0BD022AF8D1BDF8D1
:107460001650C3F3C203C5F389158DF810300827F1
:10747000082D2E4628BF08263B4632460EA9204638
:1074800001F0EFFBAD1B08AB02AA31460EA8374452
:1074900000F01AFC002DEBD1DAE70000014B0122CD
:1074A0001A707047992300207047000070B5124D84
:1074B00006460FCD88B06C460FC495E80F00002E2D
:1074C00084E80F004FF0FF334FF00602CDE90023B0
:1074D000CDE90233094A0A484FF0EB7308BF002296
:1074E0006946069302F0A8F908B100F08BFC054B41
:1074F0001E7008B070BD00BFACD602009D740200C3
:10750000002300205823002007B5044B0093044AB1
:107510004023FFF761FF03B05DF804FB257502000F
:107520005923002038B50D4B0D4D002018700D4823
:1075300004782D5DD2B21C4665B1043003F076F9B3
:1075400008B100F05FFC084B1A7812B12378002BC9
:10755000FBD038BD0C3002F025FFF1E79923002065
:107560006C2A0020002300205823002008B508487A
:10757000084A0378D35C3BB1043003F0F1F8BDE86E
:1075800008400020FFF792BF0C3002F0B7FEF6E78C
:10759000002300206C2A00200120FFF787BF000095
:1075A00008B5FFF7F9FF0448042100F091FA034BF6
:1075B00001225A7108BD00BF9CD60200142300208E
:1075C000037813F0040216D003F00303012B03D059
:1075D000022B09D0012070470A6800880232C0F3EC
:1075E000831002440A60F5E70B684288023303EB1C
:1075F00092130B60EEE71046704700002DE9F04F44
:1076000087B000230446861C0DF107000F4615467F
:107610008DF8073000F0E6FD454801683960D0E993
:107620000132134401335B1A824600F21C4700F515
:10763000836900F21448B3421CD30020002D73D09C
:1076400004F00F039B0143F0050363F30F00DAF826
:107650000020DAF808301340033316444AF82300B8
:107660009DF80700CAF8006000F0E0FD012007B0B7
:10767000BDE8F08F0121384601F001F8484601F0DD
:1076800016F8404601F013F8DAF80400DAF808B00A
:10769000029000EA0B0003300AEB800002A9FFF71A
:1076A0008FFF029B50BB0BEA03020AEB820203F13D
:1076B000020CD2680392013303EA0B0B0AEB8B0B2B
:1076C00002F00302012ADBF80C10CDF808C023D029
:1076D000022A16D08346404600F0ECFF10B1029B10
:1076E000CAF804305946384600F0C9FFDAE90123E8
:1076F0001344DAF8002001339B1A9CE70BEA0300DD
:10770000C9E7BDF80E30C3F3891303334FEA114BB9
:107710000CEB93030293DEE7BDF80C30C3F3831345
:107720004FEA114B6344F5E7A40544F006008EE7E9
:107730006C2400200B4B0C48FF2210B59A600022ED
:10774000C3F81824C3E90022C3F8142483F82024C2
:1077500001F023FA044610B9044801F0CBFA2046A0
:1077600010BD00BF6C240020F8D5020000D7020035
:1077700030B50A4C71B10A4A0A49121BD2080023DB
:107780009A4201D1002030BD31F82350854202D009
:107790000133F5E7034654F83300F4E70CD6020052
:1077A0009CD6020000230020094B013903EBC000E6
:1077B000032909D8DFE801F00A0204060420704713
:1077C0000079704740797047002070470220704769
:1077D0000CD60200034BD3E90030C31A584258417B
:1077E000704700BF6C2400202DE9F04387B0FFF7FD
:1077F000F1FF0646002840F0F9807D4DC5F81804D9
:10780000BFF34F8F6B68AC6802932340033305EBE3
:10781000830002A9FFF7D4FE029B18B1D5F8182403
:10782000002A5FD004EA0302991C013305EB8202AF
:10783000234005EB8303D268DB68049302F0030363
:10784000022B0392029160D1BDF80E306948C3F358
:107850008917502FB84628BF4FF0500868F38F1390
:1078600008F10801ADF80E3001F0AFF90646002826
:1078700000F0A78001F0D8F90023082203A93046C0
:1078800001F0E5F9029924EA01020132B8EB820F16
:107890004FEA820332D95FFA88F85BB32140DCB249
:1078A000A8EB040803315FFA88F9A046524C05EBB7
:1078B000810108234246304601F0C9F934B108F18C
:1078C00008034A462146304601F0C1F9029B0337BE
:1078D00003EB97070297D5F81834002B49D1D5F858
:1078E000104459E02A689A428FD86A60304607B03F
:1078F000BDE8F08340491C469946DAE70C40E11C9C
:107900000823424605EB8101DDE7012B59D1BDF883
:107910000C303848C3F38311062928BF062161F3D0
:10792000891302318900ADF80C3001F04EF906469A
:10793000002846D001F078F90023082203A9304638
:1079400001F085F90027BDF80C20C2F38312BB00BB
:10795000974203F10803BED202994A1C2140033129
:10796000029205EB81010422304601F070F90137E3
:10797000E9E7304601F05CF9FFF72CFF80F00100E9
:10798000C6B2B3E7E3685B7923B1236831461B686D
:1079900020469847E3681C68002CF3D1304601F07C
:1079A00047F90DF107008DF8074000F01BFCD5F8F2
:1079B00018340BB9029B6B609DF8070000F036FC91
:1079C000DAE7D5F8104454B90C4B0D480D49C01AEC
:1079D000C008000440F0020000F062F8CCE7236821
:1079E00020469B689847E3681C68ECE700267DE723
:1079F0006C240020F8D50200782400200CD6020068
:107A00004CD60200E9D602002DE9F74F224D04467C
:107A10000F46924601A901221846D5F808909B46C8
:107A2000FFF7ECFD20B3019E4FF00008B21CD845D3
:107A300008EB020126D11948002100F0F1FD80F386
:107A40001000000440EA1440E400731C04F0380401
:107A500003EA090306EA090644F0010405EB83037F
:107A6000033644EA881444EA8724D86045F826405F
:107A700095F820341BB1FFF7B7FE0028FBD103B007
:107A8000BDE8F08F09EA010105EB81015AF82830C1
:107A9000CB6008F10108CAE76C2400208828002088
:107AA00000231A46FFF7B0BF07B50123019201AAD0
:107AB000FFF7AAFF03B05DF804FB07B5CDE900238B
:107AC00002236A46FFF7A0FF03B05DF804FB000045
:107AD00030B50F49D1F8102403460020144634B9BC
:107AE000DC6820714AB9C1F81034226030BDE46806
:107AF0002579854206D02468F1E7D26811682160B3
:107B00001360F3E701300A28E8D14FF0FF30EDE7CA
:107B10006C240020094A38B50123D2F8104482F8B9
:107B200020341D4604B938BDE3685D7123682046E2
:107B30005B689847E3681C68F4E700BF6C2400208A
:107B400007B503460846197A052911D05B7A2BB18F
:107B5000094A0A49019000F010FE01980849019075
:107B600000F00BFE019803B05DF804EB00F0FABDE5
:107B7000002AF8D0F2E700BF0CD7020011D70200AC
:107B800031D7020030B5C38885B004460D4633B105
:107B9000144A00921449154A284600F0EEFD217A55
:107BA00005291DD0637A4BB1A088FFF7FDFD104B6E
:107BB000104953F82020284600F0DFFD227A0E4BB2
:107BC000A08853F8222003920021FFF7D1FD039AE9
:107BD0000A490346284605B0BDE8304000F0CDBD57
:107BE00005B030BD0CD702001CD7020014D702002C
:107BF00098D7020011D70200BCD7020034D7020088
:107C00002DE9F04385B01F460C9D002395F80C909C
:107C10002B7306460C46904629463846FFF7B2FFBE
:107C2000B8F1060F09D8DFE808F00412181F28334E
:107C300040003146284600F0A0FD00222946384683
:107C4000FFF77EFF85F80C9005B0BDE8F083226851
:107C50003146284600F091FDEFE7D4E90023314694
:107C6000284600F08AFDE8E7A36800933146D4E98E
:107C70000023284600F081FDDFE7E3680193A36855
:107C800000933146D4E90023284600F076FDD4E77E
:107C900023690293E3680193A36800933146D4E912
:107CA0000023284600F069FDC7E763690393236951
:107CB0000293E3680193A36800933146D4E900235B
:107CC000284600F05AFDB8E708292DE9F74F80460D
:107CD0000E4617461C463CD8002593F80C901D73A1
:107CE00019461046FFF74EFFDFF888A0DFF888B08E
:107CF000AE4231D918F805205946204600F03DFD26
:107D00000135082DF4D11949194DDFF870A020462E
:107D100000F033FD4FF0000B5E4522D918F80B2020
:107D20007E2A05D81046019205F0A2FB019A00B9FF
:107D30002E225146204600F020FD0BF1010BBBF135
:107D4000080FE9D1012221463846FFF7F9FE84F8F1
:107D50000C9003B0BDE8F08F5146204600F00DFDB9
:107D6000CEE72946204600F008FDE6E748D70200A6
:107D700046D7020044D702003ED702004AD702008D
:107D800070B5084D084E00242B789C4201D300208A
:107D900070BD3368012113F8340001F077FF01341E
:107DA000F2E700BF282900205829002073B5114DA3
:107DB000114E00242B789C4214D300230DF10700B0
:107DC0008DF8073000F00EFA0C4B00210020C3E9BB
:107DD00000019DF8070000F029FA094800F029F990
:107DE00002B070BD336813F8340001F099FF01341C
:107DF000E0E700BF28290020582900205029002052
:107E0000302900201FB50021039001AA44F201008F
:107E1000CDE9011100F004F805B05DF804FB0000A5
:107E200010B572B6FFF776FEFFF7DEFC0028FBD137
:107E3000104B114C1149E41AE408240444F00100E9
:107E4000FFF72EFE0E4B1B68DB0700D500BE0D4969
:107E500044F00200FFF724FEBFF34F8F0A490B4B9B
:107E6000CA6802F4E0621343CB60BFF34F8F00BFD8
:107E7000FDE700BF0CD602004CD60200DBD70200A3
:107E8000F0ED00E0E7D7020000ED00E00400FA05A5
:107E9000D0E90223D1E90201994208BF90422CBFE8
:107EA000012000207047000008B50B4800F0F5FAEB
:107EB0000A4B0B49D3E900231218D1E9000143F121
:107EC00000038B4208BF824203D212F1807243F159
:107ED00000031046194608BD1C230020602900201D
:107EE000D829002037B505460C460A4801A900F0FC
:107EF00006FB60B10570446001A9064800F029FB4B
:107F000018B1054800F0CEFA002003B030BD0420BF
:107F1000FBE700BFC42900201C23002038B5184B04
:107F20001B78044613B90025284638BD0028FAD02E
:107F3000037F03F0FF05002BF5D0FFF7B5FFD4E971
:107F40000223994208BF904214D3236903B92377CF
:107F5000D4E90530984721690029E4D0237F03F054
:107F6000FF05002BDFD0D4E90223521843F10003B0
:107F7000C4E902230348214600F0DBFED4E700BF3A
:107F80006829002004D8020013B5114B1149186864
:107F9000019008231048582200F09EFA044698B930
:107FA0000E4A0F4801A900F065F9044660B90C4873
:107FB000012100F055FA01230A4A0948194600F048
:107FC000B7F9094B01221A70204602B010BD00BF5C
:107FD000FED702006C290020C42900204D80020039
:107FE0001C230020FFFF7F00682900203AB10368AE
:107FF0005A614A1E514251411961002070470720C1
:10800000704738B5037F04460D4683B98261FFF798
:108010004BFF2369401941F10001C4E9020103B19A
:10802000256121460020BDE83840FFF75BBF0020F6
:1080300038BD0023014603770120FFF753BF00003E
:10804000014800F02ABA00BF1C2300202DE9F04FA0
:1080500085B0804600F00CFA40B15A4AD2E90031AE
:1080600013F1807341F10001C2E900310021404663
:1080700000F00DFA38B1544E336823B13068FFF781
:108080004DFF002333600121404600F000FA20B18B
:10809000FFF70AFF4D4BC3E900014D484A4F4D4ED3
:1080A000DFF8389103A900F064FA002845D1DFF821
:1080B0002491454EDFF828A1484600F050FE336871
:1080C000002875D07BB13368D0E90201D3E90223DF
:1080D000994208BF90422DD233681B7F1BB1316893
:1080E000484600F026FE484600F033FED0E902B3D1
:1080F00007460193FFF7D8FE019BBBEB000463EB3F
:108100000105012C75F1000345DBB4F5350F40D3B3
:10811000FFF796FF304A02444FF496030021504681
:1081200000F026F900283ED1336813B9404600F02C
:10813000F7F8376005B0BDE8F08F0378012B1DD04C
:10814000022B09D14FF0000A304600F002FE002851
:1081500034D080F81CA0F7E73BB941680B7F23B906
:1081600001230B77304600F0E4FD03A9184800F026
:108170002BFA03A9164800F0FCF996E741683B6822
:10818000994202D100233B60EFE7304600F0EAFD60
:10819000EBE7BA68C0E70021504600F06EF93846B8
:1081A000FFF7BCFE01E00D28F9D00023336083E720
:1081B000002BBFD1404600F0B7F8BBE7012389F898
:1081C0000030D2E760290020E0290020D8290020D3
:1081D000C429002004D80200FFFFB4006829002051
:1081E0001C23002070B5EFF3108672B60C4A946819
:1081F00001239CB993600B4B0B4DD3F880102940A1
:108200001160C3F88050D3F8841051604FF0FF32F2
:10821000C3F88420047006B962B670BD0370FAE733
:10822000E429002000E100E0FC06FFBD084B9A684D
:1082300010B55AB150B9EFF3108172B6054A1C68F7
:1082400014605C685460986001B962B610BD00BFEC
:10825000E429002000E100E0435882B03BB1002354
:10826000435043580193019B012002B070471846C8
:10827000FBE70000F8B5224B4679224C43F8262054
:10828000214A224B9B1A04EBC602DB0812791B041D
:10829000F70032B143F002001D49FFF701FC08204E
:1082A000F8BD02680D88C2F8085590F904500279AB
:1082B0008978002DADBF05F1604CDFF85CC002F09D
:1082C0000F0E0CF5614C4FEA4111C9B2B4BF0CF866
:1082D0000E108CF800136D090121DFF840C002F088
:1082E0001F0201FA02F24CF82520E21944F8360088
:1082F000117143F003000749FFF7D2FB0020CFE7DD
:10830000F8290020F02900200CD602005CD60200DB
:1083100010D8020032D8020014ED00E000E100E0C5
:10832000036801221A607047036801225A6070478F
:1083300073B501F15005AD000068ADB24FF4803463
:108340008C400026C0F80843C0F84843465101F568
:10835000A8714559019522F07F42019D40F82120E6
:10836000C0F844430BB1C0F8044302B070BD000034
:108370002DE9F74F0D4622F07F4402684FF4803715
:1083800005F150068F408046B60002EB8500C2F82A
:108390004873B6B2C2F80873D2F8041599464FF084
:1083A000000BD0F84035C0F8401542F806B05B1A13
:1083B0009259009223F07F43012B009A4FEA850ADD
:1083C0000CD1264B4FF4806043F001039847D8F856
:1083D000003043F806B09B590193019BD8F8001078
:1083E000D1F80465C1F84473A31B23F07F43012B2C
:1083F0001CD11A4B05F5A875013443F0010341F86F
:1084000025404FF480609847D8F80030D3F8043501
:108410009E4209D1D8F800300020C3F84473C3F855
:10842000047303B0BDE8F08F0D20FAE78A44C9F168
:10843000FF13CAF84045D1F80405221A013A22F088
:108440007F4203F57F439342EED3002AE2D1013409
:10845000CAF84045D1F804359842DAE750D802000E
:1084600003680222C3F8442309B1C3F80423704708
:1084700000684FF48271FFF7EFBE4FF4803303FAC8
:1084800001F10368C3F84813C3F80813704750316B
:108490008900006889B2FFF7DFBE0368D3F80405DE
:1084A0007047000090F9043001215A0903F01F03BE
:1084B00001FA03F34032024941F82230704700BF0D
:1084C00000E100E0024B034A1B681068184700BF38
:1084D000F8290020F029002010B561B1B2FBF3F4B7
:1084E00003FB1424A4B244B9C0E90014846082815F
:1084F000C381204610BD0E20FCE70920FAE737B5FE
:1085000050E8013F9DB2C48925448489A54228BF13
:108510002D1B0489A54202BFBFF32F8F002207E065
:10852000C5EA030540E80154002CE9D14FF00102EF
:108530008DF803200193019B9DF803200B6002F04E
:10854000FF0322B10B880068184403B030BD184601
:10855000FBE70A884B889A4209D150E8012FC2EA0A
:10856000024240E80123002BF7D101207047002090
:10857000704737B550E8023F1FFAA3F5C488A542FB
:1085800002BFBFF32F8F00220DE0C48925448489E8
:10859000A54228BF2D1BC3EA054540E80254002C24
:1085A000E8D14FF001028DF803200193019B9DF863
:1085B00003200B6002F0FF0322B14B8800681844CF
:1085C00003B030BD1846FBE70A884B889A4209D1B0
:1085D00050E8022FC2EA224240E80223002BF7D1E2
:1085E000012070470020704701F01F024B09012154
:1085F000914000EB830000F01EB801F01F03012240
:108600009A404B0900EB8300D14300F02CB84B0992
:1086100001F01F0150F82300C84000F0010070472E
:1086200010B5034653E8000F0A4643E8002494F0CF
:10863000000FF7D110BD10B5034653E8002F42EAF2
:10864000010043E8000494F0000FF6D110BD10B50E
:10865000034653E8000F00EA010243E8002494F0C7
:10866000000FF6D110BD10B5034653E8002F02EA03
:10867000010043E8000494F0000FF6D110BD10B5DE
:10868000034653E8002F02EB010043E8000494F096
:10869000000FF6D110BD10B5034653E8002FA2EB32
:1086A000010043E8000494F0000FF6D110BD012151
:1086B000FFF7C1BF0021FFF7CABF10B590B1D0E9E5
:1086C000012301689B1ADBB20A60013BDBB2FF2B7E
:1086D000026802D10020107110BD11684C1C14609A
:1086E0000B70F2E70E20F7E737B5054600240DF1D1
:1086F00007008DF80740FFF775FD2A686B68116861
:1087000099420ED9481E106011F8014CEB68298A75
:1087100001FB0434AB6811791B1ADBB2994238BFF4
:1087200013719DF80700FFF781FD204603B030BDAF
:1087300037B5054600230DF107000C468DF80730CC
:10874000FFF750FD2A681368591C1160E968641A24
:10875000298AB4FBF1F41C709DF80700FFF766FD51
:1087600003B030BD826810B504462AB14369016880
:10877000006998470023A36010BD0EB403B50399A8
:1087800021B104AB01AA019300F076F802B05DF8C4
:1087900004EB03B070470A2938B504460D4602D1F0
:1087A0000D21FFF7F8FFA3682268591CA160D5547A
:1087B000D4E901329A4204D32046BDE83840FFF79D
:1087C000D1BF38BD2DE9F84F9846DDE90A4315467B
:1087D00082460F460A464FF00109AA420FD2C14510
:1087E00038BFC14613F0010B01D16CB9002401263A
:1087F000B8F1010F1BD908F1FF386E43F8E709F112
:108800000109B2FBF5F2E8E79B070ED5B8F1000FBE
:108810000CBF30262026A145E9D2013C3146504606
:10882000FFF7B9FF002CF6D1E0E72026F3E7B7FB0E
:10883000F6F39D42E1D9DFF83C80B7FBF6F35046F2
:1088400018F8031006FB1377FFF7A5FF3346AB427A
:10885000B6FBF5F6F1D2BBF1000F02D00CB1A14589
:1088600001D3BDE8F88F20215046013CFFF793FF6C
:10887000F4E700BF56D802002DE9F74F054617462A
:108880008846002900F0428118F8011B49B92B7B6A
:10889000002B00F03B81284603B0BDE8F04FFFF706
:1088A00061BF252940F0B780002698F800302D2BB5
:1088B000424608F1010823D0302B24D02B2B25D0A1
:1088C00000242A2B02F1010123D13B681A1D1B68E9
:1088D0003A601C440A4613782E2B26D101324FF001
:1088E000000A104610F8011BA1F1300CBCF1090F71
:1088F0001DD80A2303FB0A13A3F1300A0246F0E74E
:1089000046F00106D1E746F00206CEE746F004063F
:10891000CBE711F8013CA3F130000928DBD80A228B
:1089200002FB0434303C0A46CBE74FF0000A12F851
:10893000011B01F0FB0068289046F8D0782909D87F
:108940006F290CD8632962D022D8252963D05829F1
:1089500000F0888098F80030002B95D197E77039A7
:108960000829F7D801A353F821F000BFE78A0200D5
:108970005589020055890200758A02005589020056
:10898000538A02005589020055890200658A020057
:10899000642901D06929DDD13A68D2F80090111D0F
:1089A00089EAE9723960A2EBE9724FF0010B092AFA
:1089B00035DCD34538BFD3462CB1B9F1000F01DB0C
:1089C000720700D5013CB30702D5BAF1000F03D0FE
:1089D000F00701D44CBB0024B9F1000F2DDAC9F126
:1089E00000092D212846FFF7D6FE06F00302022AD1
:1089F00004D1BAF1000F01D11CBB0024CDE900461F
:108A000053460A2249462846FFF7DCFEA2E73B68A8
:108A10001A1D19783A602846FFF7BDFE9AE70A2327
:108A20000BF1010BB2FBF3F2C1E7A345D4D2202135
:108A30002846013CFFF7AFFECCE77107D5D52B21C7
:108A4000D0E7A345DAD230212846013CFFF7A3FE48
:108A5000D2E73968CDE900460A1D3A6053460A223A
:108A60000968D0E739680A1D3A60CDE900465346E7
:108A70001022F5E73B681A1D3A6016F00106D3F89C
:108A8000009028D1B9F1000F03D0484604F05CFDF6
:108A90000646B44200D904BB09F1FF3919F8011F99
:108AA00000293FF457AF2846FFF775FEF6E7284642
:108AB0000136FFF770FE19F806100029F7D1A6421B
:108AC000BFF448AF002C3FF445AF20212846013CBD
:108AD000FFF761FEF3E70026EDE720212846013C81
:108AE000FFF759FED5E73B681A1D3A60302128464A
:108AF0001C68FFF750FE78212846FFF74CFE002245
:108B00000823CDE90032214610227CE703B0BDE8FE
:108B1000F08F00BF2DE9F84FB0F806A04579D2F8E4
:108B200000B09DF828900AFB05F5043D88460BEB44
:108B30000301A94203F1040488BFA5EB030BB4FBB6
:108B4000FAF607460AFB1644C2F800B04EB9AAEB83
:108B500004055D4528BF5D46BBF1000F04D1BDE8AB
:108B6000F88F3F68013EF1E7043408EB06003C440F
:108B70002A46B9F1000F0DD02146ABEB050B04F0EE
:108B800087FCDA452E443F6855464FF0000428BF65
:108B90005D46E1E701462046EFE7FFF78EBDF8B5F9
:108BA00046790146721E0546002393422D6803D381
:108BB0000024A64202D8F8BD0133F6E70F68284624
:108BC000FFF7B6FD01343946F3E72DE9F843068A8D
:108BD000CD1C0746FFF788FD043E35440446B5FB2F
:108BE000F6F5F0B14FF48073EDB28380C680013D9D
:108BF000076081464FF00008A84512D23846FFF7BB
:108C000073FD064648B163790133637108F10108C9
:108C1000C9F8000007608146EEE72046FFF7BFFF76
:108C200034462046BDE8F88301210430FFF727BD14
:108C300010B5012104460430FFF72DFD10F0FF0FA1
:108C400004D12046BDE81040FFF7A9BF10BD1FB5F5
:108C500003920022009203AAFFF75CFF05B05DF8C3
:108C600004FB1FB503920122009203AAFFF752FFF3
:108C700005B05DF804FB41DF70470000064B10B5FE
:108C800000241C70054B1C60BFF35F8F044905482E
:108C900000F039F8204610BD042A0020082A0020E0
:108CA00070D80200FC29002007B500230DF1070051
:108CB0008DF80730FFF796FAF1EE103A23F09F0394
:108CC000E1EE103ABFF35F8F094B4022C3F88421D5
:108CD0009DF80700FFF7AAFA03F034FB20B1FFF775
:108CE000CAFF03B05DF804FB20BF40BF20BFF8E718
:108CF00000E100E0836800225A60C3E904229A6020
:108D0000DA601A6070470B684A684360934208BF94
:108D10000023016008BF43607047436843B10268A5
:108D2000916852680B449342436004BF0023436040
:108D3000704770B5446806460D46206818B1B368A0
:108D40002946984718B923682B60256070BD2468B0
:108D5000F3E74368186808B102681A60704743680F
:108D6000186870474368186800B97047884203D193
:108D700002681A600120704703460068F4E70000AB
:108D800010B50D49A1F59472914201D800200FE071
:108D90008C1AE30F03EBE4035B1002EBC30452F8FD
:108DA0003330834205D802D204F10802ECE7606850
:108DB00010BD2146E8E700BF7CDD020008B5FFF7E3
:108DC000DFFF024B002808BF184608BD3FDC020049
:108DD0002DE9F8430468054694F8200002F002F8F3
:108DE00004F11807FF264FF0FF394FF00008207AF2
:108DF000FF2802D001F0F6FF2672607AFF2802D029
:108E000001F0F0FF66722068431C03D000F0B0FE52
:108E1000C4F8009084F80B800C34BC42E7D1686839
:108E2000BDE8F84301F006BF2DE9F041134EDFF82D
:108E300050800C460025012706EB4106735D5BB1AF
:108E4000735D013BDBB27355735D93B958F8243001
:108E50001B682046DB6998474DB167B1084B53F852
:108E600024300221BDE8F041586801F04CBF0125D3
:108E7000E4E70027F0E7BDE8F08100BF252A0020E5
:108E80000C2A002010B540680B4902798C5CFF2C3D
:108E9000E3B20DD0FE2B0DD0006803F5A87350F897
:108EA0002330064850F82200984203D1FF238B5408
:108EB000002010BD0120FCE7202A0020302A0020DD
:108EC0002DE9F74F0368904693F82120022A0446C3
:108ED0000F4640F099800C254D435A195268904531
:108EE00009D1DB691BB9002003B0BDE8F08F4268EF
:108EF00010799847F7E7FFF7C5FF8346002840F051
:108F000085806368DFF810A11B79FE220AF8032030
:108F1000266896F8200001F0C1FFD146B8F1000F95
:108F20001FD13544687A01F0B9FF287A01F09EFF1D
:108F300063681B79FF220AF803200C2303FB0766F2
:108F40002368C6F80480DB69002BCCD063681A79EB
:108F50002F4B03EB42030221D955606801F0C0FE9C
:108F6000C1E7B169884507D335441FFA81F8287AEB
:108F700001F094FF687AD9E707EB47034FEA830AC9
:108F800006EB830360685A68914238D0002A36D0D5
:108F9000904534D25B46032101F074FE636896F875
:108FA00020B0196856F80A00354401F5A671AB7A6D
:108FB00001910BB300F044FE02460199584601F0BE
:108FC00035FF96F8200001F051FF6368114A1B79C4
:108FD00009F8037042F823800C2505FB07656068DB
:108FE00000234246394601F04DFE287A01F03EFF4B
:108FF000687A01F03BFFA0E700F014FEDCE703799C
:10900000FF2209F80320E7E708206DE711206BE74E
:10901000252A0020302A0020202A002003681B8BEC
:109020005A436423B2FBF3F292B2FFF749BF000048
:109030002DE9F04F2DED028B89B0044602928A464D
:10904000002900F04681056895F82130002B40F09A
:10905000428101F033FC08B1852845D100F00EFDB6
:10906000002838D09D4B9E4E1B6803F0F003303B28
:1090700018BF01233370FF2385F820304FF6FF73AC
:1090800000222B814FF0FF33EA722B60EA75AB822E
:10909000EB6005F1200001F071FE0396074600BB6E
:1090A0000AF10803804604935FFA88F308EE103A49
:1090B0005AF828305A1C00F09D80266896F8211036
:1090C000B9B108262046FFF783FE304609B0BDEC53
:1090D000028BBDE8F08F00F099FC0028C2D0032677
:1090E000F3E72046FFF774FE0426EEE74FF0010891
:1090F000DAE7049A05934FF00C0909FB08F912F816
:1091000008B006EB09021846516082F80AB0032243
:109110008DF81820BBFA8BF252098DF8192006A998
:1091200001228DF81A2000F0B3FCE0B9059B46F847
:1091300009300122BBF1000F00F0B5801F2B86BF64
:10914000684903F01F034FF0A0419A40C1F80C2575
:109150000C2303FB08F303F108003044059301F0EE
:109160000DFE059B08B10426ACE703F1090030446D
:10917000059301F003FE059B0028F4D133440593C9
:10918000187A01F08BFE059B587A01F087FE56F89D
:109190000900BBF1000F00F0918000F051FD834603
:1091A00056F8090000F03EFD626811680C2202FBCF
:1091B00008664FEA880303F5A073194481465A46AE
:1091C000307A01F033FE6368707A19684A4601F517
:1091D000A47101F02BFE0123F3726368424A1B79EC
:1091E00002EB430318EE101A0022204603F8082071
:1091F000FFF766FEB8F1000F3FF478AFDAF81030F1
:10920000B3F5805F01D3092F60D1039B1B7813B1A5
:10921000012F38BF012700238DF8193060688DF8C1
:1092200018704FF4E063ADF81A3003792F4A0793B2
:1092300006A901F07DFC064600287FF443AF606874
:10924000DAF810200368D3F81075FFB24FEA127CE9
:10925000C7F1200112010CFA01F1A7F1200322FA53
:1092600007F72CFA03F30F431F434FF00108AF61D8
:1092700001F004FD04233A466068CDF80080022125
:1092800001F019FD0221606801F03DFD029BEB61D8
:109290006368174A1B7985F8218042F82340154AF4
:1092A000FF21D15411E71F2B86BF0E4903F01F0386
:1092B0004FF0A0419A40C1F8082549E700F0B2FC00
:1092C000834656F8090000F0BBFC6DE75B080137E8
:1092D00096E70B26F9E60826F7E600BFE80F00F050
:1092E000442A002000030050252A0020298E020075
:1092F0000C2A0020202A00202DE9F0470768DFF81B
:109300006890002604463D46B0464FF00C0A63685C
:109310001B7909EB430303F80680EB7A73B12368EA
:1093200028680AFB0633997AB1FA81F1490900F0FD
:1093300095FC286800F052FCC5F804800C3576B125
:109340006068084A0379FF21D15401F097FC6068F6
:1093500001F056FC022387F82130BDE8F087012692
:10936000D5E700BF202A0020252A00202DE9F0475C
:109370000546D0E9007001F051FC6868DFF87C9088
:10938000022101F0C0FC97F8200001F087FD3C4667
:1093900000264FF00C0A4FF00108E37ACBB12B689E
:1093A00020680AFB06339B7ADBB91F2887BF00F0D1
:1093B0001F034A4603464FF0A04208FA03F3C2F8DF
:1093C000083500F01DFC207A01F068FD607A01F09C
:1093D00065FD0C341EB187F82160BDE8F0870126D9
:1093E000DBE71F2887BF00F01F034A4603464FF004
:1093F000A04208FA03F3C2F80C35E2E7000300507C
:1094000038B5056895F82130022B044608D1FFF7DE
:10941000ADFF2046FFF7DCFC002085F8210038BDB9
:10942000002BF6D10820FAE7054B1B68082B01BF7B
:10943000044B1868B0FA80F0400918BF002070474C
:10944000300100103401001008B54FF080430022B5
:10945000C3F80C21C3F81021C3F838254FF080520F
:1094600003F54043D2F80414C3F82015D2F80814C9
:10947000C3F82415D2F80C14C3F82815D2F8101428
:10948000C3F82C15D2F81414C3F83015D2F81814F8
:10949000C3F83415D2F81C14C3F84015D2F82014C0
:1094A000C3F84415D2F82414C3F84815D2F8281488
:1094B000C3F84C15D2F82C14C3F85015D2F8301458
:1094C000C3F85415D2F83414C3F86015D2F8381420
:1094D000C3F86415D2F83C14C3F86815D2F84014E8
:1094E000C3F86C15D2F84424C3F87025FFF79CFF2D
:1094F00010B1384B384A1A60FFF796FF18B1374B56
:10950000FB22C3F81825FFF78FFF48B13449354BCC
:109510000A681B6822F00F0203F00F0313430B606D
:10952000FFF782FF18B1304B4FF400721A604FF012
:109530008043D3F80024D20744BF6FF00102C3F880
:1095400000242A4AD2F8883043F47003C2F88830E5
:10955000BFF34F8FBFF36F8F4FF01023D3F800226C
:10956000002A03DBD3F80432002B2FDA204B012230
:10957000C3F80425D3F80024002AFBD04FF01022B2
:109580001221C2F80012D3F80024002AFBD04FF0B9
:1095900010231222C3F80422154B1A46D3F80014E4
:1095A0000029FBD00021C3F80415D2F80034002BA9
:1095B000FBD0BFF34F8F0D490E4BCA6802F4E06237
:1095C0001343CB60BFF34F8F00BFFDE70A4B0B4A3D
:1095D0001A6008BD8C5600404881030000F000402E
:1095E000E40E0040580200104096024000ED00E0FA
:1095F00000E001400400FA05242300200090D0037D
:10960000074B1B5C1F2B86BF064903F01F034FF05F
:10961000A041012202FA03F3C1F80C35704700BFE4
:109620007CDD020000030050074B1B5C1F2B86BF34
:10963000064903F01F034FF0A041012202FA03F391
:10964000C1F80835704700BF7CDD02000003005000
:1096500038B5074C051E04F1080318BF1C462368E3
:109660002BB11A6822605B6828469847F7E738BD37
:10967000502A002020B9054B01225A70FFF7E8BF9D
:10968000012802D1014A9070F8E77047482A00206B
:1096900020B9034B01225A70FFF7DABF704700BFB1
:1096A000482A002038B50B4C237883B90A486360F8
:1096B000A3602361E36000F0FDF8054602F042FE7E
:1096C00008B900F003F901232370284638BD852529
:1096D000FBE700BF482A00207596020037B5184CFA
:1096E000A378054603F0FF029BB110B14368012047
:1096F000984700230DF107008DF80730FEF772FD43
:10970000E3689DF807000133E360FEF78FFD03B0C7
:1097100030BD0DF107008DF80720FEF763FD25B180
:10972000226913463BB92A602561E368002BE7D123
:1097300000F0DEF8E4E79D42F7D01B68F2E700BFD7
:10974000482A002037B50B4C00230DF107008DF897
:109750000730FEF747FDE368013BE360E56815B9B4
:1097600000F0D8F8A5709DF80700FEF75FFD03B084
:1097700030BD00BF482A0020012813B508D00328B7
:109780001CD018B9104B0122C3F8802002B010BDC4
:109790000E4C00230DF107008DF80730FEF722FD77
:1097A00023780BB9FFF77EFFE3689DF807000133CC
:1097B000E3600123A370FEF739FDE7E700F086F8C8
:1097C000FFF7C0FFE2E700BF00E100E0482A002009
:1097D0001FB503788DF800304368019383688DF8D6
:1097E0000830C368054A0393054B684653F8213097
:1097F00052F82110984705B05DF804FB5C2A002060
:10980000642A00201FB503788DF800304368019367
:1098100083688DF80830C368054A0393054B684692
:1098200053F8213052F82110984705B05DF804FB39
:109830005C2A0020642A0020F0B5194B90F800C083
:10984000DFF86CE043F82C20164B16460A6943F803
:109850002C204B7F0EF80C300C4607460FCC89B0FD
:109860006D460FC594E80F0085E80F001EF80C3018
:10987000CDF810C04BB1002E0B4A694608BF3246E6
:10988000381D00F089FE09B0F0BD002E074A694678
:1098900008BF324607F10C0000F05AFCF3E700BFA6
:1098A000642A00205C2A0020D1970200059802005B
:1098B0006C2A0020044A137923B901211060918099
:1098C0001846704785207047702A0020074B1A6899
:1098D000D2075FBFC02283F8002301221A604FF035
:1098E00080430122C3F81825704700BF00E100E063
:1098F000074B00221A6082B01B680193019B4FF056
:1099000080430222C3F8042301229A6002B0704708
:1099100004010040044B01221A604FF08042D2F84B
:109920001834DB03FBD470470C000040154B07B51F
:109930001A687AB100221A601B680093009B4FF0EE
:1099400080430122C3F808230F4B587910B95A718C
:109950001B6898470D4B1A6882B100221A601B6879
:109960000193019B4FF080430222C3F80823064B6A
:109970001B68012003B05DF804EB184703B05DF8E5
:1099800004FB00BF00010040702A002004010040D9
:1099900000F1804000F5C040002382B003600368FE
:1099A0000193019B02B0704703681F2B83BF03F034
:1099B0001F03036001484FF0A040704700030050B0
:1099C00007B5019001A8FFF7EFFF019B00EB8300B3
:1099D000D0F8003723F44033C0F80037D0F8003710
:1099E00043EA0141C0F8001703B05DF804FB000032
:1099F000054B4FF0FF32072843F8202084BFC018E2
:109A000080F85820704700BF782A002010B5174C06
:109A100094F86A3043BB04F130033021FF2201394E
:109A200011F0FF0103F8012BF9D1C8B2FFF7E0FFF5
:109A300001310C29F9D1062200210D4803F051FD16
:109A40000C4BC02283F8062340221A604FF4BE70EC
:109A5000FFF79EFF084B4FF00042C3F80423012399
:109A600084F86A30002010BD0820FCE7782A002026
:109A7000DC2A002000E100E000600040034B93F886
:109A80006A00003818BF0120704700BF782A002004
:109A900037B5354B1A18044692F93000013061D1C0
:109AA0008878002852D01846002250F8045B01350F
:109AB00046D1181980F83020002043F82200920087
:109AC00002F1804202F5C0420B78D2F81055487876
:109AD00025F499151B04000525F4F85500F48010B1
:109AE00003F44033C2F8105503432002D2F8105556
:109AF00000F47C5003432B43C2F810354A7801949C
:109B0000012A01A826D1FFF74FFF019B9A40C0F818
:109B1000082501A80194FFF747FF019B134903F5AE
:109B2000E073032240F8232024FA02F2012304F018
:109B3000070003FA00F08B5C18438854002003E010
:109B40000132082AB1D1042003B030BDFE2382F8CF
:109B50003030D3E7FFF728FF019A01239340C0F884
:109B60000C35D6E70820EFE7782A0020DC2A002011
:109B700037B5174C2518014695F83000072809D845
:109B8000FFF736FF95F93030124A03F5A273002033
:109B900042F823006318FF220F4D83F83020CC08D1
:109BA00001F0070301229A402B5D13420DD001A85A
:109BB0000191FFF7F9FE019B03F5E073022140F8E4
:109BC00023102B5D23EA02022A5503B030BD00BFEB
:109BD000782A002000600040DC2A0020074B18444F
:109BE00090F930309B0003F1804303F5C043D3F874
:109BF000102542F00302C3F810257047782A002090
:109C0000074B184490F930309B0003F1804303F573
:109C1000C043D3F8102522F00302C3F81025704783
:109C2000782A0020054B184490F930000C30800051
:109C3000C0B200F1804000F5C0407047782A002093
:109C4000054B184490F9300018308000C0B200F184
:109C5000804000F5C0407047782A00200A4B184425
:109C6000003990F930304FEA830303F1804303F564
:109C7000C04318BF0121D3F8102522F4801242EA14
:109C80000152C3F810257047782A002073B5224C82
:109C90002618054696F93020072A1ADD224492F844
:109CA00058309B09032B0FD1019001A8FFF77CFED0
:109CB000019BD0F81015D94001F00101023128466E
:109CC000FFF77EFE02B070BD012B0CBF0221032105
:109CD000F5E7D3B2072BF5D8930003F1804303F5E2
:109CE000C043D3F8100540F00100C3F8100502F19D
:109CF0004000800080B2FFF74BFE0029E2D096F9C9
:109D0000303054F82330002BDCD0012303FA02F268
:109D1000024BC3F80423D5E7782A002000600040F6
:109D20000E4B034493F93020072A02DD0021FFF790
:109D300047BED3B2072B10D8930003F1804303F53D
:109D4000C043D3F8101521F00101C3F81015012309
:109D500003FA02F2024BC3F808237047782A002066
:109D6000006000402DE9F04F002489B0CDE90244A5
:109D7000624D4FF48072012102F1804303F5C0432C
:109D800090B21B68012B06D1D5F804330B4202D0E8
:109D9000FFF7FEFD0C430432B2F5907F4FEA41011C
:109DA000EAD1574B1B68012B0ED14FF4BE70FFF761
:109DB000EFFD4FF0A04344F00044D3F81035029378
:109DC000504BD3F81035039314F0FF0F1AD04E4FB9
:109DD00000250126344210D0AB0003F1804303F587
:109DE000C043D3F81005D3F8101557F8253023B128
:109DF000C1F30141C0F3052098470135082D4FEA12
:109E00004606E7D1002C75DA04AF002304937B608B
:109E10004FF0FF33CDE90633DFF8EC90DFF8EC804C
:109E20000026354618F9012B531C4AD0C2F3C20054
:109E30000123D4B202F03F0B02F0070203FA02F250
:109E400008AB191811F8083C13423AD009EB0B0380
:109E5000A40993F9303059F823A0BAF1000F08D1C2
:109E6000032C2ED117F800C04CEA020C07F800C0F2
:109E700001E0032CF6D001A8CDF804B0FFF794FD63
:109E8000019B11F8181C03F5E07C114250F82C00DE
:109E9000C0F3014005D0022813D1032C0BD1214679
:109EA00004E003280DD1032C05D102215846FFF709
:109EB00087FD0135EDB2BAF1000F02D021465846B8
:109EC000D0470136042EADD1A5B14FF0A043029981
:109ED000D3F8102503F540739142D3F8103502D121
:109EE0000399994206D002920393049A059B069225
:109EF000079393E709B0BDE8F08F00BF0060004012
:109F00007C61004000030050782A0020D82A0020FD
:109F1000014B1B68184700BFE42A00200E4B9842F3
:109F200037B50C4602D0002003B030BD00230DF140
:109F300007008DF80730FEF755F9084B1D7915B964
:109F400001221C601A719DF80700FEF76FF9002DC1
:109F5000E9D01120E8E700BF00200040E42A0020FB
:109F6000034B984201BF034B00221A601A717047DD
:109F700000200040E42A00200023435082B04358D0
:109F80000193019B02B070470A4610B54FF48E71E1
:109F9000FFF7F2FF136A9168C95C136A0133136219
:109FA000C0F81C1510BD8B690A4610B54FF48471BA
:109FB00023B9FFF7E1FFD0F8183510BDFFF7DCFF3C
:109FC000536AD168D0F81805C854536A01335362F4
:109FD000F3E700001FB501238DF80030044BCDE9F5
:109FE0000110D3E900126846904705B05DF804FB04
:109FF000EC2A002030B54C48D0F8043313F4007F2D
:10A0000085B005464DD0D0F82431002B49D04FF40F
:10A010009271FFF7B1FF4FF40173C0F80833434B5F
:10A0200093F829200AB9012242603F4902228DF8A3
:10A030000020D1F88024C1F8802403929A6902920A
:10A04000DA6801920022C3E906226846D3E90012C9
:10A0500090473548D0F81C315BB134494A690B6AE6
:10A060009A420A464AD991F82830002B46D1FFF788
:10A070008BFF2D48D0F844318BB14FF4A271FFF71C
:10A080007BFF2A4B93F829200AB1012202609A69CA
:10A090002AB10022586AD9689A61FFF79BFF05B080
:10A0A00030BDD5F804335B07D3D5D5F80831002B84
:10A0B000CFD01E4C1C482146FFF775FF636AA2698A
:10A0C0009A422346C5D1E269E1684AB12369E36057
:10A0D0000023606AA261E3616362FFF77BFFB8E778
:10A0E00094F829200AB901226A600F4A4FF40170DE
:10A0F000C2F808030022586A9A61EEE70A484FF452
:10A100008E71FFF739FF5369002BB2D0516902916C
:10A11000002391688DF80030019153616846D2E9BF
:10A1200000139847A5E700BF00200040EC2A00205C
:10A130001F2886BF00F01F00044B4FF0A04300F51E
:10A14000E070022243F82020704700BF0003005057
:10A150002DE9F843634B057991462C2202FB053229
:10A16000064692F82A200C469846002A40F0B6800F
:10A170005D490068FFF7D2FE0746002840F0B08036
:10A1800021684A1C10D01F2987BF584A01F01F03BD
:10A190000B464FF0A0420120984003F5E073C2F84F
:10A1A0000805032042F823006068431C0DD01F28D7
:10A1B0008BBF00F01F0303464C4A4FF0A04203F54B
:10A1C000E0734FF0000C42F823C03368A269C3F873
:10A1D000242594F814C0627DBCF1010F4CEA020200
:10A1E000C3F86C25C3F81405C3F80C152BD1A1686E
:10A1F000481C0DD01F298BBF01F01F020A463B48A7
:10A200004FF0A04002F5E0724FF0000C40F822C081
:10A21000E068421C13D01F2887BF344A00F01F0C8F
:10A2200084464FF0A0424FF0010E0EFA0CFE0CF5E2
:10A23000E07CC2F808E54FF0030E42F82CE0C3F8CA
:10A240000805C3F810152C236B4308EB0302C2F872
:10A250000490226948F80320B9F1000F2BD0306830
:10A26000247F4FF48E71FFF787FE30684FF4A271A0
:10A27000FFF782FE32681E4BC2F80433110B42F323
:10A280000732002AA8BF02F160404FEA4413BABF68
:10A29000184801F00F0400F56140DBB2B4BF03556C
:10A2A00080F8003301F01F01012303FA01F1520984
:10A2B000114B43F8221033680422C3F800252C23E5
:10A2C00003FB05830022C3E9062283F829205A6193
:10A2D000012283F82A203846BDE8F8830827FAE7E8
:10A2E0001127F8E7EC2A0020F59F02000003005038
:10A2F0008000020014ED00E000E100E02DE9F041F3
:10A3000003680479244D0022C3F800252C2202FBA7
:10A310000452014652686AB1204AC3F8082343F345
:10A320000732C3F3043652090120B04020321C4EDC
:10A3300046F82200D3F80C05D3F81485D3F8086545
:10A34000D3F810754FF0FF329042C3F81425C3F8CC
:10A350000C25C3F80825C3F8102501D0FFF7E8FE47
:10A36000B8F1FF3F02D04046FFF7E2FE7A1C02D070
:10A370003846FFF7DDFE731C02D03046FFF7D8FEEB
:10A380000868FFF7EDFD2C2303FB0454002384F839
:10A390002A306360BDE8F081EC2A002084020200CC
:10A3A00000E100E02DE9F047204F90F804904FF0D5
:10A3B0002C0808FB097405466669002E34D16261D9
:10A3C0000068A16026624FF48E7184F82860FFF760
:10A3D000D3FD2868012383602146FFF7D5FD63681C
:10A3E000A0468BB92868D4F814A0236A9A4511D8DE
:10A3F0002A68D2F81C31002BFBD00123D3602C2318
:10A4000003FB097300225A613046BDE8F08794F8D7
:10A4100028303BB9D0F81C31002BF8D04146FFF76B
:10A42000B3FDE2E70F26EAE71126EDE7EC2A00206C
:10A430000023435082B043580193019B02B0704700
:10A440001FB501238DF80030044BCDE90110D3E98D
:10A4500000126846904705B05DF804FB182B0020F9
:10A460001F2886BF00F01F00044B4FF0A04300F5EB
:10A47000E070022243F82020704700BF0003005024
:10A480007FB5434AD2F82461002E60D010464FF4C5
:10A490009271FFF7CDFF02238DF80030D2F880349F
:10A4A000C2F880340393D2F83C350293394BDA6812
:10A4B00001920022C3E906226846D3E900129047C0
:10A4C0003348D0F8443173B14FF4A271FFF7B0FFB5
:10A4D000304B9A693AB10022C3E90622D968D0F814
:10A4E0003C05FFF7ADFF2A48D0F82031ABB14FF45F
:10A4F0009071FFF79DFF0123C360264B5A6962B13B
:10A50000D0F84C150291002299688DF80020019135
:10A510005A616846D3E9001290471D48D0F8583177
:10A520009BB14FF4AC71FFF783FF1A4B5A6962B1CC
:10A53000D0F84C150291002299688DF80020019105
:10A540005A616846D3E90012904704B070BDD2F852
:10A550001031002BB4D04FF488711046FFF768FF1C
:10A560000C4BD2F83C0599698842A9D1DC69D968BD
:10A5700064B1D2F8005225F02005C2F800521A69E1
:10A580009C61DA60DE61FFF75BFF99E79C61FAE7A7
:10A5900000200040182B00202DE9F8436A4B067973
:10A5A0009146242202FB0632044692F820200D46F2
:10A5B0009846002A40F0C38064490068FFF7AEFC6B
:10A5C0000746002840F0BD802868421C10D01F2894
:10A5D00087BF5F4A00F01F0303464FF0A0420121EE
:10A5E000994003F5E073C2F80815032142F82310DF
:10A5F00069684B1C0DD01F298BBF01F01F030B4650
:10A60000534A4FF0A04203F5E0734FF0000C42F8BC
:10A6100023C02368AA69C3F8242595F814C06A7D6D
:10A62000BCF1010F4CEA0202C3F86C25C3F80C051B
:10A63000C3F814152BD1A968481C0DD01F298BBF56
:10A6400001F01F020A4642484FF0A04002F5E072B6
:10A650004FF0000C40F822C0E868421C13D01F28BD
:10A6600087BF3B4A00F01F0C84464FF0A0424FF0DA
:10A67000010E0EFA0CFE0CF5E07CC2F808E54FF076
:10A68000030E42F82CE0C3F80805C3F81015242384
:10A69000734308EB0302C2F804902A6948F80320C8
:10A6A000B9F1000F3AD020682A7F4FF48871FFF784
:10A6B000BFFE20684FF49071FFF7BAFE20684FF498
:10A6C0009271FFF7B5FE20684FF4A271FFF7B0FE5C
:10A6D00020684FF4AC71FFF7ABFE23681D49C3F847
:10A6E0000413190B43F30733002BAEBF03F1604093
:10A6F00001F00F0518484FEA4212A8BF00F561406B
:10A70000D2B2B4BF425580F8002301F01F010122EC
:10A7100002FA01F15B09114A42F82310236808226A
:10A72000C3F80025242303FB06830022C3E9062285
:10A730005A61012283F820203846BDE8F8830827B3
:10A74000FAE71127F8E700BF182B002081A40200C8
:10A75000000300501003420014ED00E000E100E0AF
:10A760002DE9F0412E4E0579242303FB05630446B1
:10A770005B6800686BB12B4BC0F8083340F30733BC
:10A78000C0F304315B0901228A402033264941F895
:10A790002320D0F80032012223F02003C0F8003239
:10A7A0004FF4AC714260FFF743FE2368DA60D3F8E0
:10A7B0005821002AFBD00022C3F80025D3F80C054D
:10A7C000D3F81485D3F80815D3F810754FF0FF327D
:10A7D0009042C3F80C25C3F81425C3F80825C3F824
:10A7E000102501D0FFF73CFEB8F1FF3F02D04046F4
:10A7F000FFF736FE7A1C02D03846FFF731FE4B1CBD
:10A8000002D00846FFF72CFE2068FFF7A9FB24239F
:10A8100003FB0565002385F820306B60BDE8F081FF
:10A82000182B00201003420000E100E001F060431B
:10A83000B3F1005F2DE9F041064638D11E4B077990
:10A84000242505FB073598466C69002C31D16A61D7
:10A850000068A9604FF49071FFF7EAFD4FF4AC7106
:10A860003068FFF7E5FD33686A69A968C3F84415E5
:10A87000C3F8482501229A606A68AAB9D3F8202152
:10A88000D3F858411AB9002CF8D00F2407E0002C57
:10A89000FBD10122DA60D3F85821002AFBD024230F
:10A8A00003FB078700237B612046BDE8F08110246D
:10A8B000FAE71124F8E700BF182B0020034B1878A3
:10A8C00010B901221A707047852070473C2B002078
:10A8D0000023435082B043580193019B02B070475C
:10A8E0002DE9F047DFF8948004460E4691464FF478
:10A8F0008037002500F5A07AD4F80433A90001F5CB
:10A90000A0713B4289B20DD05AF8253053B1C4F83A
:10A9100048732046C4F80873FFF7DAFF58F826306A
:10A92000E8B298470135A9454FEA4707E4D1D4F882
:10A930000433DA070CD5D4F800314BB120464FF47C
:10A940008071FFF7C5FF0D4B042053F82630984760
:10A95000D4F804339B070ED5D4F804315BB12046FC
:10A960004FF48271FFF7B4FF044B052053F82630F3
:10A97000BDE8F0471847BDE8F08700BF442B002032
:10A98000F0B51C4B45791C4C43F8252005EB4503DD
:10A990006F00E35C63BB90F9046003798A78002E52
:10A9A000ADBF06F1604CDFF854C003F00F0E0CF59C
:10A9B000614C4FEA4212D2B2B4BF0CF80E208CF8B0
:10A9C000002376090122DFF838C003F01F0302FAE2
:10A9D00003F34CF8263003680888C3F808053D44A3
:10A9E000631908796255C978587099700020F0BDD4
:10A9F0000820FCE7442B00203D2B002014ED00E054
:10AA000000E100E0036801221A604379024A03EB87
:10AA100043030221D15470473D2B00202DE9F04122
:10AA200005464FF4803400681C4E8C40C0F8484303
:10AA3000C0F8084395F805C00CEB4C07374422F0EA
:10AA40007F4297F8018001F5A8774FEA4C0E40F855
:10AA50002720B8F1000F11D0D0F80485F4446644E3
:10AA6000A8EB0207904538BF07F1FF17B27838BF4F
:10AA700007F57F47BA4201DD0D200CE03BB15031B4
:10AA8000890089B2FFF724FF2B68C3F804432B68C1
:10AA90000020C3F84443BDE8F08100BF3D2B0020F7
:10AAA000024610B500680C464FF48071FFF710FFA6
:10AAB00013680122C3F844230CB1C3F8042310BD6A
:10AAC000024803220021FFF70BBF00BF00B0004087
:10AAD000024804220121FFF703BF00BF00400240EB
:10AAE0002DE9F347002406460F46904600F5A07571
:10AAF0004FF48039A2462B688BB1D6F8043309FA9B
:10AB000004F21A420BD0C5F800A02B680193A000F4
:10AB1000019B00F5A07398B2D7E900319847013442
:10AB2000A04505F10405E6D102B0BDE8F0870000BC
:10AB3000F7B506792F4D0C237343EF183C7A002CA0
:10AB400056D1EA504B687B60477903682246D0B201
:10AB5000874244D843F30734C878002CA8BF04F1D7
:10AB60006047C3F30732BABF234F02F00F0C07F55B
:10AB700061474FEA4010C0B2B4BF07F80C0087F835
:10AB80000003640901201D4F02F01F0200FA02F2C7
:10AB900047F82420D3F804454A7824F0030402F04F
:10ABA00003022243C3F80425D3F808458A7824F029
:10ABB000030402F003022243C3F808250A78D3F8FD
:10ABC000104502F00F0224F00F010A43C3F81025CC
:10ABD0000C2303FB06552872002003B0F0BD900043
:10ABE00000F5A07001321C50185801900198AEE792
:10ABF0000820F2E74C2B002014ED00E000E100E01B
:10AC0000036801221A600379034A0C2101FB032324
:10AC100002221A72704700BF4C2B002003680449BF
:10AC200001221A6103790C2000FB03131A7270478A
:10AC30004C2B002038B5036843F30732C3F30435C7
:10AC400052090121A94020320A4D45F8221004463C
:10AC5000D3F8002200254FF0FF32C3F80052C3F8AA
:10AC60000823FFF7DBFF2379034A0C2101FB0323B1
:10AC70001D7238BD00E100E04C2B0020036801226A
:10AC8000DA60704737B54FF4803400688C407BB190
:10AC90008B0003F5A0730025C550C3580193019B99
:10ACA000C0F8044301F5A87140F8212003B030BD7D
:10ACB000C0F80843F6E770B4046840F20116D4F80F
:10ACC00000528E4025EA0605C4F80052D4F800521E
:10ACD0002B43C4F800329DF80C3070BCFFF7D2BF94
:10ACE0008B0003F5A07302689BB20020D05082B0A5
:10ACF000D3580193019B4FF4803303FA01F1C2F85A
:10AD0000041302B0704702684FF4803303FA01F174
:10AD1000C2F8081370470000024903480422FFF7F5
:10AD2000DFBE00BF4C2B00200080004002490348DA
:10AD30000422FFF7D5BE00BF582B00200090004032
:10AD4000024903480422FFF7CBBE00BF642B00205A
:10AD500000A00040024903480622FFF7C1BE00BF21
:10AD6000702B002000A00140024903480622FFF793
:10AD7000B7BE00BF7C2B002000B001402DE9F74F8B
:10AD80004FF00009154D164F06464FF0040AC8460D
:10AD90005FFA89FB01240DF1070004FA0BF48DF82A
:10ADA0000780FDF71FFA2C4208D03B6814EA030223
:10ADB00001BF23433B6086F800B092469DF8070030
:10ADC000FDF734FABAF1000F03D0A54309F10109E8
:10ADD000DED1504603B0BDE8F08F00BFFFFF010099
:10ADE000882B0020012337B503FA00F5C5F31003C3
:10ADF000ABB10C4B0024C3F808550DF107008DF8DA
:10AE00000740FDF7EFF9084B186820EA05001860C5
:10AE10009DF80700FDF70AFA204603B030BD072071
:10AE2000FBE700BF00F00140882B002010B5A1B166
:10AE30009AB101238340C3F3100484B10A4C2468FF
:10AE400023420ED0C00000F1804000F5F830C0F879
:10AE50001015C0F81425002010BD0E20FCE70720B7
:10AE6000FAE70820F8E700BF882B0020012202FA49
:10AE700000F3580C400440B91BB1064A1268134253
:10AE800005D0054AC2F804357047072070470820EE
:10AE9000704700BF882B002000F00140012202FA19
:10AEA00000F3580C400440B91BB1064A1268134223
:10AEB00005D0054AC2F808357047072070470820BA
:10AEC000704700BF882B002000F0014072DF704700
:10AED00073DF704776DF70477ADF70477CDF70473B
:10AEE0007FDF70478FDF7047B1DF70477047704773
:10AEF000FCF788BF08B5064B01211878FFF7E8FF7B
:10AF000008B1FCF77FFFBDE808400020FEF778BBE2
:10AF10003C2300200388212B13B504464ED007D8CC
:10AF2000112B2DD0132B41D0102B0CD002B010BD03
:10AF3000522B4BD0562B01D03B2BF7D1A08813219D
:10AF4000FFF7C8FF17E0254B25482649C01AC0085F
:10AF5000000440F00300FCF7A3FD0020FEF764FBB3
:10AF6000214BA1882148198001F008F908B1FCF7AC
:10AF700049FFFCF705FF0028D8D0FCF743FFD5E7D1
:10AF8000164B17481A49C01AC008000440F00300C5
:10AF9000FCF786FD144B4FF6FF721A80FCF706FF94
:10AFA00008B1FCF72FFFFFF7A5FFBFE70E4800230E
:10AFB0001A4685210088FFF793FFDCE7002301A9EB
:10AFC0008088ADF80430FFF78DFFD4E706480023F2
:10AFD0001A4619460088FFF787FFCCE70CD6020017
:10AFE0004CD60200B0DD020042230020702C00206D
:10AFF000BADD020008B503784BB9054B3B21188830
:10B00000FFF768FF18B1BDE80840FCF7FBBE08BDBC
:10B0100042230020FCF7F6BE10B5144C14482288D9
:10B020000021FDF7FBFF228812480021FDF7F6FF03
:10B03000228811480021FDF7F1FF22880F480021E6
:10B04000FDF7ECFF23680E4A312B03D90021117064
:10B05000013B04E0052B04D801211170013323606A
:10B0600010BD1278002AF9D1F2E700BF2823002092
:10B07000F4DD0200FCDD020004DE02000CDE020052
:10B080008C2B0020042801D1FFF7C6BF70470000B9
:10B0900010B5044686B04848FEF7B2F94748FEF7B7
:10B0A000AFF94748FEF7ACF94648FEF7A9F9226820
:10B0B000F2B14FF0FF334FF0100ECDE901E3002362
:10B0C000ADF80C30012304933B483F4BB3FBF2F344
:10B0D00001A93E4A0593FDF7ABFF08B1FCF792FECC
:10B0E0003548FEF709F9344832220021FDF796FF72
:10B0F0006268F2B14FF0FF334FF00F0CCDE901C39E
:10B100000023ADF80C30012304932C482E4BB3FBE5
:10B11000F2F301A92D4A0593FDF78AFF08B1FCF768
:10B1200071FE2648FEF7E8F8244832220021FDF798
:10B1300075FFA268EAB10E204FF0FF33CDE901039D
:10B140000023ADF80C30012304931D481E4BB3FBC4
:10B15000F2F301A91D4A0593FDF76AFF08B1FCF758
:10B1600051FE1748FEF7C8F8154832220021FDF7B6
:10B1700055FFE268EAB10D214FF0FF33CDE901132D
:10B180000023ADF80C30012304930E480E4BB3FBA3
:10B19000F2F301A90D4A0593FDF74AFF08B1FCF748
:10B1A00031FE0848FEF7A8F8064832220021FDF7D4
:10B1B00035FF06B010BD00BFF4DD0200FCDD02006B
:10B1C00004DE02000CDE020040420F00EDAE020081
:10B1D00000B5A5B0FEF766FA08B1FCF713FE002033
:10B1E000FEF77CFA7B4B7C4A18689B881590ADF87B
:10B1F00058307A48482315A9ADF85430FFF7C0FB02
:10B2000008B1FCF7FFFD75480121FFF749FC7348C1
:10B21000012318220021FFF701FC08B1FCF7F2FD21
:10B220006E48FFF7EFFB4FF480410020FCF782FAF5
:10B2300008B1FCF7E7FDFCF7B3F9FCF7A5FE08B190
:10B24000FCF7E0FDFDF71AFD08B1FCF7DBFD01F0AE
:10B250003BF808B1FCF7D6FD002315A90120159392
:10B2600001F0BAF808B1FCF7CDFD15A801F066F9B8
:10B2700008B1FCF7C7FD112359488DF8183002F0CA
:10B2800063F9574982B206A8FFF728FE08B1FCF718
:10B29000B9FD0822002115A802F023F9514A4FF008
:10B2A000C87315A8CDE91523FFF716FE08B1FCF702
:10B2B000A9FD4D48002100F059FE08B1FCF7A2FDA0
:10B2C0004A4B4B48069306A900F046FF08B1FCF72D
:10B2D00099FD0021082215A802F003F9454B4648C4
:10B2E000159315A900F0A2F808B1FCF78BFD3C22DC
:10B2F000002106A802F0F5F8404C02238DF8183022
:10B300003C2240F20163002115A8ADF81A3002F08A
:10B31000E8F822460123ADF8643052F8041B384B9C
:10B320001A9306A800F038FA08B1FCF76BFD354A0D
:10B33000A16815A800F030FA08B1FCF763FD1822E7
:10B340000021684602F0CDF800230122ADF80C3050
:10B3500001934FF480738DF80020ADF81430274925
:10B36000294840236A460293FFF7B0FD08B1FCF775
:10B3700049FD1C22002115A802F0B3F800234FF468
:10B38000A022CDE91532ADF862304FF4A0328DF82D
:10B3900064301E4B17921A9303221D4B8DF86020C8
:10B3A00015A81B9300F0C0FC08B1FCF72BFD194B4E
:10B3B00019481A49C01AC008000440F00300FCF7FD
:10B3C0006FFBFFF797FDFCF70FFA0028FBD1FDF7A5
:10B3D0006BFCF8E7ECDD020085B0020034DE020011
:10B3E000C7DD02005000A000CC2B0020F1AE02000F
:10B3F000702C0020EFAE02007C2C00202C230020BB
:10B400003E230020382300203C230020F5AF02001B
:10B4100015B002000CD602004CD60200D3DD0200AB
:10B42000A8DF7047AADF704762DF7047F0B50E46AD
:10B4300095B00546002874D0002972D04FF6FF73EE
:10B44000C381394B04AA03F1100C174618685968D8
:10B45000144603C4083363452246F7D105F11001B1
:10B460003846FFF7E1FF0446002857D12B7C8DF8C2
:10B470000A304FF4A053ADF8083033682B604FF614
:10B48000FF73EB812A1D02A90120FFF7C9FF0446C3
:10B49000002843D101461C220DA802F022F89DF895
:10B4A00034300E9401AF23F01A0343F00A0321460F
:10B4B00003223846CDE91044CDE912448DF83430EA
:10B4C00002F00FF8B3798DF80430F3798DF8053078
:10B4D0009DF8063023F01F0343F002038DF8063079
:10B4E0002B7C8DF80E30214641F20143142208A82E
:10B4F000ADF80C3001F0F5FF03ABCDE908370423BC
:10B500000A93ADF82C3041F21113ADF80430A8883D
:10B51000AB1D08AA0DA9FFF785FF0446204615B00C
:10B52000F0BD0E24FAE700BF3CDE02000000000080
:10B530002DE9F04F2DED028B034687B0084679B117
:10B5400073B11A88112A10D0502A12D0102A07D1AC
:10B550009B88CB8101238DF808300B6802A998479E
:10B5600007B0BDEC028BBDE8F08F4FF6FF73CB81C7
:10B57000F6E7C988DA889142F2D11A8A3C4CDFF8A2
:10B5800020B103F1120101A89FED378B01F080FF7C
:10B59000019F002625464FF0000A27FA06F303F024
:10B5A0000F00C3F30313013B0B2B57D8DFE803F065
:10B5B000063F41434547494B4D4F51532D4B236067
:10B5C000013801F07FFBB0EE480AF0EE680A41EC6A
:10B5D000110B01F055FE59EC108B206801F086FB31
:10B5E00042464B4601F03CF901F09AFB0836202E0A
:10B5F00044F8040BD1D1D5ED007AFCEEE77A02A82D
:10B60000CDED027AD5ED017AFCEEE77ACDED037A45
:10B61000D5ED027AFCEEE77ACDED047AD5ED037A2A
:10B62000FCEEE77ACDED057AFFF732FD98E7124B95
:10B63000C5E7124BC3E7124BC1E7124BBFE7124BF2
:10B64000BDE7124BBBE7124BB9E7124BB7E7124B02
:10B65000B5E7124BB3E7C4F800B0B1E7C4F800A0F7
:10B66000AEE700BFAFF30080000000000000004024
:10B67000902C0020CDCC02429A990A420AD712425D
:10B680005C8F1B42CDCC24429A992E420000394255
:10B6900000004442D7A34F4200005C427B14694241
:10B6A000C3F576426DDF704779DF70477DDF704705
:10B6B00064DF70472DE9F04F85B000250E9CBDF882
:10B6C0003CB0B4F800A00191074690461E46A9463A
:10B6D0003A884A450DDC45B12388013BA3EB0A03B8
:10B6E0009BB2FF2B3AD806F80A30002005B0BDE81F
:10B6F000F08F7A6852F82900039000220DF10B01B7
:10B7000003A8FFF7D5FF0028F0D19DF80B20424594
:10B7100021D12288002D14BF0020022002EB080155
:10B72000014459451ADC3DB9013292B2019B228095
:10B73000B35422880132228022880DF10B01324459
:10B7400003A8FFF7B5FF0028D0D121889DF80B2072
:10B750000A442280012509F10109B9E70C20C5E757
:10B760002DE9F341089FBDF824801546CDE9007806
:10B77000022204461E46FFF79DFF50B933461022B1
:10B7800029462046CDE9087802B0BDE8F041FFF730
:10B7900091BF02B0BDE8F0812DE9F04F002317887A
:10B7A000138090F82D3085B006460D46144653B3ED
:10B7B000082F01D80C2027E102A8FFF773FF00280B
:10B7C00040F0228123880822EA54238801339BB267
:10B7D0001B222380EA542088013080B22080062278
:10B7E0000DF10901284401F053FE23889DF808203B
:10B7F00006339BB212F0FE0218BF01222380EA54E6
:10B80000238801332380B378FBB123880433BB4200
:10B81000D0D802A8FFF748FF002840F0F580238821
:10B820000322EA54238801339BB219222380EA546D
:10B830002388BDF8082001339BB2E9182380EA541D
:10B84000120A4A70238802332380F2789AB123883F
:10B85000D91CB942AED80221E954238801339BB2E6
:10B8600001212380E95423880B449BB22380EA54AE
:10B8700023880B4423807268AAB12388D91CB9425B
:10B8800098D8022192F90020E954238801339BB211
:10B890000A212380E954238801339BB22380EA5490
:10B8A0002388013323803389002B40F0A180338A21
:10B8B0005BB1CDE900472B460722032106F11000BA
:10B8C000FFF74EFF002840F09F80338B5BB1CDE93E
:10B8D00000472B461522142106F11800FFF740FF00
:10B8E000002840F09180326A002A40F09080D6F81B
:10B8F0002480B8F1000F30D0B8F804302188981CAB
:10B900008A1C0244BA423FF655AFFE283FF652AFBA
:10B9100003336B54238801339BB2FF222380EA5404
:10B92000238801339BB22380B8F80020EA54E91839
:10B93000120A4A702088023080B22080B8F80420B1
:10B940005AB1D8F8081000296BD0284401F0A0FDA6
:10B950002388B8F804201344238096F82C30002B59
:10B9600040F09A80307800284ED03388012B58D090
:10B97000228802F1020CBC453FF61CAF012805D11C
:10B980007378023313449F42FFF414AF023FBF1A8F
:10B99000BFB202A905EB0C00ADF80870FFF786FEF8
:10B9A00090BB3178BDF80830022900F0BA80727877
:10B9B0009A4202D3BB4240F2B280012940F0B380E8
:10B9C000974293B2C0F0AF80ADF808300821BDF8BF
:10B9D0000830FE2B3FF6EEAE22880133AB542288AE
:10B9E000013292B22280A9542288134423800BE0B2
:10B9F000CDE900472B460622022106F10800FFF799
:10BA0000AFFE00283FF453AF05B0BDE8F08FB4F8A7
:10BA100000C00CF10603BB423FF6CCAE11880529ED
:10BA200001D80720F0E76FF4486E01EB0E039BB2DC
:10BA30004FF27D3E7345F4D95388052BF1D96FF44D
:10BA40004860181880B27045EBD94FF6FF708142FC
:10BA500003D0834201D09942E3D8052305F80C3086
:10BA6000238801339BB212212380E95423880133B8
:10BA70009BB223801188E954E818090A4170238891
:10BA800002339BB223805288EA54E918120A4A70A2
:10BA90002388023323802AE7B36A002BC1D04FF0FA
:10BAA00000094FF00C0A4FF0160B96F82C305FFA95
:10BAB00089F293427FF656AFB16A0AFB02F201EBBC
:10BAC0000208B8F80430981CFE283FF673AE2088B0
:10BAD00003332B54238801339BB2238005F803B032
:10BAE000238801339BB223808A5AEA54E918120A48
:10BAF0004A702088023080B22080B8F804205AB101
:10BB0000D8F8081000298CD0284401F0C1FC238803
:10BB1000B8F804201344238009F10109C5E709217D
:10BB200055E7BB42FBD9ADF808704FE775DF7047AA
:10BB300076DF70477ADF70477BDF7047034B1A88E8
:10BB400082420CBF18460020704700BFBC2C00206A
:10BB5000024B9B6903B11847704700BFA02C00201F
:10BB600073B585B22846FFF7E9FF044670B1164E5B
:10BB7000027A337B9A420BD200F10A012846FFF782
:10BB8000D5FFE8B1112801D0FFF7E2FF02B070BD88
:10BB900000230372337C43B13B212846FFF7C8FFE3
:10BBA00030F0080301D0FFF7D3FF7369002BEDD00D
:10BBB00000228DF80420ADF8065001A89847E5E76B
:10BBC000237A01332372E1E7A02C002037B50B461E
:10BBD000497A0F4A71B9D2E901141D7A0246002D43
:10BBE00018BF21465868FCF70CFA08B1FFF7B0FF00
:10BBF00003B030BD002119725369002BF8D0012227
:10BC0000ADF806008DF8042001A89847F0E700BFC2
:10BC1000A02C00204B8802889A4213D842889A426E
:10BC200010D380888A8840F2F313984294BF031A95
:10BC3000C31A934206D800F2F310904234BF00209A
:10BC400001207047002070470388122B70B5014611
:10BC500059D004D8102B1ED0112B44D070BD502BBE
:10BC6000FCD12F4BC288DB899A42F7D1038A022B81
:10BC7000F4D186883046FFF761FF05460028EDD0F5
:10BC800001F1120000F028F938BB6868FCF7D1F91F
:10BC90000028E3D009E0C37B012BDFD14FF6FF7012
:10BCA000FFF74CFF054620B90420BDE87040FFF7C0
:10BCB0004FBF1C4A8E880680002303721368C0F8A9
:10BCC0000A305368C0F80E3010310A30FFF7A2FF77
:10BCD000134B6872DB89002BC0D129463046BDE882
:10BCE0007040FFF773BF8088FFF728FF04460028E5
:10BCF000B4D04068FCF79DF908B1FFF729FF4FF673
:10BD0000FF732380AAE786883046FFF717FF0546B2
:10BD10000028A3D008310A30FFF77CFF6872DCE707
:10BD2000A02C0020D02C0020F8B5064648B30546CC
:10BD30000FCD154F3C460FC495E8070084E8070077
:10BD40003068124C3C60B0B1FFF7F4FEC0B9326805
:10BD500013682360536863600D480E4A4FF6FF7303
:10BD600003800D4B40F8043F0021FCF73FF9002809
:10BD700018BF032004E02046FFF7DEFE0028EBD0CA
:10BD8000F8BD0E20FCE700BFA02C0020D02C002026
:10BD9000BC2C002061BB0200D82C00200AB1FCF7AB
:10BDA00023BCFCF72ABC73B50191019C06466CB11B
:10BDB00000252C46294601A8FCF729FC18B106EB02
:10BDC000440301349D800135142DF3D13046346095
:10BDD00002B070BD2DE9F04703888488103B8CB019
:10BDE00005460A2B1FD8DFE803F0063F1E1E1E1E65
:10BDF0001E1E1E604400314EB368DB430093716821
:10BE00006846FCF730FC009901A8FFF7CCFF0DF164
:10BE100008094FF00008019B984507D3132C13D94C
:10BE20000420FBF7EFFF0CB0BDE8F08739F802AB58
:10BE300000270137514606EB8700FCF7DEFB1E2F7B
:10BE4000F7D108F10108E6E71D482146FCF7CCFBD5
:10BE50001C482146FCF7C8FBEB7B012BE3D01A48BA
:10BE60002146FCF7C1FBDEE715482146FCF7C5FB80
:10BE7000D9E7027A15483F2A4FEA1215214694BFA6
:10BE800000220122FFF78AFF022D94BF0022012227
:10BE90000F482146FFF782FF012D0E4894BF002274
:10BEA00001222146FFF77AFFBDE7037A002BBAD1C2
:10BEB000427A0648C2F3C0022146F3E7F82C00207C
:10BEC000002D0020FC2C0020042D0020102D00202F
:10BED0000C2D0020082D0020007800F00100704794
:10BEE00090DF7047A5DF7047B5DF70477FB500234F
:10BEF000ADF80810ADF80A106A4602A90646039389
:10BF00000093ADF80430FFF7EBFF054600B3124B8A
:10BF1000124CE41AE408FCF751FF240444F0010435
:10BF200003460F4932462046FBF7C7FDBDF8002007
:10BF3000BDF8023052EA030103D00A492046FBF75C
:10BF4000BCFDBDF804201AB107492046FBF7ACFD43
:10BF5000284604B070BD00BF0CD602006CD60200AB
:10BF60004CDE020096DE0200D5DE020078B14FF012
:10BF7000171303601B2303711723C380038141F64A
:10BF80001B320023016143818281184670470E20D5
:10BF90007047000013B5034680880C46B8B91A886C
:10BFA000242A00F0958014D8112A71D0232A00F099
:10BFB0009D80102A3BD0A37A4BB1E1880020FFF787
:10BFC00091FF002840F098804FF48073638102B0A5
:10BFD00010BD3A2A64D0552AEDD1DB88C988A072F9
:10BFE000172B38BF17238B4228BF0B462381FFF73F
:10BFF0007BFF60B1FCF7E2FE484B494902464948E5
:10C000001B1ADB081B0443F00100FBF74DFDE37A2C
:10C01000002BD0D12369002BCDD040F6772200929F
:10C020002289ADF80420694620469847C3E7DB7BA8
:10C030000A790A73012B13D0022B14D0E1882389CB
:10C040008B4205D20020FFF74DFF70B90123E37248
:10C05000217B637B8B42AED20020FFF747FFAAE72C
:10C060000B88E380EAE74B88FBE7112802D1012324
:10C07000A372EDE7FCF7A2FE284B2B4902462948A4
:10C080001B1ADB081B0443F00100FBF70DFDDFE783
:10C090001723CB800B8141F61B3348818B818AE7C4
:10C0A0005B89CA88934228BF1346172B0A6938BF99
:10C0B00017230B814AB1C97A39B140F67721009133
:10C0C000ADF804306946204690470023638172E74B
:10C0D0001A7A0B694A73002B3FF46DAF4DF67A2143
:10C0E0008DF8050000918DF804209CE7197A237BD8
:10C0F000994228BF1946B0E711283FF468AFFCF712
:10C100005DFE064B0849024606481B1ADB081B0465
:10C1100043F00100FBF7C8FC59E700BF6CD60200F2
:10C120005CDF02000CD602002BDF0200B0DF70479C
:10C1300066DF704710B5002104464088FFF7F8FF1E
:10C14000034608B9237210BD112801D10123F9E774
:10C150006368BDE81040184760B159B10378DE2B21
:10C160000AD00B684360DE2303704FF6FF734380F1
:10C17000002070470E2070470820704728B10378D0
:10C18000DE2B04D14180002070470E20704708202C
:10C190007047F0B5054685B00C46F1B1E8B10B78B3
:10C1A000DE2B1AD182884B889A4204D10B7A13B1C4
:10C1B0000846FFF7BFFF2B88112B32D0512B0ED032
:10C1C000012B0AD12B7A012B07D1A98862889142D1
:10C1D00003D123722046FFF7ADFF05B0F0BDAE8856
:10C1E0006388B342F9D1AF79022FF6D1AD7B2B1F13
:10C1F000022BF2D800211022684601F072F9052DB9
:10C2000014BF4FF4C0730023694630468DF80070A8
:10C21000ADF80430FFF78AFF0028DED06368984746
:10C22000DBE76388AA889A4204BF4FF6FF736380F6
:10C23000D3E710DF7047000013B50446094968468C
:10C24000FCF761FD019808B902B010BDD0E90021EA
:10C250002046904718B16846FCF75FFDF2E71120D1
:10C26000F2E700BFA4DF020013B5044607496846A1
:10C27000FCF749FD019B0BB902B010BD2046D3E984
:10C28000002190476846FCF748FDF3E7BCDF020059
:10C290000B4991F816335A09EC231341DB0706D5F5
:10C2A000084B9A683AB94FF480030B60704742F22A
:10C2B0000200FBF7A7BD1A6842F480021A607047BB
:10C2C00000E100E0E4290020F7B5194F3C7864BB99
:10C2D000184E012520463570FFF7AEFF112821D0FA
:10C2E0002046FFF7C1FF144B8DF8034018680190FA
:10C2F0000DF10300FBF776FF104901A8FFF799FF46
:10C300000446B0FA80F0400938709DF80300FBF74E
:10C310008DFF3CB90A4B34701C70FFF7B9FF2846FB
:10C32000FFF7A2FF204603B0F0BD0824FAE700BFE4
:10C33000752D0020742D0020A0DF0200217E020058
:10C34000762D0020014B1878704700BF752D002016
:10C3500007B508496846FCF7D6FC019B13B903B042
:10C360005DF804FBD3E9002090476846FCF7D5FC54
:10C37000F3E700BFB0DF0200FFF7EABF60DF7047FE
:10C3800069DF704761DF704730B5114B1B7891B0A2
:10C39000E3B1104D34240DF1020103A8ADF80240C1
:10C3A000FFF7F0FF70B9294601A8FCF7ACFC029B2F
:10C3B000002BF0D003A8D3E90021904701A8FCF797
:10C3C000ACFCF4E7052801D0FBF71CFD11B030BD33
:10C3D000772D002000E2020030B5054685B00C46FE
:10C3E000002900F099804D4B0B600C22002101A820
:10C3F00001F077F801238DF8063022688DF804509B
:10C40000062301A92020ADF80830FFF7B9FF60B17D
:10C41000FCF7D4FC424B4349024643481B1ADB0855
:10C420001B0443F00100FBF73FFB0C22002101A895
:10C4300001F057F801238DF805302268002301A987
:10C440004020ADF80630FFF79BFF60B1FCF7B6FC6B
:10C45000334B3649024634481B1ADB081B0443F0B1
:10C460000100FBF721FB0C22002101A801F039F8A3
:10C470000A2322688DF8043001A90120FFF780FF0C
:10C4800060B1FCF79BFC264B2949024626481B1A43
:10C49000DB081B0443F00100FBF706FB0C22002124
:10C4A00001A801F01EF84FF4B0632268019301A9BE
:10C4B000A120FFF765FF60B1FCF780FC184B1D4918
:10C4C000024619481B1ADB081B0443F00100FBF766
:10C4D000EBFA0C22002101A801F003F89DF80430CA
:10C4E00022686FF3000301A9A0208DF80430FFF744
:10C4F00047FF034668B1FCF761FC094B0E49024651
:10C5000009481B1ADB081B0443F00100FBF7CCFAB7
:10C510000023184605B030BD0E23FAE700230020A3
:10C520007CD60200C8DF02000CD602000EE002003A
:10C530005AE00200A6E00200F7E0020073B50546EB
:10C540000668FFF71BFF2B68B34204461DD91A4843
:10C550001A4B1B491B1ADB081B0443F00200019015
:10C56000FBF79EFA2B68174901983246FBF7A5FAAC
:10C570004FF080532A68D3F80C31134901989B027D
:10C5800003F100539A1AFBF78FFA2CB90F4B0122D3
:10C590001A70204602B070BD2046FCF70FFC074B16
:10C5A0000B49024604481B1ADB081B0443F0010038
:10C5B000FBF77AFAEDE700BF0CD602007CD602004A
:10C5C0004AE1020079E10200AAE10200772D002091
:10C5D000D4E102004BDF70471FB50D4C01A8FFF7F7
:10C5E000F9FF70B9214602A8FCF78DFB039B002BD5
:10C5F000F4D00198D3E90021904702A8FCF78DFB05
:10C60000F4E7052801D0FBF7FDFB04B010BD00BF27
:10C6100018E2020030B591EA030F00F18480841A19
:10C6200071EB030C05D2121953EB0C03001B71EBD9
:10C630000C0140F2000CCFF6E07C1CEA430F54D012
:10C64000BCEB410F61D90C0DA4EB135E31EA0C0178
:10C6500041F4801133EA0C0343F48013DEF1200C23
:10C660002AD303FA0CF5401941F1000122FA0EF524
:10C67000401923FA0EF5694112FA0CF2CD0208D3E3
:10C6800049085FEA30005FEA320228BF42F0010247
:10C690000134013C5FEA500C72F1004250F100009D
:10C6A00051EB04514FF4001313EB410F38BF30BD71
:10C6B000090D0905002030BDBEF1200EBEF1200F8E
:10C6C0001ED223FA0EF5401941F10001CEF1200CE3
:10C6D000124218BF012203FA0CF52A43CEE711EAF1
:10C6E0005C0F04BF0020002130BD1CEA410F04BFD5
:10C6F00001F00041002030BD01F00041002030BDBC
:10C7000021F4801101EB045130BD004218BF41F00B
:10C710000101BCEB410F08BF30BD4FF0FE4141F4B9
:10C720007801002030BD83F00043841A71EB030EC2
:10C7300007D28EF0004E001B71EB0E01121953EB65
:10C740000E0340F2000CCFF6E07C1CEA430FC6D08B
:10C75000BCEB410F72D90C0DA4EB135EC90241EA88
:10C760005051C00241F00041DB0243EA5253D20271
:10C7700043F00043DEF1200C41D312FA0CF522FA0B
:10C780000EF203FA0CF542EA050218BF42F001026C
:10C7900023FA0EF3801A9941E30AC4F30A0411F054
:10C7A000404F03D418D0013C40004941013C23D400
:10C7B0004205C00A40EA4150C90A51EAC3715FEA22
:10C7C000500C72F1004250F1000051EB045130BDA9
:10C7D00001002FD00020203C0029F9D0B1FA81FCC3
:10C7E000DCF1200E11FA0CF130FA0EF510FA0CF013
:10C7F0002943A4EB0C04D9E70020D90730BDAEF1E2
:10C80000200EBEF1200F0DD2CEF1200C03FA0CF554
:10C8100033FA0EF32A4318BF43F00103C01A61F143
:10C820000001B9E721F00041C00A40EA4150C90ABD
:10C8300001EB045130BD0020002130BD004218BF83
:10C8400041F00101BCEB410F7FF467AFBCEB430F3C
:10C850003FF463AF30BD00BF83F00043FFF7DABEA3
:10C86000F0B540F2FF7681EA030C16EA115E1EBFB6
:10C87000B64516EA1355B5425AD021EA465141F45D
:10C880008011A1FB024723EA465343F48013AE44D0
:10C89000A0FB03650CF0004C36197D41A1FB03475A
:10C8A00047F10003A0FB0217F619654153F100039D
:10C8B000094218BF46F0010640F2FE74B3F5007F4E
:10C8C00013D2AEF5806EA6452BD24CEA0331280375
:10C8D00041EA155140EA16503203450872F1004210
:10C8E00050F1000051EB0E51F0BDAEF2FF3EA645F7
:10C8F00017D24CEAC321E80241EA555140EA5650AA
:10C90000F202450872F1004250F1000051EB0E5165
:10C91000F0BD0CF0004141F0FE4141F470010020F7
:10C92000F0BD1EEA0E0FF4D50CF000410020F0BD62
:10C9300016EA115F04BF01F000410020004218BF59
:10C9400041F0010116EA135F04BF03F00043002227
:10C95000124218BF43F0010306EA1354B44218BF51
:10C960009EEA060F03D00CF000410020F0BD21F03C
:10C97000004123F00043B1EB065F06D8B3EB065F3E
:10C9800003D8002918BF002BC3D140F20001C7F61D
:10C99000F8710020F0BD00BF2DE9F04391EA030ECD
:10C9A0000EF0004E40F20007CFF6E07717EA41059F
:10C9B0001EBF95EA070F17EA430595EA070F00F037
:10C9C000A1807F0D17EA135623EA475343F48013DF
:10C9D00017EA115521EA475141F48011AD1B05F2C8
:10C9E000FD354FEAD31C1CF1010C4FF00047B7FB9B
:10C9F000FCF77F01A2FB079C0024E3FB07C4DCF1EA
:10CA0000000CD9F100097CF1000CA0FB07620020AA
:10CA1000E1FB072000275FEAC628E0FB0987760DC7
:10CA200046EAC226520DF61900277A41E0FB0C6255
:10CA30005FEAC823E2FB09375FEA585848EAC6288C
:10CA4000760D18EB070800214E41E2FB0C8602EB45
:10CA5000C020DA02E6FB09215B0D43EAC8235FEA46
:10CA600058585B18002758EB0708E6FB0C38D10232
:10CA7000E8FB0917520D42EAC3225B0DD2190027C9
:10CA80007B41E8FB0C2308EBC6265FEAC128E3FBE9
:10CA90000987490D41EAC221520DC91942F100022C
:10CAA000E3FB0C12470019EB08095CEB010C72EB7D
:10CAB000040453EBC62047EB56530026B3F5000F92
:10CAC0007641AD190236D6F1200910FA09F4F0408A
:10CAD00013FA09F21043F340E40F001943F1000385
