:020000022000DC
:1070000000000420757302005D7302005F730200CC
:1070100061730200637302006573020000000000E8
:107020000000000000000000000000006773020084
:1070300069730200000000006B7302006D730200B0
:107040004DCA02006F73020091DC02006F730200F0
:107050006F7302006F730200A9D902006F73020000
:10706000D1040300E9040300010503000DFC020044
:107070006F7302006F7302006F7302006F73020080
:107080006F730200B19902006F7302006F73020008
:107090006F7302006F7302005D3903006F730200AB
:1070A0006F7302006F7302001905030031050300BE
:1070B0006F7302006F730200000000000000000008
:1070C0006F7302006F7302006F7302006F73020030
:1070D00021FC02006F7302006F7302006F730200E5
:1070E0006F7302006F7302006F73020000000000F4
:1070F000000000006F730200000000006F730200C8
:10710000000000000000000000000000000000007F
:10711000000000000000000000000000000000006F
:10712000000000000000000000000000000000005F
:10713000000000000000000000000000000000004F
:10714000000000000000000000000000000000003F
:10715000000000000000000000000000000000002F
:10716000000000000000000000000000000000001F
:10717000000000000000000000000000000000000F
:1071800000000000000000000000000000000000FF
:1071900000000000000000000000000000000000EF
:1071A00000000000000000000000000000000000DF
:1071B00000000000000000000000000000000000CF
:1071C00000000000000000000000000000000000BF
:1071D00000000000000000000000000000000000AF
:1071E000000000000000000000000000000000009F
:1071F000000000000000000000000000000000008F
:10720000354936480A1A02D0072291438D4634493F
:1072100034480A1A06D00722914381F309880222D2
:1072200082F3148830483149314A00F044F831483B
:107230003149324A00F03FF831483249324A00F0D1
:107240003AF832483249334A00F035F83248334987
:10725000334A00F030F833483349344A00F02BF811
:1072600033483449344A00F026F83448344900227F
:1072700000F02CF833483449002200F027F8334856
:107280003349091A082902DB002202604160314AB1
:1072900090471F481F49884205D00268043003B454
:1072A000904703BCF7E700208646EC46002000210B
:1072B000294A9047FEE7884207D0521A05D0037842
:1072C00001300B700131013AF9D17047884202D088
:1072D00002700130FAE770470000042000E003204C
:1072E0000000042000000420346C03000023002070
:1072F000AC230020D0730200D0730200484D03007D
:10730000346C030000230020002300204C4E0300B7
:107310004C4E03004C4E03004C4E03004C4E0300F9
:107320004C4E03004C4E03004C4E0300346C0300E3
:10733000E06C0300AC230020AC230020AC23002031
:10734000F82D0020F82D0020FC2D0020FC2D002021
:10735000FC4D00209D73020055140300FEE7FEE77C
:10736000FEE7FEE7FEE7FEE7FEE7FEE7FEE7FEE7F5
:1073700000F002B8FFF7FCBF0F484FF00701884349
:1073800085460E4880470E48016841F4700101604F
:10739000BFF34F8FBFF36F8FFFF732BF09480A4922
:1073A0000A4A884207D0521A05D0037801300B7080
:1073B0000131013AF9D170470000042009BD0200F3
:1073C00088ED00E04C4E0300002300200023002045
:1073D00000487047F02D002000B5A1B00590049141
:1073E00003920293049803F05BFA039B1593029BAC
:1073F00016930023179300238DF860300023199310
:10740000229B1A9300231F930FA91F9B0822049805
:1074100003F020FB08231F93119B1293BDF840300B
:10742000ADF84C30BDF84230ADF84E3000238DF849
:1074300051309DF83C3003F00303DBB2012B26D121
:107440000F9BC3F395231C939DF83C30C3F3C203F9
:10745000DBB28DF85030BDF83C30C3F38313DBB2A0
:107460001B931B9B9A0009A91F9B049803F0F2FA37
:107470001B9B9B001F9A13441F9312AA09A915ABCB
:10748000009313461B9A1C9800F0E8FF2FE09DF82C
:107490003C3003F00303DBB2022B28D1BDF83E30B1
:1074A000C3F389139BB21E939DF83C30C3F3C20310
:1074B000DBB28DF850301E9B082B28BF08231D938C
:1074C00007A91F9B1D9A049803F0C4FA1F9A1D9BDD
:1074D00013441F931E9A1D9BD31A1E9315AB12AA19
:1074E00007A81D9901F05CF81E9B002BE3D10498BE
:1074F00003F0E5F900BF21B05DF804FB00B583B0EF
:107500000190019B1B781A460C4B9B5C002B05D00D
:10751000019B0433184607F03FFE0BE0019B1B78EC
:107520001A46064B9B5C002B04D1019B0C3318467A
:1075300006F0E8FF00BF03B05DF804FBE02A00207E
:1075400000B587B00390029113468DF807300023F1
:107550000593039B1B781A46114B9B5C002B09D0AB
:10756000039B04339DF807200299184607F06AFE32
:1075700005900FE0039B1B781A46094B9B5C002B80
:1075800008D1039B0C339DF807200299184607F099
:1075900031F80590059B184607B05DF804FB00BF65
:1075A000E02A002082B001900091034B01221A7062
:1075B00000BF02B0704700BFEC23002030B58DB093
:1075C00003468DF807301A4B02AC1D460FCD0FC491
:1075D00095E80F0084E80F00062302934FF0FF3375
:1075E00003934FF0FF3304934FF0FF3305934FF0B5
:1075F000EB7308939DF80730002B01D00D4A00E093
:10760000002202AB19460C4805F014F80B900B9BB6
:107610000A930A9B002B04D0084A43210A9801F0E0
:10762000F9F8074A9DF80730137000BF0DB030BD60
:10763000AC4E0300A5750200002300204C4E030051
:10764000ED23002000B583B001238DF807309DF8AD
:1076500007301846FFF7B2FF00BF03B05DF804FB28
:1076600000B589B0039002910192019B8DF81F3003
:10767000124B00221A709DF81F301A4602991048CA
:10768000FFF75EFF0690069B0593059B002B04D039
:107690000C4A5321059801F0BDF800BF0A4B1B7836
:1076A000002B07D0054B1B78DBB283F00103DBB264
:1076B000002BF3D100BF09B05DF804FBEC230020E0
:1076C000002300204C4E0300ED23002000B585B0C0
:1076D00003900291054B00934023054A02990398B9
:1076E000FFF77AFE00BF05B05DF804FB617602008B
:1076F000AC23002082B0019000BF02B070470000B0
:1077000000B583B001900548FFF7F8FE0020FFF7B1
:1077100055FF00BF03B05DF804FB00BF002300204D
:1077200082B00190019BDB6801225A7100BF02B058
:107730007047000000B583B04FF0FF330193FFF7AF
:1077400081FF0421084800F0A3FD0190019B002B5C
:1077500003DA0649482009F00FF90348FFF7E0FF74
:1077600000BF03B05DF804FB3C4E0300EC4E030089
:1077700000B583B001900091019B1B681B680099C4
:107780000198984700BF03B05DF804FB00B583B0D3
:107790000190019B1B685B680198984700BF03B08C
:1077A0005DF804FB00B583B00190019B1B689B68EA
:1077B0000198984700BF03B05DF804FB82B00190C8
:1077C0000B468DF80330019BDB689DF803201A718E
:1077D00000BF02B0704782B00190019BDB681B794B
:1077E000184602B0704782B00190019BDB6801220D
:1077F0005A7100BF02B0704782B00190019BDB68F4
:107800005B79184602B0704700B585B001900091D1
:10781000154BFF229A60144B00221A60124B002273
:107820005A60114B0022C3F818240F4B0022C3F8F2
:1078300014240D4B002283F820240C4802F094FFFE
:107840000390039B002B01D0039B08E0084803F042
:10785000BFF9084A084BD31ADB08029300231846E5
:1078600005B05DF804FB00BF58250020984D0300CB
:10787000504F03003C4E0300AC4D0300024A034B43
:10788000D31ADB08184670473C4E0300AC4D03008A
:1078900000B587B001900B468DF803309DF803309A
:1078A000002B1FD0FFF7EAFF04900023059313E09D
:1078B000059B9B000E4A13440393039B1B881A46A7
:1078C000019B1B689A4204D1019B059A1A60002310
:1078D00009E0059B01330593059A049B9A42E7D37F
:1078E000052300E00023184607B05DF804FB00BF45
:1078F0000023002000B585B001900B468DF80330C1
:107900009DF8032001AB11461846FFF7C1FF03465F
:10791000002B07D1019BDB00054A13440393039B13
:107920001B6800E00023184605B05DF804FB00BFAB
:10793000AC4D030084B001900B468DF80330019BE1
:10794000DB00174A134402939DF80330013B032BDD
:107950001CD801A252F823F0697902007179020063
:10796000797902008379020002238DF80F3011E04B
:1079700004238DF80F300DE0029B1B798DF80F303A
:1079800008E0029B5B798DF80F3003E000238DF84F
:107990000F3000BF9DF80F30184604B0704700BF8D
:1079A000AC4D030084B00190009100238DF80F309E
:1079B000019B1B7803F00403DBB2002B24D0019B56
:1079C0001B78C3F30103DBB2012B02D0022B0CD0D6
:1079D00017E0009B1B68019A1288C2F38312D2B28F
:1079E00013449A1C009B1A600BE0009B1B68019AD1
:1079F0005288C2F3891292B213449A1C009B1A60F7
:107A000000BF01238DF80F309DF80F30184604B0E9
:107A10007047000000B58BB00023ADF826303E481B
:107A200002F0AEF93D4802F0ABF93D4B5B680493C0
:107A30003B4B9B680693049A069B134002339B00C2
:107A4000374A13440433089304AB19460898FFF7E8
:107A5000A9FF0346002B09D0049A069B134002336A
:107A60009B002F4A134404330893EDE700BF002323
:107A7000079311E0049B5A1C0492069A1340079A3C
:107A8000920001A90A44264902339B000B445B681B
:107A90001360079B01330793079B012BEAD99DF8DD
:107AA0000430C3F30103DBB2012B10D0022B1CD135
:107AB000BDF80A30ADF82630BDF80630C3F389139F
:107AC0009BB203339A08049B1344049313E0BDF85C
:107AD0000A30ADF82630BDF80430C3F38313DBB2AF
:107AE0001A46049B1344049305E00E494FF4BF70FB
:107AF00008F042FF00BF094802F04EF90590059BCF
:107B0000002B02D0049B064A5360BDF8263018466D
:107B10000BB05DF804FB00BF702900206C29002029
:107B200058250020604F030000B585B000210748AC
:107B300002F097F80390039B0293029B83F31003D8
:107B40000193019B184605B05DF804FB74290020E1
:107B500000B589B00390029101920093039B1B0C26
:107B60000793FFF7E1FF0690FFF788FE0246079BA9
:107B7000934204D3214940F2A31008F0FDFE069B76
:107B80001904009B5A1C0A9B1340079A0A431C497C
:107B900002339B000B445A60009A0A9B1340023345
:107BA0009B00174A134404330593039B03F0070318
:107BB000D9B2059A137861F3C5031370019B03F0E2
:107BC0000F03D9B2059A138861F389131380029BBE
:107BD000C3F31501059A136861F39F231360059A97
:107BE0001378012161F301031370059A13786FF381
:107BF0008203137000BF09B05DF804FB604F0300FF
:107C00005825002000B58DB00390029113468DF8E1
:107C10000730039B02330A9301238DF8273000239A
:107C20008DF81B300DF11B03184601F0ADFA404BE7
:107C30001A68029B1A603E4B9A683D4B59683C4B50
:107C40001B68CB1A134401330B9314E0012139480C
:107C500002F066F8FFF7DEFE07900799354802F05C
:107C60005FF8334B9A68324B5968314B1B68CB1A1B
:107C7000134401330B930A9A0B9B9A42E6D89DF862
:107C80002730002B48D0002305939DF80730002BA8
:107C900017D09DF81430012262F301038DF81430DF
:107CA0009DF8143043F004038DF81430039B03F067
:107CB0000F03DAB2BDF8143062F38913ADF8143053
:107CC00016E09DF81430022262F301038DF814309F
:107CD0009DF8143043F004038DF81430039BC3F374
:107CE00009039AB2BDF8163062F38F13ADF816305F
:107CF0000F4B1A680E4B9B68134002339B000C4AD3
:107D0000134404330893059A089B1A60084B1A68B9
:107D10000A9B1344064A13609DF81B30184601F075
:107D200049FA9DF8273018460DB05DF804FB00BFF6
:107D3000582500207429002000B58BB005900491CF
:107D4000039202931F4B9B68079306AB01221946CF
:107D50000298FFF757FF0346002B24D0069B0233FF
:107D600009930023089311E0089B9B00039A1A448F
:107D7000099B591C099107990B401268114902335C
:107D80009B000B445A60089B01330893089A029B9E
:107D90009A42E9D3069A079B00931346029A0499E4
:107DA0000598FFF7D5FE074B93F82034002B05D03C
:107DB00000BF00F065F80346002BFAD100BF0BB0FE
:107DC0005DF804FB5825002000B583B001900091B8
:107DD0000023002200990198FFF7AEFF00BF03B017
:107DE0005DF804FB00B587B0039002910192019BFE
:107DF000059305AA012302990398FFF79DFF00BF91
:107E000007B05DF804FB00B587B0039002910192C2
:107E10000093019B0493009B059304AA02230299FB
:107E20000398FFF789FF00BF07B05DF804FB00B5BA
:107E30008BB00390029101920093019B0593009BEC
:107E400006930C9B07930D9B08930E9B099305AA21
:107E5000052302990398FFF76FFF00BF0BB05DF891
:107E600004FB0000054B5A68044B1B689A420CBF88
:107E700001230023DBB21846704700BF58250020BD
:107E800000B599B0FFF7EEFF0346002B01D00023A9
:107E9000BEE19B4B0022C3F81824BFF34F8F00BFF5
:107EA000974B5B680493964B9B681093049A109BC6
:107EB000134002339B00924A13440433119300236E
:107EC00017930023169300230F9304AB19461198C0
:107ED000FFF768FD0346002B19D0894BD3F81834FF
:107EE000002B14D1864B1A68049B9A4205D8844B08
:107EF0001B68834A536000238AE1049A109B134055
:107F000002339B007E4A134404331193DDE70023C0
:107F1000159311E0049B5A1C0492109A1340159A71
:107F2000920001A90A44764902339B000B445B6826
:107F30001360159B01331593159B012BEAD99DF80E
:107F4000043003F00303DBB2022B40F09C80BDF849
:107F50000630C3F389139BB20D93BDF80630C3F30B
:107F600089139BB2502B28BF50239BB20C930C9BC0
:107F7000C3F309039AB2BDF8063062F38F13ADF86C
:107F800006300C9B08330B939DF80430C3F3C203F7
:107F9000DBB20F930B995B4802F0F1FB1790179B34
:107FA000002B00F0D180179802F07AFC01A9169BF3
:107FB0000822179802F030FD169B08331693049B95
:107FC000DA43109B134001339B000A930C9A0A9BDF
:107FD0009A4242D90A9B002B08D0049A109B134066
:107FE00002339B00464A1344043300E0464B089397
:107FF0000A9B002B02D00A9BDBB201E00C9BDBB298
:108000008DF81F300A9B002B01D03F4B00E000236E
:1080100006930A9B002B06D00C9BDAB20A9BDBB2BC
:10802000D31ADBB200E000238DF817309DF81F2033
:10803000169B0899179802F0EFFC9DF81F30169ACE
:1080400013441693069B002B16D09DF81720169B01
:108050000699179802F0E0FC0EE0049A109B13407A
:1080600002339B00264A134404330993169B0C9A4F
:108070000999179802F0D0FC0D9B03339A08049BD2
:108080001344049360E09DF8043003F00303DBB273
:10809000012B59D1BDF80430C3F38313DBB2062B97
:1080A00028BF0623DAB2BDF8043062F38913ADF8B5
:1080B0000430BDF80430C3F38313DBB202330E93F4
:1080C0009DF80430C3F3C203DBB20F930E9B9B00F9
:1080D00019460C4802F053FB1790179B002B33D026
:1080E000179802F0DDFB01A9169B0822179802F0F1
:1080F00093FC169B08331693002315931BE000BFD7
:1081000058250020984D030064250020049B5A1C2C
:108110000492109A134002339B003F4A1344191DE6
:10812000169B0422179802F077FC169B04331693D3
:10813000159B01331593BDF80430C3F38313DBB2F1
:108140001A46159B9342E1D3179B002B40D0324B2C
:10815000D3F810341493304BD3F81834002B1BD0C1
:10816000179802F0ACFB4DE000238DF84F301498C7
:10817000FFF742FB0346002B02D001238DF84F305E
:108180009DF84F30002B03D017991498FFF7F0FAA1
:10819000149BDB681B681493149B002BE4D1179885
:1081A00002F08DFB00238DF803300DF10303184618
:1081B00000F0EAFF184BD3F81834002B02D1049BCF
:1081C000154A53609DF80330184600F0F3FF19E09C
:1081D000114BD3F81034129306E01298FFF7E2FA2D
:1081E000129BDB681B681293129B002BF5D10B4A84
:1081F0000B4BD31ADB081B0443F002030949184652
:10820000FFF7E2FDFFF72EFE034683F00103DBB22A
:10821000184619B05DF804FB58250020EC4D03000A
:10822000AC4D0300BC4F030000B585B000230393A1
:1082300023E0164BD3F81034029301238DF8073056
:108240000FE00298FFF7C7FA03461A46039B9342D2
:1082500003D100238DF8073006E0029BDB681B6822
:108260000293029B002BECD19DF80730002B01D02C
:10827000039B07E0039B01330393039B092BD8DD8A
:108280004FF0FF33184605B05DF804FB5825002079
:1082900000B585B001900B468DF80330FFF7C4FFA1
:1082A0000390039BB3F1FF3F01D1039B22E0039BAB
:1082B000DBB219460198FFF781FA104BD3F810345E
:1082C000002B08D10D4A019BC2F81034019BDB68DA
:1082D00000221A600DE0094BD3F81034DA68019BD4
:1082E000DB6812681A60054BD3F81034DB68019A1A
:1082F0001A60039B184605B05DF804FB5825002062
:1083000000B583B00D4BD3F8103401930B4B012211
:1083100083F8202409E00198FFF765FA0198FFF738
:1083200035FA019BDB681B680193019B002BF2D19E
:1083300000BF00BF03B05DF804FB00BF582500205C
:1083400082B00190009100BF02B0704710B584B0B8
:1083500003900291039BDB88002B0AD0039BDB88F0
:108360001A461F4B009313461E4A1F49029801F0FC
:108370004FFE039B1B7A052B2ED0039B5B7A002BB1
:1083800012D0039B9B881A46039B1B7A1946104602
:10839000FFF7D0FA03461A46144B53F822301A4618
:1083A0001349029801F034FE039B1B68194602989A
:1083B000FFF7C6FF039B1B7A1A460E4B53F8224069
:1083C000039B9B8800211846FFF794FA0346224638
:1083D0000949029801F01CFE00BF04B010BD00BFA7
:1083E000F04F0300005003003850030030230020FA
:1083F000505003001C2300205450030000B585B0EA
:108400000390029113468DF80730039B1B7A052BCE
:108410000FD0039B5B7A002B06D00D4B1B681A46CE
:108420000C49029801F0F4FD0B49029801F0F0FDAF
:1084300007E09DF80730002B03D00749029801F0B0
:10844000E7FD029801F0C2FD00BF05B05DF804FB36
:1084500030230020505003006050030030B58BB033
:1084600007900691059204930E9B1B7B8DF8273095
:108470000E9B00221A730E990498FFF767FF059B65
:10848000062B7FD801A252F823F000BFA984020076
:10849000B3840200C3840200D7840200F584020082
:1084A0001D8502004D85020007990E9801F0B0FD70
:1084B00069E0069B1B681A4607990E9801F0A8FD13
:1084C00061E0069B1A68069B04331B6807990E98A7
:1084D00001F09EFD57E0069B1A68069B043319685D
:1084E000069B08331B6800930B4607990E9801F012
:1084F0008FFD48E0069B1968069B04331868069BAD
:1085000008331B68069A0C321268019200930346E6
:108510000A4607990E9801F07BFD34E0069B186827
:10852000069B04331C68069B08331B68069A0C32B2
:10853000126806991031096802910192009323464E
:10854000024607990E9801F063FD1CE0069B1C682B
:10855000069B04331D68069B08331B68069A0C3281
:108560001268069910310968069814300068039063
:108570000291019200932B46224607990E9801F032
:1085800047FD00E000BF00220E990498FFF736FF78
:108590000E9B9DF827201A7300BF0BB030BD00BFA3
:1085A00000B587B00390029101920093029B082BC3
:1085B00060D8009B1B7B8DF81330009B00221A7340
:1085C00000990198FFF7C2FE0023059314E0059A75
:1085D000029B9A4209D2039A059B13441B781A46C0
:1085E0002649009801F014FD03E02549009801F0A8
:1085F0000FFD059B01330593059B072BE7D9214907
:10860000009801F005FD0023059326E0059A029BE2
:108610009A421BD2039A059B13441B788DF81230A3
:108620009DF812307E2B0AD89DF8123018460CF0B7
:10863000EFFA0346002B02D09DF8123000E02E2303
:108640001A461149009801F0E3FC03E00F49009835
:1086500001F0DEFC059B01330593059B072BD5D963
:10866000012200990198FFF7C9FE009B9DF8132095
:108670001A7300E000BF07B05DF804FB645003000C
:108680006C500300705003007450030078500300D6
:1086900000B583B0114B1B68002B04D1104940F288
:1086A000351008F069F9002301930CE00B4B1A68B0
:1086B000019BDB0013441B780121184605F0AEF83E
:1086C000019B01330193074B1B781A46019B934290
:1086D000ECD30023184603B05DF804FB7C2900208E
:1086E000885003008029002000B583B01D4B1B6813
:1086F000002B04D11C4940F2431008F03DF900233F
:1087000001930BE0174B1A68019BDB0013441B78A5
:10871000184605F00BF9019B01330193134B1B78AD
:108720001A46019B9342EDD300238DF803300DF1DF
:108730000303184600F028FD0D494FF000024FF0EA
:108740000003C1E900239DF80330184600F032FD14
:10875000084B184600F072FC0346184603B05DF85B
:1087600004FB00BF7C2900208850030080290020E2
:10877000A82900208829002086B003900291019248
:1087800001238DF817309DF81730214A039B1360A1
:108790001F4A029B53601E4A019B9360039B44F255
:1087A0000102934213D0039B44F20202934221D16F
:1087B000019B174AD360164BDB681B881A46144B83
:1087C0009A61134BDB685B68114AD36112E0019B2D
:1087D0000F4A13610E4B1B699B680D4A53610C4B8A
:1087E0001B691B680A4A9361094B1B695B68084A4D
:1087F000D36100BF72B600BF00BF9DF81730DBB277
:10880000002BFAD162B600BF00BF06B0704700BFB0
:10881000B029002000B583B002900091019244F28B
:10882000010071466A4600F003F803B000BD00BFC6
:1088300030B58BB007900691059272B600BFFFF776
:108840005FFD00BFFFF71CFB0346002BFAD1079B1F
:1088500044F2020293422FD0079B44F20202934259
:1088600069D8079B44F20102934237D0079B44F238
:10887000010293425FD8079B012B05D0079B41F271
:10888000010293420CD056E0394A3A4BD31ADB0826
:108890001B0443F0010338491846FFF795FA57E0E7
:1088A000334A344BD31ADB081B0443F0010333492A
:1088B0001846FFF789FA4BE0059B09932C4A2D4B8C
:1088C000D31ADB081B0443F00100099B5B681A46BE
:1088D000099B1B882A49FFF796FA39E0059B089304
:1088E000234A244BD31ADB081B0443F00104089BE2
:1088F0009D68089B9B68184602F08AFA0346184652
:10890000089B5B681946089B1B68069A02920193B4
:10891000009103462A461B492046FFF788FA144A6D
:10892000144BD31ADB081B0443F001031649184605
:10893000FFF74AFA0CE00E4A0E4BD31ADB081B0471
:1089400043F00103069A11491846FFF74BFA00BF9E
:108950000F4B1B6803F00103002B00D000BE059AEB
:1089600006990798FFF708FF00BF0BB030BD00BFA6
:10897000EC4D0300AC4D0300DC500300FC50030041
:10898000205103003C51030064510300785103005F
:10899000F0ED00E0F0B583B0124800F0EFFF0346C1
:1089A00018464FF00001104BD3E90023861841EB25
:1089B0000307CDE900670D4BD3E90023DDE9000192
:1089C000994208BF904207D2DDE9002312F180747A
:1089D00043F10005CDE90045DDE9002310461946C5
:1089E00003B0F0BD54230020D8290020E029002046
:1089F00088B001900091019B0793009B0693079B11
:108A0000D3E90223CDE90423069BD3E90223CDE970
:108A10000223DDE90423DDE90201994208BF904207
:108A20002CBF01230023DBB2184608B070470000BA
:108A300030B585B00190019B5B69002B03D12B49B8
:108A4000A22007F099FF00238DF80F30284B1B78E8
:108A5000002B45D0019B002B42D0019B1B7FDBB23A
:108A6000002B3DD0FFF796FF019BD3E902239942EB
:108A700008BF90422CD3019B1B69002B02D1019BA4
:108A800000221A77019B5B69019A92691046984708
:108A9000019B1B69002B23D0019B1B7FDBB2002BAA
:108AA0001ED0019BD3E90201019B1B691A464FF0BE
:108AB0000003841841EB0305019BC3E90245019BB8
:108AC00019460C4802F0FEF801238DF80F3007E03C
:108AD000019B1946074802F0F5F801238DF80F3085
:108AE0009DF80F30184605B030BD00BF9C51030003
:108AF000D4290020F4510300F0B589B00190009111
:108B00000D230793009B00221A70019BD3E90245B5
:108B1000FFF740FF02460B46A61A65EB0307CDE9B7
:108B20000467DDE90423012A73F100031BDB049BC6
:108B3000B3F5350F05D300F0A9FA0246154B1344DF
:108B400003E0019BD3E90223134603934FF49603FA
:108B5000039A0021104800F013FE0790079B002B9A
:108B600005D1012313E000210B4800F0E1FE079B33
:108B70000D2B07D10198FFF75BFF03461A46009BB8
:108B80001A7003E00549F52007F0F6FE00231846A9
:108B900009B0F0BDFFFFB400542300209C51030036
:108BA00000B583B0044802F0C7F80190019B184655
:108BB00003B05DF804FB00BFF451030000B583B0BF
:108BC000044802F0DBF80190019B184603B05DF801
:108BD00004FB00BFF451030000B583B0FFF7E0FFD2
:108BE0000190019B002B02D0019B00221A77019B70
:108BF000002BF3D100BF00BF03B05DF804FB000001
:108C0000054BD3E9002312F1807043F10001024BC0
:108C1000C3E9000100BF7047D829002000B583B028
:108C20000190134B1B68002B1DD0019800F0A6FE8D
:108C30000F4B1B68D3E90223134623F07F431946E9
:108C400000F018FA0346B3F5960F04D309494FF420
:108C5000957007F091FE064B1B681846FFF7E8FE7B
:108C6000034B00221A6000BF03B05DF804FB00BF95
:108C7000D02900209C51030000B583B00190FFF77C
:108C800089FE02460B460349C1E9002300BF03B039
:108C90005DF804FBE029002000B585B00190FFF7E6
:108CA0008DFF039000238DF80B30039B002B48D0E1
:108CB0002B4B1B68002B03D101238DF80B3019E0DF
:108CC000039BD3E90201264B1B68D3E90223994297
:108CD00008BF90420ED201238DF80B30204B1B6849
:108CE0001B7FDBB2002B05D01D4B1B6819461D48AE
:108CF00001F0E8FF9DF80B30002B2AD0FFF750FF62
:108D000003900DF10A0319460398FFF7F5FE034699
:108D1000002B12D0124B1B68002B02D1019800F0DF
:108D20003BFC0F4A039B13609DF80A3083F001035C
:108D3000DBB2002BB3D000BF0EE0094B00221A605B
:108D4000ADE7074B1B68002B05D1019800F03AFCFA
:108D500001E000BF00E000BF00BF05B05DF804FB0C
:108D6000D0290020F451030000B587B001902C4AAF
:108D700003AB1946104600F0FEFE059048E0059B47
:108D80001B78022B2ED0022B32DC002B02D0012BC1
:108D900014D02DE0059B5B681B7FDBB283F00103E1
:108DA000DBB2002B26D0059B5B6801221A77059B5E
:108DB0005B6819461B4801F085FF1BE0059B5A685C
:108DC000194B1B689A4203D1174B00221A6012E01C
:108DD000059B5B681946134801F0E4FF03468DF8D4
:108DE000133008E0FFF7F8FE104B01221A7002E082
:108DF00000BF00E000BF0A4A03AB1946104600F06E
:108E0000D3FE074A03AB1946104600F0B4FE0590A6
:108E1000059B002BB3D100BF00BF07B05DF804FB7A
:108E2000402A0020F4510300D0290020D42900203A
:108E300000B583B00190019800F06DFD0346002B52
:108E400001D0FFF7DDFE0021019800F082FD03460E
:108E5000002B02D00198FFF7E1FE0121019800F0FC
:108E600078FD0346002B02D00198FFF705FF01981B
:108E7000FFF77AFF0198FFF70FFF00BF03B05DF81F
:108E800004FB000008B5024800F085FD00BF08BDE6
:108E90005423002000B585B0034600918DF80730BB
:108EA000114A02AB1946104600F038FE0390039BAE
:108EB000002B13D0039B9DF807201A70039B009A88
:108EC0005A60094A02AB1946104600F040FE0346BC
:108ED000002B01D0FFF7D6FF002300E00423184643
:108EE00005B05DF804FB00BF402A002000B583B048
:108EF000164B1B680093164808235822154900F0AA
:108F0000DAFD0190019B002B01D0019B19E06B461B
:108F1000114A1946114800F0C1FA0190019B002B3B
:108F200001D0019B0DE001210C4800F0E3FC01237E
:108F30000B4A0121094800F05BFB0A4B01221A7021
:108F4000019B184603B05DF804FB00BFF05103001D
:108F5000402A0020E8290020318E020054230020FE
:108F6000FFFF7F00D429002000B587B003900B4697
:108F700001928DF80B30039B002B04D1134940F272
:108F80002E2007F0F9FC019B002B04D10F4940F281
:108F90002F2007F0F1FC019B002B01D1072310E0EB
:108FA000039B1B680593059B019A5A619DF80B3042
:108FB000012B0CBF01230023DBB21A46059B1A616B
:108FC0000023184607B05DF804FB00BF9C51030066
:108FD00030B587B0039002910192039B002B04D11E
:108FE000154940F23E2007F0C7FC039B0593059B03
:108FF0001B7FDBB2002B01D000231AE0059B019AF6
:109000009A61FFF7C7FC029B1A464FF000038418D1
:1090100041EB0305059BC3E90245059B1B69002B3A
:1090200002D0059B029A1A6105990020FFF732FFD2
:109030000346184607B030BD9C51030000B585B00B
:109040000190019B002B04D109494FF4157007F0E2
:1090500093FC019B0393039B00221A770399012041
:10906000FFF718FF0346184605B05DF804FB00BF84
:109070009C51030082B001900091019A009BD31A89
:1090800023F07F43184602B07047000008B503483C
:1090900000F074FC0346184608BD00BF54230020AE
:1090A00082B0EFF310830093009B019372B600BF70
:1090B000019B184602B0704762B600BF00BF704700
:1090C00000B585B00190FFF7EBFF0390164B9B684E
:1090D000002B1BD1144B01229A60144BD3F8802033
:1090E000134B1340104A1360104B114AC3F88020F1
:1090F0000E4BD3F884300C4A53600C4B4FF0FF32C8
:10910000C3F88420019B00221A7002E0019B012217
:109110001A70039B002B01D1FFF7CEFF00231846E6
:1091200005B05DF804FB00BF542A002000E100E018
:10913000FC06FFBD00B585B003468DF80730104B27
:109140009B68002B16D09DF80730002B12D1FFF73B
:10915000A7FF03900B4A0A4B1B681360094A084B90
:109160005B685360064B00229A60039B002B01D181
:10917000FFF7A2FF0023184605B05DF804FB00BF0F
:10918000542A002000E100E000B583B0019000F017
:109190002BF80346012B03D00549432007F0ECFBD5
:1091A0000198FFF78DFF00BF03B05DF804FB00BF1F
:1091B0000052030000B583B003468DF8073000F07D
:1091C00013F80346012B03D00649512007F0D4FBC6
:1091D0009DF807301846FFF7ADFF00BF03B05DF8FC
:1091E00004FB00BF0052030084B0EFF3058301933A
:1091F000019BC3F308030393039B002B0DD1EFF3F3
:1092000014830093009B0293029B03F00103002B45
:109210000CBF01230023DBB200E00123184604B099
:109220007047000082B003468DF807309DF8073084
:1092300003F01F0205499DF907305B09012000FA80
:1092400002F241F8232000BF02B0704700E100E0C5
:1092500082B003468DF807309DF8073003F01F02F7
:1092600006499DF907305B09012000FA02F24033FC
:1092700041F8232000BF02B0704700BF00E100E0CA
:1092800082B0034600918DF807309DF90730002B1E
:109290000CDA009BDAB20C499DF8073003F00F039B
:1092A000043B5201D2B20B441A7609E0009BDAB2B9
:1092B00006499DF907305201D2B20B4483F80023CE
:1092C00000BF02B0704700BF00ED00E000E100E029
:1092D00000B583B003460A468DF8073013468DF873
:1092E00006309DF80630012B03D99DF80630032B7C
:1092F0000BD99DF80630042B03D99DF80630072BB7
:1093000003D908496B2007F037FB9DF806209DF92B
:10931000073011461846FFF7B3FF00BF03B05DF8F2
:1093200004FB00BF5852030000B583B003468DF81C
:1093300007309DF907301846FFF774FF00BF03B0F0
:109340005DF804FB00B585B00190019B002B0AD0AD
:10935000074B43F001030393019B9B010293039B83
:109360000298984700E000BF05B05DF804FB00BF1D
:109370006053030084B0039002910192039B029A10
:1093800002F5A872019943F8221000BF04B070479B
:1093900082B001900091019B009A02F5A87253F8E7
:1093A0002230184602B0704782B001900091019BB4
:1093B000009AC3F8042300BF02B0704782B0019046
:1093C0000091019B009AC3F8082300BF02B07047C8
:1093D00082B001900B46ADF80230BDF80230019A20
:1093E00013441B68184602B0704784B001900B46C6
:1093F000ADF80230BDF80230019A134400221A6021
:10940000BDF80230019A13441B680393039B00BF0D
:1094100004B0704782B00190019BD3F80435184620
:1094200002B0704700B583B001900091009BB3F586
:10943000805F04D306494FF4BE7007F09DFA019B8C
:10944000009AC3F8082500BF03B05DF804FB00BF15
:109450009052030082B001900B468DF803309DF8C6
:109460000320019B13441A460123136000BF02B07E
:10947000704782B001900091019B009AC3F8442389
:1094800000BF02B0704782B001900091019B009A2A
:10949000C3F8482300BF02B07047000000B587B092
:1094A000039002910192039B002B03D13349552075
:1094B00007F062FA029B002B03D13049562007F0D7
:1094C0005BFA019B002B03D12C49572007F054FA7B
:1094D000039B5B7919462A4A019B42F82130039B82
:1094E0005B79284ADB0013441B79002B0ED008233C
:1094F0000593254A254BD31ADB081B0443F00203CE
:1095000023491846FEF760FC059B32E0039B1A686E
:10951000029B1B8819461046FFF784FF039B93F9B3
:109520000420029B9B7819461046FFF7D1FE039B4F
:1095300093F904301846FFF7F7FE039B5B79114A55
:10954000DB00134401221A71039B5B7919460D4A13
:10955000039B42F83130002305930B4A0B4BD31A7F
:10956000DB081B0443F003030A491846FEF72CFCF2
:10957000059B184607B05DF804FB00BFC45203000A
:10958000602A0020642A0020FC4D0300AC4D03003B
:10959000145303003853030000B583B00190019BBE
:1095A000002B03D10649872007F0E6F9019B1B68D1
:1095B00000211846FFF74EFF00BF03B05DF804FB23
:1095C000C452030000B583B00190019B002B03D16E
:1095D00006498D2007F0D0F9019B1B68042118462D
:1095E000FFF738FF00BF03B05DF804FBC45203006F
:1095F00000B587B00390029101928DF80330039B70
:10960000002B03D12149962007F0B6F94FF48032A0
:10961000029B02FA03F30593029B50339BB29B001B
:10962000ADF81230019B23F07F430193039B1B682D
:1096300005991846FFF7C2FE039B1B68059918465B
:10964000FFF721FF039B1B68BDF812201146184647
:10965000FFF7CBFE039B1B68019A02991846FFF7A0
:1096600089FE039B1B6805991846FFF702FF9DF8CA
:109670000330002B05D0039B1B6805991846FFF7A4
:1096800093FE00BF07B05DF804FB00BFC4520300A7
:1096900000B585B00390029113468DF80730039B07
:1096A000002B03D10B49A92007F066F9039B1B6827
:1096B00002991846FFF7DDFE9DF80730002B05D014
:1096C000039B1B6802991846FFF76EFE00BF05B0AA
:1096D0005DF804FBC452030000B583B00190009113
:1096E000019B002B03D10A49B32007F045F9019BE8
:1096F0001B6800991846FFF7C6FE019B1B6800997E
:109700001846FFF75BFE00BF03B05DF804FB00BF27
:10971000C452030000B583B001900B46ADF802308F
:10972000019B002B03D10F49BA2007F025F9019BBB
:109730001B68BDF8022011461846FFF749FE034694
:10974000002B09D0019B1B68BDF80220114618466A
:10975000FFF74BFE012300E00023184603B05DF83D
:1097600004FB00BFC452030082B001900091019A33
:10977000009BD31A23F07F43184602B070470000C5
:1097800000B58BB00390029101920093039B002BD4
:1097900003D15749CD2007F0EFF84FF48032029BF8
:1097A00002FA03F30993029B50339BB29B00ADF87E
:1097B0002230019B23F07F43019309990398FFF71F
:1097C0008BFF039B1B681846FFF724FE0790039B43
:1097D0001B6802991846FFF7DBFD0690039B1B6888
:1097E000079A02991846FFF7C5FD039B1B68BDF851
:1097F000222011461846FFF7F8FD07990698FFF753
:10980000B3FF0346012B0AD11020FFF79BFD039BFA
:109810001B68BDF8222011461846FFF7E6FD039BA2
:109820001B681846FFF7F6FD079007990198FFF7A8
:109830009BFF0590039B1B6809991846FFF719FECB
:10984000059B012B15D1039B1868019B01331A4618
:109850000299FFF78FFD1020FFF774FD039B1B6833
:109860001846FFF7D7FD0246079B934235D00D23DC
:1098700039E0039B1B68019A02991846FFF77AFDAD
:10988000039B1B681846FFF7C5FD0790019B013B32
:1098900007991846FFF768FF0590009BC3F1FF1377
:1098A00003F57F43059A9A4201D90D231BE0059BDE
:1098B000002B12D1039B1868019B01331A460299B1
:1098C000FFF758FD039B1B681846FFF7A3FD0246F0
:1098D000079B934201D00D2305E0012209990398CB
:1098E000FFF7D6FE002318460BB05DF804FB00BF5F
:1098F000C452030000B583B001900B468DF80330CD
:109900009DF803301A4602210198FFF7C1FE00BFFF
:1099100003B05DF804FB00B583B001904FF4827191
:109920000198FFF7F7FE0346184603B05DF804FB05
:1099300000B583B0019000914FF48032009B02FA91
:1099400003F319460198FFF7C7FE00BF03B05DF8A7
:1099500004FB00B585B001900091009B50339BB291
:109960009B00ADF80E30BDF80E3019460198FFF798
:10997000D1FE0346184605B05DF804FB00B583B080
:109980000190019B1B681846FFF744FD03461846EB
:1099900003B05DF804FB00B583B00190019B93F91F
:1099A00004301846FFF754FC00BF03B05DF804FB19
:1099B00008B5044B1B68044A12681046984700BF5C
:1099C00008BD00BF602A0020642A002086B00190F4
:1099D0000091019B53E8011F8AB2D88902449889FB
:1099E000824228BF121A1889824202BFBFF32F8F0A
:1099F000002307E0C2EA010243E801200028E9D180
:109A00004FF001038DF80F30059002910492029AF5
:109A1000009B1A609DF80F30DBB2184606B0704705
:109A200084B00190019951E8013FC3EA034341E842
:109A30000132002AF7D10392029300BF04B07047AD
:109A400086B001900091019B53E8021F1FFAA1F21A
:109A5000D888824202BFBFF32F8F00230DE0D88940
:109A600002449889824228BF121AC1EA024243E89E
:109A700002200028E8D14FF001038DF80F30059047
:109A800002910492029A009B1A609DF80F30DBB29B
:109A9000184606B0704784B00190019951E8023F22
:109AA000C3EA234341E80232002AF7D1039202932A
:109AB00000BF04B0704784B00390029111461A466B
:109AC0000B46ADF806301346ADF80430029B002B70
:109AD00001D10E231FE0BDF80630BDF80420B3FB12
:109AE000F2F102FB01F29B1A9BB2002B01D0092379
:109AF00011E0039B029A1A60039B00225A60039BA9
:109B000000229A60039BBDF806209A81039BBDF852
:109B10000420DA810023184604B0704700B585B0F0
:109B200001900091009B19460198FFF74FFF0346F3
:109B3000002B07D0019B1B68009A128813440393E3
:109B4000039B00E00023184605B05DF804FB00B558
:109B500083B001900091009B1A88009B5B889A4219
:109B600004D10198FFF75CFF012300E000231846B1
:109B700003B05DF804FB00B585B001900091009B37
:109B800019460198FFF75CFF0346002B07D0019BA5
:109B90001B68009A528813440393039B00E0002340
:109BA000184605B05DF804FB00B583B00190009144
:109BB000009B1A88009B5B889A4204D10198FFF7AA
:109BC0006AFF012300E00023184603B05DF804FBA0
:109BD00000B585B001900091009B5B099B00019A44
:109BE0001A44009B03F01F03012101FA03F31946F5
:109BF000104600F04DF8039000BF05B05DF804FB7F
:109C000000B585B001900091009B5B099B00019A13
:109C10001A44009B03F01F03012101FA03F3DB4305
:109C20001946104600F064F8039000BF05B05DF8D7
:109C300004FB82B001900091009B5B099B00019A9C
:109C400013441A68009B03F01F0322FA03F303F086
:109C50000103002B14BF01230023DBB2184602B01E
:109C6000704710B487B001900091019B009A53E8AF
:109C7000004F104643E8000191F0000FF7D1059422
:109C800004900391059B184607B05DF8044B70479C
:109C900010B487B001900091019B009A53E8004FE7
:109CA00044EA020043E8000191F0000FF6D1059468
:109CB00004900391049B184607B05DF8044B70476D
:109CC00010B487B001900091019B009A53E8004FB7
:109CD00004EA020043E8000191F0000FF6D1059478
:109CE00004900391059B184607B05DF8044B70473C
:109CF00010B487B001900091019B009A53E8004F87
:109D000004EA020043E8000191F0000FF6D1059447
:109D100004900391049B184607B05DF8044B70470C
:109D200010B487B001900091019B009A53E8004F56
:109D300004EB020043E8000191F0000FF6D1059416
:109D400004900391049B184607B05DF8044B7047DC
:109D500010B487B001900091019B009A53E8004F26
:109D6000A4EB020043E8000191F0000FF6D1059446
:109D700004900391049B184607B05DF8044B7047AC
:109D800000B583B0019001210198FFF781FF0346E0
:109D9000184603B05DF804FB00B583B001900021C4
:109DA0000198FFF78DFF0346184603B05DF804FBEA
:109DB00000B583B001900B468DF80330019B002B5A
:109DC00003D10849E82006F0D7FD019BDA689DF829
:109DD00003300199098A01FB03F31344184603B0C9
:109DE0005DF804FB6853030000B583B00190009157
:109DF000019B002B03D10849F52006F0BDFD009B17
:109E0000019AD2689B1A019A128AB3FBF2F3DBB271
:109E1000184603B05DF804FB6853030000B585B035
:109E20000190019B002B01D10E234CE0019B1B688C
:109E3000002B03D12649FF2006F09EFD019B5B68A5
:109E4000002B04D122494FF4807006F095FD019B50
:109E50009B68002B04D11E4940F2011006F08CFDD6
:109E6000019BDB68002B04D119494FF4817006F087
:109E700083FD019B1B8A002B04D1154940F203107E
:109E800006F07AFD019B9A68019B5B68D31A8DF8F6
:109E90000F30019B1B68019A52681A6007E0019B12
:109EA0001A681368591C11609DF80F201A709DF8EC
:109EB0000F305A1E8DF80F20002BF0D1019B1B682C
:109EC00000221A710023184605B05DF804FB00BF9C
:109ED0006853030000B585B00190019B002B04D1AD
:109EE0001F494FF4927006F047FD002303930023AF
:109EF0008DF80A300DF10A031846FFF745F9019B6A
:109F00001B681A68019B5B689A421FD9019B1B68FA
:109F10001A68013A1A601B681B7819460198FFF706
:109F200047FF0390019B9A68019B1B681B68D31A2B
:109F30008DF80B30019B1B681B799DF80B209A4212
:109F400004D9019B1B689DF80B201A719DF80A30FB
:109F50001846FFF72FF9039B184605B05DF804FB80
:109F60006853030010B584B001900091019B002B51
:109F700004D1154940F2471006F0FEFC009B002B6F
:109F800004D111494FF4A47006F0F6FC009B039332
:109F900000238DF80B300DF10B031846FFF7F4F892
:109FA000019B1B681C68621C1A6003990198FFF7EB
:109FB0001BFF034623709DF80B301846FFF7FAF895
:109FC00000BF04B010BD00BF6853030000B583B0EC
:109FD0000190019B002B03D10C49312006F0CCFCF1
:109FE000019B9B68002B0CD0019B5B69019A106957
:109FF000019A1168019A92689847019B00229A6021
:10A0000000E000BF03B05DF804FB00BFBC530300D9
:10A010000EB400B584B00190019B002B03D1184908
:10A02000422006F0A9FC019B5B69002B03D1144977
:10A03000432006F0A1FC019B1B68002B03D11049B3
:10A04000442006F099FC019B5B68002B03D10C496E
:10A05000452006F091FC059B002B0AD000230393BA
:10A0600006AB039303AB1A460599019800F0B8F9C3
:10A0700000E000BF04B05DF804EB03B0704700BF20
:10A08000BC53030000B583B001900B468DF803303C
:10A090009DF803300A2B03D10D210198FFF7F2FF41
:10A0A000019B1A68019B9B68581C019988601344A6
:10A0B0009DF803201A70019B9A68019B5B689A4285
:10A0C00002D30198FFF782FF00BF03B05DF804FBE5
:10A0D00000B587B00390029101920093002305938D
:10A0E000009B03F00103002B24D00BE0029B013303
:10A0F0000293059B013305939DF81330194603988D
:10A10000FFF7C0FF029B1B788DF813309DF81330CA
:10A11000002BEBD106E0019B013B0193202103982A
:10A12000FFF7B0FF019A059B9A422ED9019B002BA5
:10A13000F1D12AE0029B002B0BD002980AF0D4FD4B
:10A14000059006E0019B013B019320210398FFF756
:10A1500099FF019A059B9A420FD9019B002BF1D1DF
:10A160000BE0029B01330293059B013305939DF89D
:10A17000133019460398FFF785FF029B1B788DF873
:10A1800013309DF81330002BEBD100BF07B05DF802
:10A1900004FB000000B589B0039002910192009386
:10A1A000029B07930123069307E0079A019BB2FBEA
:10A1B000F3F30793069B01330693079A019B9A4298
:10A1C000F3D2009A069B9A4201D9009B06930B9BFF
:10A1D00003F00103002B22D10A9B002B1FD00B9B05
:10A1E00003F00203002B06D0009B002B03D1302389
:10A1F0008DF8173002E020238DF8173008E00A9B15
:10A20000013B0A939DF8173019460398FFF73AFF70
:10A210000A9B002B03D0069A0A9B9A42EFD3012394
:10A220000793009B012B03D9009B013B009309E09E
:10A23000029A079BB2FBF3F30493049A019B9A42A0
:10A2400000D205E0079B019A02FB03F30793E8E7BE
:10A25000029A079BB2FBF3F30493049B079A02FB59
:10A2600003F3029AD31A0293154A049B13441B78F2
:10A2700019460398FFF706FF079A019BB2FBF3F319
:10A280000793079B002BE3D10B9B03F00103002BEB
:10A2900011D00A9B002B0ED006E00A9B013B0A93CB
:10A2A00020210398FFF7EEFE0A9B002B03D0069AAD
:10A2B0000A9B9A42F1D300BF09B05DF804FB00BFCE
:10A2C0005854030000B589B005900491039202939D
:10A2D000049B002BB8BF5B4206930123079307E062
:10A2E000039B069A92FBF3F30693079B01330793B4
:10A2F000039B069A9A42F3DA029A079B9A4201D983
:10A30000029B07930A9B002B0AD0049B002B04DBC3
:10A310000B9B03F00403002B02D00A9B013B0A9322
:10A320000B9B03F00203002B02D0029B002B16D0E4
:10A330000B9B03F00103002B11D10A9B002B0ED0C5
:10A3400006E00A9B013B0A9320210598FFF79AFE3D
:10A350000A9B002B03D0079A0A9B9A42F1D3049BD5
:10A36000002B07DA049B5B4204932D210598FFF72D
:10A3700089FE08E00B9B03F00403002B03D02B2184
:10A380000598FFF77FFE0B9B03F00203002B19D00B
:10A390000B9B03F00103002B14D1029B002B11D166
:10A3A0000A9B002B0ED006E00A9B013B0A9330214A
:10A3B0000598FFF767FE0A9B002B03D0079A0A9BBC
:10A3C0009A42F1D304990B9B01930A9B0093029B41
:10A3D000039A0598FFF7DEFE00BF09B05DF804FBA5
:10A3E00000B58FB0059004910392059B002B04D11A
:10A3F000B64940F2522006F0BFFA059B5B69002B7C
:10A4000004D1B2494FF4157006F0B6FA059B1B68EB
:10A41000002B04D1AD4940F2552006F0ADFA059B62
:10A420005B68002B04D1A94940F2562006F0A4FA3B
:10A43000049B002B00F09381049B1B788DF8373030
:10A44000049B013304939DF83730002B00F07E818C
:10A450009DF83730252B40F06D8100230A930123AE
:10A460000C93049B1B788DF837309DF83730302BD8
:10A470000DD0302B1BDC2B2B11D02D2B17D10A9B91
:10A4800043F001030A93049B0133049312E00A9BF7
:10A4900043F002030A93049B013304930AE00A9BEE
:10A4A00043F004030A93049B0133049302E0002366
:10A4B0000C9300BF0C9B002BD3D1002309939DF874
:10A4C00037302A2B0CD1039B1B68191D039A11608E
:10A4D0001B68099A13440993049B013304931AE0FF
:10A4E000049B1B788DF837309DF837302F2B12D90D
:10A4F0009DF83730392B0ED8049B01330493099A09
:10A5000013469B0013445B001A469DF837301344F2
:10A51000303B0993D3E700230B93049B1B788DF802
:10A5200037309DF837302E2B1DD1049B0133049317
:10A53000049B1B788DF837309DF837302F2B12D9BC
:10A540009DF83730392B0ED8049B013304930B9AB6
:10A5500013469B0013445B001A469DF837301344A2
:10A56000303B0B93E4E7049B1B788DF837309DF864
:10A5700037306C2B03D09DF83730682B07D1049B04
:10A5800001330493049B1B788DF83730EFE79DF877
:10A590003730252B00F0C480252BC0F2C680782BE5
:10A5A00000F3C380582BC0F2C080583B202B00F230
:10A5B000BC8001A252F823F0A7A602002BA702003C
:10A5C0002BA702002BA702002BA702002BA702003B
:10A5D0002BA702002BA702002BA702002BA702002B
:10A5E0002BA702003DA602005FA602002BA70200D7
:10A5F0002BA702002BA702002BA702005FA60200D8
:10A600002BA702002BA702002BA702002BA70200FA
:10A610002BA702002BA70200EDA602002BA7020029
:10A620002BA70200D1A602002BA7020083A60200DE
:10A630002BA702002BA70200A7A60200039B1B6802
:10A64000191D039A11601B680C930C9B8DF81F3029
:10A650009DF81F3019460598FFF714FD66E0039B2F
:10A660001B68191D039A11601B680C930A9B0193C8
:10A67000099B00930B9B0A220C990598FFF722FE79
:10A6800054E0039B1B68191D039A11601B680C930F
:10A690000C990A9B0193099B00930B9B0A22059836
:10A6A000FFF778FD42E0039B1B68191D039A1160B8
:10A6B0001B680C930C990A9B0193099B00930B9BBD
:10A6C00010220598FFF766FD30E000BF0854030034
:10A6D000039B1B68191D039A11601B6808930A9B52
:10A6E000099A08990598FFF7F3FC1FE0039B1B6884
:10A6F000191D039A11601B680C9330210598FFF710
:10A70000C1FC78210598FFF7BDFC0C99002301934B
:10A7100008230093082310220598FFF73BFD05E06E
:10A7200025210598FFF7AEFC00E000BF049B013334
:10A73000049305E09DF8373019460598FFF7A2FC11
:10A74000049B1B78002B7FF477AE00E000BF059BD5
:10A750001B7B002B04D00598FFF738FC00E000BFFE
:10A760000FB05DF804FB00BF00B583B00190019805
:10A77000FFF754FB0346184603B05DF804FB00B531
:10A780008BB001900091019B1B8A043B0793009AB8
:10A79000079B1344DA1C079BB2FBF3F38DF81B30C5
:10A7A0000198FFF797FB0590059B002B01D1002333
:10A7B00038E0059B00221A71059B01225A71079B04
:10A7C0009AB2059BDA80059B09939DF81B30013BEB
:10A7D0000493099B019A1A60002308931DE00198D5
:10A7E000FFF778FB0390039B002B0ED0059B5B7952
:10A7F0000133DAB2059B5A71099B039A1A60039BD5
:10A80000019A1A60039B099304E0059800F00EF882
:10A81000002307E0089B01330893089A049B9A429F
:10A82000DDD3059B18460BB05DF804FB00B58BB07B
:10A830000190019B0793079B5B798DF81B30019B6F
:10A8400008939DF81B30013B05930023099305E015
:10A85000089B1B680893099B01330993099A059B80
:10A860009A42F5D3089B1B680493019B089300232D
:10A8700009930BE0089B1B68039308990498FFF762
:10A8800071FB039B0893099B013309939DF81B30CF
:10A89000099A9A42EED300BF00BF0BB05DF804FBEB
:10A8A00000B585B00190019B0393039B0433012104
:10A8B0001846FFF735FA00BF05B05DF804FB00B598
:10A8C00087B00190019B0593059B04330121184635
:10A8D000FFF73EFA0346039303AB0493049B1B78F4
:10A8E000002B02D10198FFF7A1FF00BF07B05DF870
:10A8F00004FB000000B591B0039002910192009317
:10A90000039B002B03D14349B62006F035F8039B87
:10A910000993039B0F93099BDB881A46099B5B797C
:10A9200003FB02F3043B0893009A089B9A4203D36B
:10A930003849C42006F020F8099BDB880793009B68
:10A940001A1D079BB2FBF3F30E93009B0433079A87
:10A95000B3FBF2F2079901FB02F29B1A0D93019BE4
:10A960001A68009B1344089A9A4203D2089A009BE3
:10A97000D31A01E0019B1B680C93019B0C9A1A608F
:10A9800005E00F9B1B680F930E9B013B0E930E9BE4
:10A99000002BF6D100230B93079A0D9BD31A0A9331
:10A9A0000A9A0C9B934228BF13460A932AE0029A04
:10A9B0000B9B134406930F9A0D9B1344043305938A
:10A9C0009DF84830002B05D00A9A059906980AF0A0
:10A9D0002FF904E00A9A069905980AF029F900234C
:10A9E0000D930F9B1B680F930C9A0A9BD31A0C9321
:10A9F0000B9A0A9B13440B93079A0C9B934228BF14
:10AA000013460A930C9B002BD1D100BF00BF11B09D
:10AA10005DF804FB6854030000B589B0059004910B
:10AA200003920293039B079307AA00230093029BC0
:10AA300004990598FFF75EFF079B039A9A4203D09B
:10AA40000349F62005F098FF00BF09B05DF804FB4C
:10AA50006854030000B589B00590049103920293F5
:10AA6000039B079307AA01230093029B049905986F
:10AA7000FFF740FF079B039A9A4204D004494FF422
:10AA8000807005F079FF00BF09B05DF804FB00BFDE
:10AA90006854030082B003468DF807309DF80730F4
:10AAA00003F01F0206499DF907305B09012000FAF7
:10AAB00002F2603341F8232000BF02B0704700BFAC
:10AAC00000E100E000B583B00190019B002B03D1B1
:10AAD0000649722005F050FF019B00221A60BFF367
:10AAE0005F8F00BF00BF03B05DF804FB1855030083
:10AAF00041DF704700BF184600B585B000238DF8D0
:10AB000003300DF103031846FEF73EFBF1EE103A59
:10AB10000193019B0393039B23F09F030293029BEA
:10AB2000E1EE103A00BFBFF35F8F00BF2620FFF7B2
:10AB3000B1FF9DF803301846FEF73CFB039B03F082
:10AB40000703002B03D004497D2005F015FF00BF4B
:10AB500005B05DF804FB00BF6455030008B5064B63
:10AB600000221A700548FFF7ADFF0549054800F0BF
:10AB70004DF80023184608BD702A00206C2A0020DA
:10AB8000BC550300742A002000B583B0FFF7B4FF62
:10AB900008F0B6FE0346002B0ED0FFF7A9FF019088
:10ABA000019B002B0ED0019B022B0BD007494FF4C9
:10ABB000B07005F0E1FE05E020BF00BF40BF00BF60
:10ABC00020BF00BF00BF03B05DF804FB6455030065
:10ABD00082B00190019B9B6800229A60019B9B6858
:10ABE00000221A61019B9B6800225A61019B9B68AD
:10ABF0000022DA60019B9B6800225A60019B9B68DF
:10AC000000221A6000BF02B07047000000B583B098
:10AC100001900091019B002B03D11049502005F0B9
:10AC2000ABFE009B002B03D10C49512005F0A4FE84
:10AC3000019B009A1A60019B1B681A68019B5A606D
:10AC4000019B5A68019B1B685B689A4202D1019B79
:10AC500000225A6000BF03B05DF804FBC855030032
:10AC600000B583B00190019B002B03D114496320F0
:10AC700005F082FE019B1B68002B03D11049642064
:10AC800005F07AFE019B5B68002B14D0019B5B688A
:10AC90001A46019B1B689B6813441A46019B5A6025
:10ACA000019B5A68019B1B685B689A4204D1019B17
:10ACB00000225A6000E000BF03B05DF804FB00BF53
:10ACC000C855030000B585B001900091019B002B91
:10ACD00003D118493A2005F04FFE009B002B03D109
:10ACE00014493B2005F048FE019B5B6803930FE08D
:10ACF000019B9B68039A1268009910469847034687
:10AD000083F00103DBB2002B07D1039B1B68039385
:10AD1000039B1B68002BEBD100E000BF039B1A686C
:10AD2000009B1A60039B009A1A6000BF05B05DF893
:10AD300004FB00BF4056030000B585B00190019BA5
:10AD4000002B03D10C49512005F016FE019B5B68D6
:10AD50001B680393019B5B681B68002B06D0019B5B
:10AD60005B681A68019B5B6812681A60039B18464F
:10AD700005B05DF804FB00BF4056030000B583B08A
:10AD80000190019B002B03D105495D2005F0F4FDE6
:10AD9000019B5B681B68184603B05DF804FB00BFAD
:10ADA0004056030000B585B001900091019B002B37
:10ADB00003D11649692005F0DFFD009B002B03D16C
:10ADC00012496A2005F0D8FD00238DF80B30019B55
:10ADD0005B6803930FE0039B1B68009A9A4207D1BC
:10ADE000009B1A68039B1A6001238DF80B3006E064
:10ADF000039B1B680393039B1B68002BEBD19DF8FF
:10AE00000B30184605B05DF804FB00BF4056030048
:10AE100000B585B00190019800F00EF80390039BF7
:10AE2000002B01D0039B00E0024B184605B05DF8F3
:10AE300004FB00BF9856030086B00190164B0593A3
:10AE4000164B04931FE0049A059BD31ADB10DA0F0C
:10AE500013445B10DB00059A13440393039B1B68A8
:10AE60000293029A019B9A4202D9039B04930AE03F
:10AE7000029A019B9A4203D2039B0833059302E096
:10AE8000039B5B6804E0059A049B9A42DBD3002392
:10AE9000184606B0704700BF985A0300C05B030015
:10AEA00082B001900B46ADF80230BDF80230019A35
:10AEB0001344184602B0704782B00190019BD3F84A
:10AEC0001035DBB2184602B0704782B001900B46D5
:10AED0008DF803309DF80320019B02F5A87253F80A
:10AEE0002230184602B0704782B00190019B9B004F
:10AEF00003F5A0739BB2184602B0704770B586B0D8
:10AF000001900B468DF803309DF803300593019BAB
:10AF100018464FF000014FF000024FF000030B0104
:10AF200043EA107302010599C1F12006A1F1200046
:10AF300022FA01F403FA06F6344323FA00F004433C
:10AF400023FA01F5CDE90245DDE90223012B08BF13
:10AF5000002A04D3044940F2B32005F00DFD029B02
:10AF6000184606B070BD00BFC05B030010B582B0CC
:10AF700001900091019B5B791A46009B934204D398
:10AF8000094940F26B1005F0F7FC019B1C68009822
:10AF9000FFF7AAFF034619462046FFF781FF034645
:10AFA000184602B010BD00BFF85B030000B583B0C7
:10AFB00001900B468DF80330019B1B689DF8032020
:10AFC00011461846FFF781FF0346184603B05DF8A7
:10AFD00004FB00B583B001900091019B1B681846EB
:10AFE000FFF76AFF034619460098FFF787FF0346FD
:10AFF000184603B05DF804FB00B583B00190019BD7
:10B000001B682F2B04D90B4940F2CD1005F0B4FC7E
:10B01000019B1B681F2B02D84FF0A04306E0019B49
:10B020001B6803F01F02019B1A60034B184603B014
:10B030005DF804FB3C5C03000003005000B585B0E4
:10B04000019001AB1846FFF7D7FF0390019B012247
:10B0500002FA03F31946039800F018F800BF05B090
:10B060005DF804FB00B585B0019001AB1846FFF711
:10B07000C3FF0390019B012202FA03F319460398D0
:10B0800000F00EF800BF05B05DF804FB82B001903F
:10B090000091019B009AC3F8082500BF02B07047D9
:10B0A00082B001900091019B009AC3F80C2500BF6B
:10B0B00002B0704782B001900B468DF8033000BF9C
:10B0C00002B0704700B585B00190019B5B681B79A9
:10B0D0001A461A4B9B5C8DF80E3001238DF80F3009
:10B0E0009DF80E30FF2B20D09DF80E30FE2B1FD088
:10B0F000019B5B689DF80E2011461846FFF756FF2E
:10B100000246019B5B681B7919460D4B53F82130B1
:10B110009A420DD1019B5B681B791A46074BFF21B0
:10B12000995400238DF80F3002E000238DF80F3082
:10B130009DF80F30184605B05DF804FB802A00200A
:10B14000882A002000B583B00190019B5B68022132
:10B15000184605F009F900BF03B05DF804FB00B51F
:10B1600083B00190019B5B680221184605F036F917
:10B1700000BF03B05DF804FB00B587B00346009143
:10B18000ADF80630009B049301238DF8173000239F
:10B190008DF816303AE09DF816302649049A520090
:10B1A0000A4413441B78DBB2002B2AD09DF81630DA
:10B1B0002049049A52000A441A441278D2B2013A41
:10B1C000D0B21C49049A52000A44134402461A7031
:10B1D0009DF816301749049A52000A4413441B780C
:10B1E000DBB2002B0AD1144A049B52F823301B68AF
:10B1F0000393039BDB690498984702E000238DF8D2
:10B2000017309DF8163001338DF816309DF8163042
:10B21000012BC0D99DF81730002B06D0064A049B9D
:10B2200052F823301846FFF79AFF00BF07B05DF8C9
:10B2300004FB00BF9C2A0020A82A002000B585B08E
:10B240000190019B1B680293029B93F820301846E3
:10B2500005F09CFA00238DF80F306CE000238DF888
:10B260000E3031E09DF80F209DF80E100298134625
:10B270005B0013449B0003440B4408331B78FF2BF3
:10B280001DD09DF80F209DF80E10029813465B000C
:10B2900013449B0003440B4408331B78184605F005
:10B2A00075FA9DF80F209DF80E10029813465B006A
:10B2B00013449B0003440B440833FF221A709DF88B
:10B2C0000E3001338DF80E309DF80E30012BC9D9A8
:10B2D0009DF80F20029913465B0013449B000B441A
:10B2E0001B68B3F1FF3F16D09DF80F20029913465B
:10B2F0005B0013449B000B441B68184602F050F996
:10B300009DF80F20029913465B0013449B000B44E9
:10B310004FF0FF321A609DF80F20029913465B0030
:10B3200013449B000B440B3300221A709DF80F301E
:10B3300001338DF80F309DF80F30012B8ED9019B12
:10B340005B68184604F0FAFE00BF05B05DF804FB28
:10B3500030B587B001900B468DF803301346ADF839
:10B360000030019B1B6805939DF8032013465B008A
:10B3700013449B00059A134404939DF803308DF801
:10B380000F30059B93F82030184605F09EFABDF863
:10B390000030002B11D1049B5B7A184605F095FA1A
:10B3A000049B1B7A184605F05BFA019B5B681B79CE
:10B3B0001A46484BFF21995485E0BDF80020059BB3
:10B3C0009B699A4215D3059B9B69ADF80030049B9D
:10B3D0001B7A184605F079FA049B5B7A184605F04B
:10B3E0003FFA019B5B681B791A463A4BFF2199543F
:10B3F00069E0049B5A68059B9B699A4249D0049B6B
:10B400005B68002B45D0BDF80020049B5B689A4226
:10B410003FD2019B5868049B5A680023032104F023
:10B420003BFF059B93F82040019B5B680321184676
:10B43000FFF79CFD0546049B9B7A002B06D0049BDE
:10B440001B68184602F07CF9034605E0049B1B6864
:10B45000184602F049F903461A462946204605F0E7
:10B46000C6F9059B93F82030184605F0F9F9019BC1
:10B470005B681B791946174A9DF803305354019BAA
:10B480005B681B791946BDF80030134A42F8213039
:10B4900006E0019B5B681B791A460E4BFF2199540D
:10B4A000019B5868BDF800209DF80F10002304F0A0
:10B4B000F3FE049B1B7A184605F0D2F9049B5B7AD5
:10B4C000184605F0CDF9BDF80020049B5A6000BF76
:10B4D00007B030BD802A0020882A002000B585B042
:10B4E00001900B468DF803301346ADF80030019BF8
:10B4F0001B6803939DF8032013465B0013449B00D5
:10B50000039A134402939DF80330012B04D92C496C
:10B5100040F25B2005F030FA029BDB7A012B04D06D
:10B5200027494FF4177005F027FA039B93F8213051
:10B53000022B01D008233EE0BDF80020029B5B688F
:10B540009A420CD1039BDB69002B06D0039BDB697D
:10B55000019A526812791046984700232BE001980F
:10B56000FFF7B0FD0346002B01D0112323E0019B20
:10B570005B681B791A46134BFE219954BDF80020D5
:10B580009DF8033019460198FFF7E2FE019B1B6806
:10B59000DB69002B0ED0019B5B681B791A469DF876
:10B5A0000330094952000A44134402221A700198D8
:10B5B000FFF7C8FD0023184605B05DF804FB00BF87
:10B5C000705C0300802A00209C2A002084B0019037
:10B5D000019B1B680393039B9B699BB2184604B0B5
:10B5E0007047000000B585B001900B468DF8033020
:10B5F0001346ADF800300198FFF7E8FF03461A46FE
:10B60000BDF8003003FB02F3084AA2FB03235B09E9
:10B610000393039B9AB29DF8033019460198FFF7F4
:10B620005DFF0346184605B05DF804FB1F85EB512E
:10B6300010B58CB0039001921A460B468DF80B3072
:10B6400013468DF80A309DF80B30012B04D9684958
:10B650004FF42B7005F090F9039B1B680A939DF83B
:10B660000B2013465B0013449B000A9A1344099372
:10B670000A9B93F82130002B01D00823B4E0099BEA
:10B6800000225A60099B9DF80A209A7203238DF8C4
:10B690001430039B19689DF80B2013465B0013447C
:10B6A0009B000B440A331B78002B0CBF01230023A3
:10B6B000DBB28DF8153001238DF8163005AB194635
:10B6C000019801F005FF0890089B002B01D004238E
:10B6D0008AE09DF80B200A9913465B0013449B00F7
:10B6E0000B44019A1A609DF80A30002B03D0019890
:10B6F000FFF7B8FC02E00198FFF7A0FC00238DF8EB
:10B700002F3011E09DF82F300833099A1344184662
:10B7100004F0E2FF0346002B01D0042364E09DF80F
:10B720002F3001338DF82F309DF82F30012BE9D9C0
:10B73000099B1B7A184605F0C8F8099B5B7A1846E6
:10B7400005F0C3F89DF80A30002B06D0099B1B6852
:10B75000184601F0F5FF034605E0099B1B681846F3
:10B7600001F0C2FF034607939DF80A30002B06D074
:10B77000099B1B68184601F0B7FF034605E0099BCB
:10B780001B68184601F0DCFF03460693099B1C7AF0
:10B79000039B5B689DF80B2011461846FFF7E6FBFC
:10B7A0000346079A1946204605F021F8099B5C7A62
:10B7B000039B5B6802211846FFF7D8FB0346069AF5
:10B7C0001946204605F013F8099B0122DA72039B03
:10B7D0005B681B791A469DF80B30064952000A44F3
:10B7E000134400221A70002318460CB010BD00BF8D
:10B7F000705C03009C2A002084B001900023039316
:10B800000923029305E0019B5B080193039B01332D
:10B810000393019BB3F5805F03D3039A029B9A4283
:10B82000F1D3074B1B78002B04D0039B002B01D1D5
:10B8300001230393039BDBB2184604B0704700BF9B
:10B840007C2A002000B58FB0059004910392059BDF
:10B85000002B04D18F4940F2113005F08DF8049B84
:10B86000002B01D10B2310E1059B1B680C930C9B53
:10B8700093F82130002B01D0082306E103F0BEFE2F
:10B880000B900B9B002B04D00B9B852B01D004232A
:10B89000FBE001F011FE034683F00103DBB2002B55
:10B8A00007D001F0B7FD0B900B9B002B01D00323B9
:10B8B000EBE0794B1B6803F0F003302B03D1774B9F
:10B8C00000221A7002E0754B01221A700C9BFF22B5
:10B8D00083F8202000238DF8373030E09DF83720A2
:10B8E0000C9913465B0013449B000B440B3300225E
:10B8F0001A709DF837200C9913465B0013449B0087
:10B900000B440833FF221A709DF837200C99134618
:10B910005B0013449B000B440933FF221A709DF80F
:10B9200037200C9913465B0013449B000B444FF0E7
:10B93000FF321A609DF8373001338DF837309DF8AB
:10B940003730012BCAD90C9B2033184604F0C4FEB3
:10B950000346002B04D00598FFF770FC042394E005
:10B9600000238DF836302CE09DF83620049B53F8E8
:10B970002230B3F1FF3F1FD09DF83620049B53F8CF
:10B9800022009DF83630049A13441B7A9DF8361035
:10B9900002460598FFF74CFE0B900B9B002B04D042
:10B9A0000598FFF74BFC0B9B6FE09DF836300022AB
:10B9B00019460598FFF792FD9DF8363001338DF852
:10B9C00036309DF83630012BCED9049B1B691846C2
:10B9D000FFF712FF03468DF82B309DF82B308DF8C2
:10B9E0001C3000238DF81D3000238DF81E300723F6
:10B9F0008DF81F30059B5B681B790893059B5B687E
:10BA000007A9274A184604F095FA0B900B9B002BC8
:10BA100004D00598FFF712FC0B9B36E0059B5A6893
:10BA2000049B1B6919461046FFF7D3FA09900C9B3B
:10BA3000099A9A61059B5B68184604F00BFC059B0C
:10BA40005868012300930423099A022104F05DFC45
:10BA5000059B5B680221184604F0C0FC0C9B039A0E
:10BA6000DA61059B5B681B7919460E4A059B42F813
:10BA70002130059B5B681B791A460B4BFF219954BB
:10BA80000C9B012283F82120002318460FB05DF89B
:10BA900004FB00BF705C0300E80F00F07C2A00206C
:10BAA00079B10200A82A0020802A002000B587B0C2
:10BAB0000190019B1B680493049B93F82130002B99
:10BAC00004D1304940F2973004F056FF002305932B
:10BAD00034E0059A13465B0013449B00049A134418
:10BAE0000393019B5B681B79274A5B001A44059B03
:10BAF000134400221A70039BDB7A002B1BD0039B9C
:10BB00001868019B1968059A13465B0013449B0053
:10BB10000B440A331B78002B0CBF01230023DBB23C
:10BB2000194601F039FE039B1B68184601F078FDA9
:10BB3000039B00225A60059B01330593059B012B53
:10BB4000C7D9019B5B681B791A46104BFF2199549A
:10BB5000019B5B681B6801211846FFF7ABFA019B4C
:10BB60005B68184604F076FB019B5B68184604F09E
:10BB700015FB049B022283F8212000BF07B05DF86B
:10BB800004FB00BF705C03009C2A0020802A002078
:10BB900000B587B00190019B1B680493049B93F848
:10BBA0002130002B04D136494FF46D7004F0E4FECF
:10BBB000019B5B68184604F01FFB0198FFF7CFFA62
:10BBC000049B93F82030184604F07FFE00238DF884
:10BBD000173041E09DF8172013465B0013449B008B
:10BBE000049A13440393039BDB7A002B2FD0019B11
:10BBF00019689DF8172013465B0013449B000B4403
:10BC00000A331B78002B0CBF01230023DBB28DF815
:10BC10000B309DF80B30002B05D0039B1B6818469A
:10BC2000FFF70CFA04E0039B1B681846FFF71AFAAB
:10BC3000039B1B68184601F025FD039B1B7A1846E1
:10BC400004F043FE039B5B7A184604F03EFE9DF829
:10BC5000173001338DF817309DF81730012BB9D903
:10BC6000019B5B681B6800211846FFF723FA049BC1
:10BC7000012283F8212000BF07B05DF804FB00BF5C
:10BC8000705C030000B585B00190019B1B680393B5
:10BC9000039B93F82130022B03D10198FFF778FF23
:10BCA00006E0039B93F82130002B01D1082307E025
:10BCB0000198FFF7C3FA039B002283F82120002399
:10BCC000184605B05DF804FBBFF34F8F00BF074B6C
:10BCD000DB6803F4E0620549054B1343CB60BFF317
:10BCE0004F8F00BF00BF00BFFCE700BF00ED00E0CA
:10BCF0000400FA05024B034A1A6000BF704700BFF8
:10BD00005C2300200090D00308B500F027F903461B
:10BD1000002B0ED04FF080430022C3F80C214FF0CF
:10BD200080430022C3F810214FF080430022C3F863
:10BD3000382500F037F90346002B76D04FF08053BA
:10BD40007D4AD3F80434C2F820354FF080537A4A44
:10BD5000D3F80834C2F824354FF08053764AD3F82C
:10BD60000C34C2F828354FF08053734AD3F810349E
:10BD7000C2F82C354FF080536F4AD3F81434C2F810
:10BD800030354FF080536C4AD3F81834C2F834354C
:10BD90004FF08053684AD3F81C34C2F840354FF056
:10BDA0008053654AD3F82034C2F844354FF08053AD
:10BDB000614AD3F82434C2F848354FF080535E4AC4
:10BDC000D3F82834C2F84C354FF080535A4AD3F890
:10BDD0002C34C2F850354FF08053574AD3F83034E2
:10BDE000C2F854354FF08053534AD3F83434C2F874
:10BDF00060354FF08053504AD3F83834C2F8643578
:10BE00004FF080534C4AD3F83C34C2F868354FF0B9
:10BE10008053494AD3F84034C2F86C354FF0805310
:10BE2000454AD3F84434C2F8703500F0DFF80346D1
:10BE3000002B02D0414B424A1A6000F0E9F8034659
:10BE4000002B03D03F4BFB22C3F8182500F0F2F87B
:10BE50000346002B0AD03C4B1B6823F00F023B4BE0
:10BE60001B6803F00F03384913430B6000F0F4F82C
:10BE70000346002B03D0364B4FF400721A6000F0DB
:10BE8000FDF80346002B0DD04FF08043D3F800346B
:10BE900003F00103002B05D04FF080436FF0010247
:10BEA000C3F800242B4BD3F888302A4A43F470039C
:10BEB000C2F88830BFF34F8F00BFBFF36F8F00BF52
:10BEC0004FF01023D3F80032002B05DB4FF0102386
:10BED000D3F80432002B2BDA1F4B0122C3F80425C0
:10BEE00000BF1D4BD3F80034002BFAD04FF01023C5
:10BEF0001222C3F8002200BF174BD3F80034002BE6
:10BF0000FAD04FF010231222C3F8042200BF124BC4
:10BF1000D3F80034002BFAD00F4B0022C3F80425CD
:10BF200000BF0D4BD3F80034002BFAD0FFF7CCFE46
:10BF3000FFF7E0FE00BF08BD00C000408C56004087
:10BF40004881030000F00040E40E00405802001059
:10BF50004096024000ED00E000E001400F4B1B68FE
:10BF6000082B17D10E4B1B68002B01D1012312E0C7
:10BF70000B4B1B68012B01D101230CE0084B1B6804
:10BF8000022B01D1012306E0054B1B68032B01D1D5
:10BF9000012300E001231846704700BF3001001064
:10BFA000340100100F4B1B68082B17D10E4B1B6878
:10BFB000002B01D1012312E00B4B1B68012B01D197
:10BFC00001230CE0084B1B68022B01D1012306E082
:10BFD000054B1B68032B01D1012300E00123184608
:10BFE000704700BF3001001034010010064B1B6881
:10BFF000082B05D1054B1B68002B01D1012300E064
:10C0000000231846704700BF3001001034010010B3
:10C01000064B1B68082B05D1054B1B68002B01D173
:10C02000012300E000231846704700BF30010010D4
:10C0300034010010064B1B68082B05D1054B1B680B
:10C04000002B01D1012300E000231846704700BFF8
:10C050003001001034010010064B1B68082B05D17D
:10C06000054B1B68002B01D1012300E0002318467B
:10C07000704700BF30010010340100100F4B1B68E7
:10C08000082B17D10E4B1B68002B01D1012312E0A6
:10C090000B4B1B68012B01D101230CE0084B1B68E3
:10C0A000022B01D1012306E0054B1B68032B01D1B4
:10C0B000012300E001231846704700BF3001001043
:10C0C0003401001000B583B00190019B1B682F2B39
:10C0D00004D90B4940F2CD1004F04EFC019B1B68C3
:10C0E0001F2B02D84FF0A04306E0019B1B6803F012
:10C0F0001F02019B1A60034B184603B05DF804FB56
:10C10000C05C03000003005000B585B0019001AB96
:10C110001846FFF7D7FF0390019B012202FA03F3B1
:10C120001946039800F02AF800BF05B05DF804FB3B
:10C1300000B585B0019001AB1846FFF7C3FF03902F
:10C14000019B012202FA03F31946039800F020F83C
:10C1500000BF05B05DF804FB00B583B0019000910D
:10C16000009B002B03D10198FFF7E2FF02E001984A
:10C17000FFF7CAFF00BF03B05DF804FB82B0019077
:10C180000091019B009AC3F8082500BF02B07047D8
:10C1900082B001900091019B009AC3F80C2500BF6A
:10C1A00002B0704700B583B00190019B032B03D907
:10C1B0000749412004F0E0FB064A019B13441B7829
:10C1C00000211846FFF7C8FF00BF03B05DF804FB6D
:10C1D000F45C03003C5D030000B583B00190019B5B
:10C1E000032B03D90749472004F0C6FB064A019BED
:10C1F00013441B7801211846FFF7AEFF00BF03B0C0
:10C200005DF804FBF45C03003C5D030082B0034670
:10C210008DF807309DF8073003F01F0206499DF99D
:10C2200007305B09012000FA02F2203341F8232095
:10C2300000BF02B0704700BF00E100E008B507F0A2
:10C240005FFB034683F00103DBB2002B03D10549FA
:10C25000792004F091FB00F0DFFB034B00229A7081
:10C2600000BF08BD485D0300BC2A002000B583B0B4
:10C2700000230193144B1B78002B02D085230193DC
:10C280001CE0114B00229A600F4B00225A600E4BAB
:10C2900000221A610C4B0022DA600C4800F068FBA7
:10C2A000019007F02DFB034683F00103DBB2002B66
:10C2B00001D000F083FB044B01221A70019B184649
:10C2C00003B05DF804FB00BFBC2A002095C4020047
:10C2D00084B001900091019B1B68039306E0039AD0
:10C2E000009B9A420DD0039B1B680393039B002B7A
:10C2F000F5D1019B1A68009B1A60019B009A1A6095
:10C3000000E000BF04B0704784B00190019B1B683F
:10C310000393039B002B03D0039B1A68019B1A60B5
:10C32000039B184604B0704700B585B00190294BB7
:10C330001B78002B03D12849E92004F01DFB254B75
:10C340009B78DBB2002B19D0019B002B03D0019B03
:10C350005B680120984700238DF80F300DF10F0323
:10C360001846FCF711FF1B4BDB680133194AD360F9
:10C370009DF80F301846FCF71DFF1EE000238DF8D6
:10C380000E300DF10E031846FCF7FEFE019B002B4C
:10C3900003D001991148FFF79BFF0E4BDB68002B80
:10C3A00001D100F01FFB0B4BDB680133094AD3605E
:10C3B0009DF80E301846FCF7FDFE064BDB68002B9F
:10C3C00004D1054940F2051004F0D6FA00BF05B0CB
:10C3D0005DF804FBBC2A0020485D0300CC2A002045
:10C3E00000B583B0164B1B78002B04D115494FF4D0
:10C3F000857004F0C1FA124BDB68002B04D111499F
:10C4000040F20B1004F0B8FA00238DF807300DF15C
:10C4100007031846FCF7B8FE094BDB68013B084AE6
:10C42000D360074BDB68002B01D1FFF707FF9DF8B6
:10C4300007301846FCF7BEFE00BF03B05DF804FBF2
:10C44000BC2A0020485D030000B585B003468DF886
:10C4500007309DF80730002B02D10C4B039301E00D
:10C460000B4B03930398FFF74FFF0290029B002BA7
:10C4700006D0029B5B689DF8072010469847F1E7BD
:10C4800000BF00BF05B05DF804FB00BFC42A002058
:10C49000CC2A002000B583B003468DF807309DF804
:10C4A0000730002B05D10A4B01225A700020FFF7FC
:10C4B000CBFF9DF80730012B05D1054B01229A7067
:10C4C0000120FFF7C1FF00BF03B05DF804FB00BF10
:10C4D000BC2A002000B583B001900091019B002B85
:10C4E00005D1054B01225A700020FFF7ADFF00BFB8
:10C4F00003B05DF804FB00BFBC2A002000B585B086
:10C50000034600918DF807309DF80730032B29D0A2
:10C51000032B35DC002B02D0012B04D030E00020AF
:10C52000FFF774FE2DE000238DF80F300DF10F039F
:10C530001846FCF729FE154B1B7883F00103DBB28C
:10C54000002B01D0FFF792FE104BDB6801330F4A3E
:10C55000D3600E4B01229A709DF80F301846FCF7FD
:10C5600029FE0EE0094B1B78002B04D1084940F24C
:10C57000452004F001FA00F021FAFFF731FF00E056
:10C5800000BF00BF05B05DF804FB00BFBC2A00205F
:10C59000485D030000B589B001900091009B0793AE
:10C5A000019B1B788DF80C30019B5B680493019B09
:10C5B0009B68DBB28DF81430019BDB680693074A59
:10C5C000079B52F823300649079A51F8221003AA14
:10C5D0001046984700BF09B05DF804FBD02A002040
:10C5E000D82A002000B589B001900091009B0793E4
:10C5F000019B1B788DF80C30019B5B680493019BB9
:10C600009B68DBB28DF81430019BDB680693074A08
:10C61000079B52F823300649079A51F8221003AAC3
:10C620001046984700BF09B05DF804FBD02A0020EF
:10C63000D82A002030B58FB0039002910192039B5D
:10C640001B780C932C490C9B019A41F82320029BE8
:10C650001A692A490C9B41F823200C9B012B07D116
:10C66000029B5B7F002B03D12549762004F084F9DF
:10C67000029B5B7F1946234A0C9B13440A461A709F
:10C68000029B04AC1D460FCD0FC495E80F0084E853
:10C690000F000C9B089300230D93039B1B781A46F5
:10C6A000184B9B5C002B0DD0039B181D019B002B8E
:10C6B00001D0154A00E0002204AB194602F006FD45
:10C6C0000D9014E0039B1B781A460E4B9B5C002BCD
:10C6D0000DD1039B03F10C00019B002B01D00B4AF1
:10C6E00000E0002204AB194601F0A2FE0D900D9B64
:10C6F00018460FB030BD00BFD02A0020D82A002035
:10C700009C5D0300E02A002095C50200E5C50200FB
:10C7100082B003468DF807309DF8073003F01F0202
:10C7200005499DF907305B09012000FA02F241F842
:10C73000232000BF02B0704700E100E082B0034652
:10C7400000918DF807309DF90730002B0CDA009B23
:10C75000DAB20C499DF8073003F00F03043B520195
:10C76000D2B20B441A7609E0009BDAB206499DF971
:10C7700007305201D2B20B4483F8002300BF02B04D
:10C78000704700BF00ED00E000E100E082B00190E2
:10C79000019B1B0B5BB2184602B0704700B583B01B
:10C7A00003460A468DF8073013468DF806309DF88B
:10C7B0000630012B03D99DF80630032B0BD99DF8C9
:10C7C0000630042B03D99DF80630072B03D90849FE
:10C7D0006B2004F0D1F89DF806209DF90730114632
:10C7E0001846FFF7ABFF00BF03B05DF804FB00BFC6
:10C7F000F05D030000B583B003468DF807309DF966
:10C8000007301846FFF784FF00BF03B05DF804FB54
:10C8100082B003468DF807300F4A9DF90730002B90
:10C8200000DA1F335B115BB252F823209DF9073009
:10C83000594203F01F0301F01F0158BF4B425BB286
:10C8400022FA03F303F00103002B14BF012300239A
:10C85000DBB2184602B0704700E100E082B0019000
:10C860004FF08042019BC2F8043300BF02B0704712
:10C8700082B001904FF08042019BC2F8083300BFA4
:10C8800002B0704782B003468DF807309DF807303C
:10C8900003F1804301221A6000BF02B0704784B0E8
:10C8A0000346ADF80630BDF8063003F180430022A0
:10C8B0001A60BDF8063003F180431B680393039BA5
:10C8C00000BF04B0704782B00346ADF80630BDF833
:10C8D000063003F180431B68002B14BF01230023A3
:10C8E000DBB2184602B0704782B001904FF0804230
:10C8F000019BC2F8183500BF02B070474FF080436B
:10C90000D3F818341B0C03F00103002B14BF0123D0
:10C910000023DBB21846704700B583B006238DF8BC
:10C9200007304FF08040FFF731FF03461846FFF70E
:10C930006FFF034683F00103DBB2002B13D04FF0EF
:10C940008040FFF723FF03461A469DF8073019463B
:10C950001046FFF723FF4FF08040FFF717FF034615
:10C960001846FFF747FF00BF03B05DF804FB000067
:10C9700000B585B00190019B002B03D10D49A42087
:10C9800003F0FAFF002303930B4B1B79002B02D01B
:10C990008523039308E0084A019B1360064B01229C
:10C9A0001A71054B00225A71039B184605B05DF8B9
:10C9B00004FB00BF305E0300E42A002008B5074BEB
:10C9C0001B79002B03D10649BD2003F0D5FFFFF7EB
:10C9D000A3FF0120FFF788FF00BF08BDE42A002065
:10C9E000305E030008B50A4B1B79002B03D10949BF
:10C9F000EA2003F0C1FF4FF48270FFF750FF0220DE
:10CA0000FFF72CFF0820FFF73DFF00BF08BD00BF68
:10CA1000E42A0020305E030008B50A4B1B79002B86
:10CA200003D10949F72003F0A7FF0C20FFF72AFFE5
:10CA300000BFFFF763FF0346002BFAD100BF00BF22
:10CA400008BD00BFE42A0020305E030008B54FF4A3
:10CA50008070FFF738FF0346002B14D04FF480702E
:10CA6000FFF71DFF0120FFF703FF114B5B7983F0F8
:10CA70000103DBB2002B06D00D4B01225A710C4B87
:10CA80001B68002098474FF48270FFF71CFF034695
:10CA9000002B0AD04FF48270FFF701FF0220FFF74E
:10CAA000E7FE034B1B680120984700BF08BD00BF8D
:10CAB000E42A002082B003468DF807309DF8073045
:10CAC00003F01F0205499DF907305B09012000FAB8
:10CAD00002F241F8232000BF02B0704700E100E0FD
